:10000000F8FF002011040000D5380000BF330000C5
:10001000D5380000D5380000D5380000D5380000AC
:10002000D5380000D5380000D5380000D53800009C
:10003000D5380000D5380000BD330000BB330000C8
:10004000C1340000D5380000D5380000D538000094
:100050009F340000D5380000D5380000D5380000A6
:10006000D5380000D5380000D5380000D53800005C
:10007000D5380000D5380000D5380000D53800004C
:10008000D5380000D5380000D5380000D53800003C
:10009000D5380000D5380000D5380000D53800002C
:1000A000D5380000D5380000D5380000D53800001C
:1000B000D5380000D5380000D5380000D53800000C
:1000C000D5380000D5380000D5380000D5380000FC
:1000D000D5380000D5380000D5380000D5380000EC
:1000E000D5380000D5380000D5380000D5380000DC
:1000F000D5380000D5380000D5380000093300009D
:10010000D5380000D5380000D5380000D5380000BB
:10011000D5380000D5380000D5380000D5380000AB
:10012000D5380000D5380000D5380000D53800009B
:10013000D5380000D5380000713400007334000059
:10014000D5380000D5380000D5380000D53800007B
:100150002F3300002B33000065340000D538000039
:10016000D5380000D5380000D5380000D53800005B
:10017000D5380000D5380000D5380000D53800004B
:10018000D5380000D5380000D5380000D53800003B
:10019000D5380000DF340000D5380000D538000025
:1001A00045340000D5380000CD330000D5380000BC
:1001B000D5380000D5380000D5380000D53800000B
:1001C000D5380000D5380000D5380000D5380000FB
:1001D000D5380000D5380000D5380000D5380000EB
:1001E000D5380000D5380000D5380000D5380000DB
:10040000FFFFFFFFFFFFFFFFFFFFFFFFFEFFFFFFFD
:1004100062B64FF000004FF000014FF000024FF0C5
:1004200000034FF000044FF000054FF000064FF0BE
:1004300000074FF000084FF000094FF0000A4FF09E
:10044000000B4FF0000C03F0D7FAFEE7DFF8B01412
:100450000A6842F004020A600A6822F002020A6096
:100460000822521E03060B684CBF43F0080323F01A
:1004700008030B6040000B6843F002030B6000BFF1
:100480000B6823F002030B60002AEAD170470000DA
:10049000DFF86C140A6822F004020A600A6822F08D
:1004A00002020A600822521E03060B684CBF43F08A
:1004B000080323F008030B6040000B6843F00203BD
:1004C0000B6000BF0B6823F002030B60002AEAD127
:1004D000704770B504460025A5F15000C0B2FFF783
:1004E000D7FF0120FFF7D4FF1020FFF7D1FF8026B0
:1004F0002046FFF7ABFF761EFAD16D1C082DEBDB13
:1005000070BD10B5012201231146032000F0DFFD6C
:1005100001231A460221032000F0D9FD0123032103
:100520001A46084600F0D3FD01231A460421032091
:1005300000F0CDFD002301220F21022000F0C7FDB5
:10054000DFF8C003016C41F002010164016C21F08D
:1005500010010164016821F400410160016841F467
:1005600000410160AE20FFF793FF0020FFF790FFEE
:100570001020FFF78DFF4020FFF78AFF8120FFF753
:1005800087FFCF20FFF784FFA120FFF781FFC8205E
:10059000FFF77EFFA620FFF77BFFA820FFF778FF7D
:1005A0003F20FFF775FFD320FFF772FF0020FFF712
:1005B0006FFFD520FFF76CFF8020FFF769FFD92080
:1005C000FFF766FFF120FFF763FFDA20FFF760FF18
:1005D0001220FFF75DFFDB20FFF75AFF4020FFF7F7
:1005E00057FF2020FFF754FF0220FFF751FF8D2017
:1005F000FFF74EFF1420FFF74BFFA420FFF748FF43
:10060000A620FFF745FFAF20FFF742FF0020FFF7CE
:1006100060FFB020FFF73CFF1020FFF739FF0120FB
:10062000FFF736FF0020FFF754FF0FF2DC242246CD
:100630000021052000F03CF922460221052000F0AF
:1006400037F922460421052000F032F92246BDE8A0
:100650001040062105202BE12DE9F84F04460D46F8
:10066000934600270FF21C4858E020380606E4B2F3
:10067000792CA4BF00246D1CA5F15000C0B2FFF777
:1006800007FF200940F010094846FFF701FF04F07A
:100690000F0040F0010A5046FFF7FAFE360D16F83B
:1006A0000800FFF7D3FE46447078FFF7CFFEB0781E
:1006B000FFF7CCFEF078FFF7C9FE3079FFF7C6FEF2
:1006C0007079FFF7C3FEB079FFF7C0FEF079FFF74E
:1006D000BDFEA5F14F00C0B2FFF7DAFE4846FFF7B6
:1006E000D7FE5046FFF7D4FE307AFFF7AFFE707AA0
:1006F000FFF7ACFEB07AFFF7A9FEF07AFFF7A6FE8F
:10070000307BFFF7A3FE707BFFF7A0FEB07BFFF707
:100710009DFEF07BFFF79AFE08347F1CFFB217F8AE
:100720000B000028A1D1BDE8F18F2DE9F44F04465C
:10073000884600260FF2FC1B24E0761CF6B2F8B2C5
:10074000FFF7A6FE4846FFF7A3FE5046FFF7A0FEC0
:1007500010250020FFF77AFE6D1EFAD1A8F14F0098
:10076000C0B2FFF795FE4846FFF792FE5046FFF7EE
:100770008FFE10250020FFF769FE6D1EFAD1B61C12
:100780000E34F6B20098305C00285BD0009A0FF26D
:10079000881100200125B21801E0801C891C0B780B
:1007A000802B0CDB009FF75DBB4202BF4B78577874
:1007B000BB42F2D1C0B2C0EBC001480085B2E4B286
:1007C000772CA4BF002408F10108A8F15007F8B263
:1007D000FFF75EFE200940F010094846FFF758FE7B
:1007E00004F00F0040F0010A5046FFF751FE012DC2
:1007F000A3D0F8B2FFF74CFE4846FFF749FE50463B
:10080000FFF746FE0E2715F80B00FFF71FFE681CCA
:1008100085B27F1EF7D1A8F14F00C0B2FFF738FEB6
:100820004846FFF735FE5046FFF732FE4FF00E09FF
:1008300015F80B00FFF70AFE681C85B2B9F1010933
:10084000F6D19CE7BDE8F18F30B400228A71491DD2
:10085000062280B20A2490FBF4F4034604EB8405DC
:10086000A3EB45033033204601F80139521EF0D185
:1008700030BC70477CB504460D461046002600A9E2
:10088000FFF7E2FF00A800E0761C10F8011B3029FA
:10089000FAD000A8F6B2361806E032462946E0B291
:1008A000FFF7DAFE0834761C30780028F5D173BDE6
:1008B0002DE9F04182B0044688461646002700AD77
:1008C0000CE0B81900AA4078687041460020A87072
:1008D000E0B2FFF72AFF0E34BF1CFFB2B85D68B16B
:1008E00080288DF80000ECDA0020687000AA4146EC
:1008F000E0B2FFF7B1FE08347F1CEEE7BDE8F381FC
:10090000C0F00F4080F00F40C0B6D6E6B5E7D7D3B1
:100910002F4C414E445A4F00B0B2BBD5CEDFBAFE89
:10092000C0B6D6E6B5E7D7D3CEAAC4FAB7FECEF1A5
:10093000000000005C444444C475464444C444443C
:100940005C0020202213120A04040A09102000006F
:1009500088C43396D4B7945610EF08F80800003FC7
:100960002014263D162420190619200004242424CE
:100970002F24E4242F242424040021211111090709
:10098000011F21212121310012248008C87FC808BD
:10099000FE2222FE0000180601000F04271807217E
:1009A000213F000002E20207F28242322267A222C5
:1009B000020020203E22233E223E22223E21200011
:1009C0001CC444444445F644444444C41C00003F11
:1009D000121212121F121212123F000000F84848A1
:1009E0004848FF48484848F8000000070202020251
:1009F0001F22222222233800404141414141E1513E
:100A00004945434140000000000020203F00000015
:100A10000000000010101214D03F1090101010F0C1
:100A2000000020100806010000002320100F000025
:100A30001008FC0388640704F40424CC0000201888
:100A4000011C2020232D21300004180000FE22224A
:100A5000FE00FE42C25252DE0000201F01213F0074
:100A60003F100B040A112000404844262B9212121A
:100A70002A264240400000211109050301012121DD
:100A80001F00000000000000000000000000000047
:100A900000000000000000F800000000000000332B
:100AA0003000000000100C06100C060000000000D2
:100AB0000000000040C07840C0784000043F0404BB
:100AC0003F040400007088FC08300000001820FF7C
:100AD000211E0000F008F000E018000000211C03B7
:100AE0001E211E0000F00888700000001E21232433
:100AF0001927211010160E00000000000000000051
:100B000000000000000000E01804020000000007E0
:100B10001820400000020418E000000000402018E7
:100B200007000000404080F0804040000202010FBA
:100B300001020200000000F0000000000101011F9E
:100B400001010100000000000000000080B0700002
:100B50000000000000000000000000000001010192
:100B60000101010100000000000000000030300021
:100B700000000000000000008060180400601806FB
:100B80000100000000E010080810E000000F102035
:100B900020100F00001010F8000000000020203F7F
:100BA0002020000000700808088870000030282409
:100BB00022213000003008888848300000182020AA
:100BC00020110E000000C02010F8000000070424CF
:100BD000243F240000F80888880808000019212014
:100BE00020110E0000E0108888180000000F11206E
:100BF00020110E0000380808C83808000000003F27
:100C0000000000000070880808887000001C222185
:100C100021221C0000E010080810E0000000312232
:100C200022110F00000000C0C000000000000030D2
:100C30003000000000000080000000000000806024
:100C400000000000000080402010080000010204A5
:100C5000081020004040404040404000040404048C
:100C60000404040000081020408000000020100848
:100C700004020100007048080808F000000000307D
:100C800036010000C030C828E810E000071827240B
:100C900023140B000000C038E0000000203C2302B9
:100CA0000227382008F8888888700000203F20201C
:100CB00020110E00C030080808083800071820204E
:100CC0002010080008F808080810E000203F202045
:100CD00020100F0008F88888E8081000203F202026
:100CE0002320180008F88888E8081000203F20001A
:100CF00003000000C0300808083800000718202052
:100D0000221E020008F808000008F808203F210110
:100D100001213F20000808F8080800000020203FBB
:100D20002020000000000808F8080800C08080802B
:100D30007F00000008F888C028180800203F200124
:100D40002638200008F8080000000000203F20207E
:100D50002020300008F8F800F8F80800203F003F95
:100D6000003F200008F830C00008F808203F2000AD
:100D700007183F00E01008080810E0000F102020BE
:100D800020100F0008F808080808F000203F210193
:100D900001010000E01008080810E0000F182424EA
:100DA00038504F0008F8888888887000203F20005D
:100DB000030C302000708808080838000038202113
:100DC00021221C00180808F8080818000000203F1D
:100DD0002000000008F808000008F808001F202084
:100DE00020201F000878880000C838080000073855
:100DF0000E010000F80800F80008F800033C0700A6
:100E0000073C0300081868808068180820302C030D
:100E1000032C30200838C800C83808000000203FE4
:100E20002000000010080808C838080020382621D3
:100E300020201800000000FE020202000000007FD7
:100E400040404000000C30C00000000000000001E5
:100E50000638C00000020202FE00000000404040D0
:100E60007F000000000004020202040000000000F5
:100E70000000000000000000000000008080808072
:100E8000808080800002020400000000000000005A
:100E900000000000000080808080000000192422F3
:100EA00022223F2008F8008080000000003F11202F
:100EB00020110E000000008080800000000E112034
:100EC00020201100000000808088F800000E112012
:100ED00020103F200000808080800000001F222220
:100EE00022221300008080F0888888180020203F8C
:100EF000202000000000808080808000006B94949F
:100F00009493600008F8008080800000203F21005A
:100F100000203F2000809898000000000020203F23
:100F200020200000000000809898000000C0808011
:100F3000807F000008F8000080808000203F2402AD
:100F40002D302000000808F8000000000020203F9D
:100F5000202000008080808080808000203F200052
:100F60003F20003F8080008080800000203F2100E3
:100F700000203F200000808080800000001F202093
:100F800020201F00808000808000000080FFA120C2
:100F900020110E000000008080808000000E1120D3
:100FA00020A0FF80808080008080800020203F2162
:100FB0002000010000008080808080000033242415
:100FC00024241900008080E0808000000000001FC1
:100FD000202000008080000000808000001F202072
:100FE00020103F20808080000080808000010E3033
:100FF0000806010080800080008080800F300C0394
:101000000C300F0000808000808080000020312E96
:101010000E312000808080000080808080818E7072
:101020001806010000808080808080000021302C24
:101030002221300000000000807C0202000000003D
:10104000003F404000000000FF00000000000000E2
:10105000FF0000000002027C800000000040403FD2
:10106000000000000006010102020404000000006C
:101070000000000038B52B4C04EB80051B046D69A3
:1010800003F47023134343F4807345F821300123A4
:101090008B40C5F8C030D50707D5032A18BF132ADF
:1010A00003D0022A18BF122A05D154F8202054690F
:1010B00024EA0303536100F15704C1F10F012046F4
:1010C00000F08DF82046BDE8324000F030B870B432
:1010D000144C04EB800542F480766D6945F821607C
:1010E000D50703D5032A18BF132A0AD154F82000C4
:1010F0004269012303FA01F122EA0101416170BC56
:10110000704754F82000012202FA01F142690A43B3
:101110004261012B02680CBF114322EA0101016008
:1011200070BC70471C04FF1F37490860704710B53A
:1011300004465C2CA4BF0FF2E40000F06BFB20110E
:1011400004EBD060401103D0022815D00AD310BDA3
:101150000121A4EB401001FA00F02C4908602C4951
:10116000086010BD0121A4EB401001FA00F02749EE
:1011700048602749486010BD0121A4EB401001FAE6
:1011800000F0224988602249886010BD10B50446ED
:101190005C2CA4BF0FF2BC0000F03CFB201104EB60
:1011A000D060401103D0022811D008D310BD012116
:1011B000A4EB401001FA00F01649086010BD0121AF
:1011C000A4EB401001FA00F01249486010BD012163
:1011D000A4EB401001FA00F00E49886010BD38B54C
:1011E00004460D465C2CA4BF0FF2A40000F012FBD5
:1011F000102DA4BF0FF2D40000F00CFB064928010B
:10120000085531BD0000000008ED00E080E200E07C
:1012100000E100E080E100E000E400E00A45525215
:101220002120496E76616C696420495251207661B3
:101230006C75652070617373656420746F20656ED2
:1012400061626C65206972712066756E6374696F86
:101250006E210A000A4552522120496E76616C695E
:1012600064204952512076616C75652070617373FA
:10127000656420746F2064697361626C65206972B3
:10128000712066756E6374696F6E210A000000003C
:101290000A4552522120496E76616C696420495298
:1012A000512076616C75652070617373656420747C
:1012B0006F207072696F726974792069727120662B
:1012C000756E6374696F6E210A0000000A45525200
:1012D0002120496E76616C6964207072696F726951
:1012E00074792076616C7565207061737365642014
:1012F000746F207072696F726974792069727120DD
:1013000066756E6374696F6E210A000010B50C4635
:101310001168012902D0022904D008E05168C0B246
:10132000884704E0916808709068401C90602068CD
:10133000401C206010BD30B4002400F8014B002A8E
:10134000096812D091B191FBF3F203FB121100294D
:1013500046BFC94301F1310501F130051146641C56
:1013600000F8015B0029EED114E019B930210170B9
:1013700001240FE0B1FBF3F203FB12110A2934BF81
:1013800001F1300501F137051146641C00F8015BDD
:101390000029EFD1204630BC704770B514461D4679
:1013A000884214DA0E1A2868012808D0022809D1C8
:1013B000A96830200870A868401CA86002E03020AE
:1013C000696888472068401C2060761EEBD170BD9C
:1013D00070B514461D46884214DA0E1A2868012892
:1013E00008D0022809D1A96820200870A868401CEC
:1013F000A86002E02020696888472068401C2060BF
:10140000761EEBD170BD2DE9F04F8DB00546002062
:10141000934600908A4605E02A4600A9FFF776FF2A
:101420000AF1010A9AF80000002800F0EF8125284F
:1014300026D00A28F0D12868012808D0022809D12E
:10144000A9680D200870A868401CA86002E00D2063
:10145000696888470098401C00902868012808D0D7
:10146000022809D1A9680A200870A868401CA86051
:1014700002E00A20696888470098401C0090CFE786
:10148000002701E047F010071AF8010F20280ED0BE
:101490002328F7D02B2807D02D2802D0302809D0B8
:1014A0000BE047F00107EFE747F00207ECE747F0F2
:1014B0000407E9E747F00807E6E7AAF101014FF062
:1014C000000805E008EB880200EB4200A0F13008BC
:1014D00011F8010FA0F13002092AF3D92E2804D106
:1014E00011F8010F30380928FAD9481E82461AF837
:1014F000011F4C2918BF682902D06C2918BF8246E9
:101500001AF8010F58286AD0622800F00881632871
:1015100000F04A81642818BF692811D06E2800F0B5
:1015200070816F2800F0F680702800F0FD8073282D
:1015300000F04081752800F0FC8078284FD06BE7E0
:101540005BF8040B02900A23012202A903A8FFF70B
:10155000F2FE044603A804EB00090298002848BFE5
:101560002D2606D4B80748BF2B2602D4780702D50B
:101570002026641C00E0002638070CD526B12A4638
:1015800000A93046FFF7C2FE2B4600AA414620467E
:10159000FFF703FFF4E0F8070CD42B4600AA4146FE
:1015A0002046FFF715FF002E00F0F4802A4600A920
:1015B0003046F6E0002E00F0ED802868012807D0C4
:1015C000022808D1A8680670A868401CA86002E03C
:1015D0003046696888470098401C0090DAE0102384
:1015E0005BF8040B0190002201A903A8FFF7A3FEFA
:1015F000044603A804EB0009002638072ED5F80698
:1016000024D52868012808D0022809D1A9683020EB
:101610000870A868401CA86002E03020696888470C
:101620000098401C00902868012808D0022809D1A1
:10163000A96878200870A868401CA86002E078209B
:10164000696888470098401C009001262B4600AA34
:1016500041462046FFF7A1FE444631E0F8072FD46B
:10166000F80648BFA41C2B4600AA41462046FFF7B7
:10167000AFFEF80624D52868012808D0022809D131
:10168000A96830200870A868401CA86002E03020DB
:10169000696888470098401C00902868012808D095
:1016A000022809D1A96878200870A868401CA860A1
:1016B00002E07820696888470098401C0090012665
:1016C000F80667D5002E65D12868012808D00228C1
:1016D00009D1A96830200870A868401CA86002E001
:1016E0003020696888470098401C009028680128CD
:1016F00008D0022809D1A96878200870A868401C81
:10170000A86002E07820696888470098401C009033
:10171000A41C3FE05BF8040B019008230DE05BF88C
:10172000040B0190022308E05BF8040B01901023E6
:1017300003E05BF8040B01900A23002201A903A82F
:10174000FFF7F9FD044603A804EB0009380719D593
:10175000444515DAA8EB04042868012808D00228BB
:1017600009D1A96830200870A868401CA86002E070
:101770003020696888470098401C0090641EEBD1B7
:10178000444607E0F80705D42B4600AA4146204608
:10179000FFF71EFE99F8000048B319F801092A4620
:1017A00000A9FFF7B3FDF5E75BF8040B2A4600A993
:1017B000C0B233E65BF8049BB9F1000F3FF430AEE2
:1017C000484600F039F80446F8070CD42B4600AA26
:1017D00041462046FFF7FCFD05E019F8010B2A46BB
:1017E00000A9FFF793FD99F800000028F5D1F8074C
:1017F0007FF516AE2B4600AA41462046FFF7E8FDCE
:101800000EE65BF8040B0099016009E600980DB044
:10181000BDE8F08F0EB400B584B00121009105AA97
:1018200004490191014600A8FFF7EDFD04B05DF801
:1018300010FB0000193A0000002108B97047491C4C
:1018400010F8012B002AFAD10846704700800340A7
:101850000090034000800B4000F00F4040F00F402C
:1018600080F00F40C0F00F4000F10F4000900440A6
:1018700000A0044000B0044000C0044000D0044078
:1018800000000000000000000000000006010E0142
:101890001601FFFFFFFF00004700000003000C00DF
:1018A000110012011317150216030300170018A0E8
:1018B00019001A781B2A1F20200209032100222068
:1018C0002333248A257A2A002B002C002D4F2E96B4
:1018D0002F003A003B603E343FB0404C413B423029
:1018E0004325441D45154610470F480D490B4B092C
:1018F0004C094E084F065005512F52905301548702
:1019000056705732588B59065A9B5B356402678074
:10191000688069A06A8970AE71A6724F735F742780
:1019200080418108821683248424852A864F89B2C7
:101930008AAA8B028E028F7095149D369E04A12771
:10194000A212A32DA408A52EA604A780A880A921D1
:10195000AA21AB21AC0AADF0AEFFB1B0B2B0B680F7
:10196000B780B880B900E77CF000F101F101F10126
:101970000000000000000000000000000000004720
:1019800047008C0000000000000000000000000084
:101990000000000000000000000000000000000047
:1019A0000000000000000000000000000000000037
:1019B0000000000000000000000000000000000027
:1019C0000000000000000000000000000000000017
:101D30000B1F00000009000000A0064000B0064094
:101D400000C0064000D0064000A00E4000B00E408B
:101D500081B000B901200021ADF8021044F21871E1
:101D60000DE0BDF80020521CADF80020BDF80020A9
:101D70008A42F6DBBDF80220521CADF80220BDF805
:101D80000220824238BF0022EED301B0704781B0FA
:101D900000B9012000210BE09DF80010491C8DF8CE
:101DA00000109DF800100F29F6DB9DF80110491C6A
:101DB0008DF801109DF80110814238BF0021EED34B
:101DC00001B0704710B5B44C206820F4006020606A
:101DD000206840F4805020600120FFF7D8FF206881
:101DE00040F4806020600120FFF7D1FF206820F4DC
:101DF000805014E010B500E010B5A74C206820F426
:101E0000805020600120FFF7C2FF206840F480600E
:101E100020600120FFF7BBFF206840F48050206065
:101E20000120FFF7B4FF206820F4806020600220CA
:101E3000BDE81040ABE710B5974C206840F48050E7
:101E400020600120FFF7A3FF206840F4806020603D
:101E50000320FFF79CFF206820F4805020600120C1
:101E6000FFF795FF206820F48060206010BD38B532
:101E7000894C206840F480502060606920F48050D4
:101E80006061206940F4805020610120FFF77FFFEE
:101E9000206840F48060206000252069C0F3003095
:101EA00000B101250120FFF772FF206820F4806057
:101EB0002060606940F480506061206840F4805088
:101EC0002060284632BD70B582B004460826724DA7
:101ED000761E200628682CD540F48050286001200A
:101EE000FFF755FF286840F4806028600220FFF764
:101EF0004EFF286820F4806028600120FFF747FF2C
:101F0000286820F48050286000200BE09DF8010034
:101F1000401C8DF801009DF801000F28F6DB9DF8AC
:101F20000000401C8DF800009DF8000000284BD1F7
:101F3000EFE720F48050286000200BE09DF80000BF
:101F4000401C8DF800009DF800000F28F6DB9DF87E
:101F50000100401C8DF801009DF801000028F0D020
:101F6000286840F48060286000200BE09DF80100A4
:101F7000401C8DF801009DF801000F28F6DB9DF84C
:101F80000000401C8DF800009DF80000022838BFBA
:101F90000020EED3286820F48060286000200BE049
:101FA0009DF80000401C8DF800009DF800000F28EF
:101FB000F6DB9DF80100401C8DF801009DF8010042
:101FC000022838BF0020EED36400002E7FF480AFDB
:101FD00073BD81B0002008212F4A136943F4805358
:101FE0001361491E00238DF801300DE09DF800308B
:101FF0005B1C8DF800309DF800300F2BF6DB9DF850
:1020000001305B1C8DF801309DF80130002BF0D0C1
:10201000136823F48063136000230BE09DF8013004
:102020005B1C8DF801309DF801300F2BF6DB9DF81D
:1020300000305B1C8DF800309DF80030022B38BF5B
:102040000023EED3136843F48063136000230BE096
:102050009DF800305B1C8DF800309DF800300F2B90
:10206000F6DB9DF801305B1C8DF801309DF80130E6
:10207000022B38BF0023EED313694006000EC3F3D2
:1020800000330BB140F00100136823F48063136048
:102090000029A2D101B0704700F10F40F8B5044605
:1020A0000D4616460027FFF78DFE2046FFF70BFF73
:1020B000FFF7DDFE01280BD0B6B25EB1BFB2761ECF
:1020C000785D7F1CFFF7FFFEFFF7D1FE0128F3D1FB
:1020D0000020F2BDFFF78EFE0120F2BDF8B50446E8
:1020E0000D4616460127FFF76DFEDC20FFF7EBFEDD
:1020F0000120FFF74CFEFFF7BAFE012828D0287810
:10210000FFF7E1FE0120FFF742FEFFF7B0FE0128D6
:102110001ED0FFF757FE2046FFF7D5FE0120FFF740
:1021200036FEFFF7A4FE012812D0022E09DB741E32
:10213000FFF74FFFBFB278557F1CFFF75DFE641EAF
:10214000F6D1FFF746FFBFB27855FFF774FEC1E73F
:102150000020F2BD80B5FFE7012301220A210420FF
:10216000FEF7B5FF01231A460B210420FEF7AFFF4F
:10217000BDE8005001231A460C210420FEF7A7BF3A
:102180000000000070B5ADF5027DFFF7E3FF00260B
:10219000124C02223119DC20FFF780FF019018B1A8
:1021A000B61CB6B2D42EF4DB6420FFF7D1FD019843
:1021B00068B9FFF7CFFF002602223119DC20FFF7B4
:1021C0006DFF019080B3B61CB6B2D42EF4DB0026AE
:1021D00002AD305D705500200EE000BF6004FF1FAF
:1021E0009DF80000401C8DF800009DF800000F28AD
:1021F000F6DB9DF80100401C8DF801009DF8010000
:102200000A2838BF0020EED302A831180122DD20B1
:10221000FFF764FFB61C8DF80400D42ED9DB00262E
:10222000305D715D884201D0002004E0761CB6B2BA
:10223000D42EF5DB01200DF5027D70BD2DE9F84FA0
:10224000A14C72B65020A0824FF4E13132202073AD
:1022500000206073A07300F05BF9012301221021BC
:102260000020FEF734FF01231A4611210020FEF75B
:102270002EFF96480168002000F0FEF900F01CFADD
:10228000FEF73FF900F040FB00F055FB05E0FFF7DB
:1022900079FF60746420FFF77AFD607C0128F6D135
:1022A00062B68B4D8B4EDFF83092DFF830828C4F68
:1022B000DFF830A2DFF830B29BF80000012804BF3D
:1022C00000208BF800009AF80000012815D10020AA
:1022D0008AF80000F86839684908490039603968A7
:1022E00041F00101396098F80010C1EB014111FA89
:1022F00080F0E082002088F8000099F800000128B2
:1023000019D1002089F80000217AA08B4018617A49
:102310004018A17A401800B2032190FBF1F0E0735D
:102320000020A083217CE07B00F012FB6F4949680C
:102330006083608B88616E48007801281DD16C49EC
:102340000020087030683168C0F3004080F0010060
:1023500060F3104131600020FF2100F065F9FF219A
:10236000002000F061F9E08A010A002000F05CF929
:10237000E18AC9B2002000F057F95E4800780128D0
:1023800017D15C49637B227B00200870A07BB4F9E5
:1023900014100090B4F9160000F0F7FA2083002121
:1023A0000022084600F007FC228B0121002000F0EB
:1023B00002FC51480078012833D14F4900200870B1
:1023C00028880328A4BF0020288004F12800606228
:1023D0008C218C20A074288801FB004000F5077038
:1023E00020620020E083606A216A00780870606AD9
:1023F000A17C401C6062206A401C2062E08B401C73
:10240000E08380B28842EED34FF08C0C288801190B
:102410000CFB004001F108030A1D00F5077000F0F5
:1024200067F93648007801287FF446AF3349002029
:102430000870FEF74EF800210FF2C4020520FEF7E7
:1024400037FA1EA202210A20FEF732FA227902216F
:102450002A20FEF70FFA627902214620FEF70AFAD7
:10246000A27902216220FEF705FA15A204210A20B2
:10247000FEF71EFA227804212A20FEF7FBF9627883
:1024800004214620FEF7F6F9A27804216220FEF727
:10249000F1F90CA206210A20FEF70AFA227A062197
:1024A0002A20FEF7E7F9627A06214620FEF7E2F9D4
:1024B000A27A06216220FEF7DDF9FDE64C3A000023
:1024C000523A0000433A00003405FF1F6009FF1F25
:1024D0004804FF1F00F00F406609FF1F6D09FF1F32
:1024E000000004406509FF1F6409FF1F1004FF1F5F
:1024F0006709FF1F6809FF1F6C09FF1F6909FF1F9C
:10250000C0B6D6E6B5E7D7D32F4C414E445A4F005C
:10251000F0B4052841D8DFE800F0030D17212C3670
:102520004D4A4FF44073536013604C4AD36843F4F0
:1025300080631CE04A4A4FF4407313605360474A7B
:10254000D36843F4006312E0464A4FF4407353608B
:102550001360424AD36843F4805308E0404A4FF482
:102560004073536393633D4AD36843F40053D3608D
:1025700013E03D4A4FF4407353641364374A1368C1
:1025800043F4806308E0384A4FF4407353601360AB
:10259000324A136843F400631360344B024653F825
:1025A0002240E57805F0F305E570002453F8225049
:1025B000AC70441EA441012A18BF00204FF47A7564
:1025C00050EAD47014BF2A482A480068684353F878
:1025D00022502E780901B0FBF1F427043F0E06F0DB
:1025E000E00607F01F073E432E70400153F82250CB
:1025F0006C70B0FBF1F053F82240A57A05F0E005CD
:1026000000F01F002843A07253F82200C17841F067
:102610000C01C170F0BC7047144951F820000179D9
:102620008906FCD5C0797047104A52F8200002791B
:102630001206FCD5C171704730B40C4A06E052F85E
:10264000204025792D06FCD5E371491C0B78002B21
:10265000F5D130BC70470000389004402880044019
:102660000CB0044008C0044020D00440FC08FF1F08
:102670005809FF1F6009FF1F0C4A136843F4000349
:1026800013600B4A13689B089B001360FFE702016D
:10269000084BD1504430D118CA6842F00102CA60D8
:1026A0008A6842F003028A60FEF741BD3C80044024
:1026B000007003400071034000B583B00A23032279
:1026C0000E210320FEF7D6FC092302220D21032050
:1026D000FEF7D0FC812002906C238C20019000201A
:1026E0000090864A8649042000F080FA03B000BDBD
:1026F0002DE9FE4FA6B0804600A8982100F05EFBB1
:10270000002300251946AC461C469E4699460A46BB
:102710008A4600A818F8016B652EACBFA0260026DB
:1027200006700AF1010718F8016B652EA6BFA026F6
:102730004670417007F1010A801CBAF18C0FE9DB89
:10274000DFF8C08198F800A0504600AE04E0401EBB
:1027500000250121052300B2062817DB0746011FCB
:1027600001E07B1E1FB2B9420BDA012F09DB835D4A
:1027700017F806B0A3EB0B03642BACBF6D1C002550
:10278000EFE7E9B20329E2DB83B20021504604E01F
:10279000401CCC460122872400B2872817DA07465E
:1027A000021D01E07C1C27B29742B8BF872F08DAD0
:1027B000845DBD5D641B642CACBF0CF1010CCC4688
:1027C000F0E75FFA8CF2032AE2DB84B20022A9BBB5
:1027D00018B2002684461D1F0BE000AF6744761C2C
:1027E0007F785EFA87FEACF101071FFA8EFE0FFAC2
:1027F00087FC654502DABCF1010FEEDAF6B29EFB0A
:10280000F6FE1FFA8EFE00251F1D01E0401C00B2DF
:10281000B842B8BF87280BDA00AE861916F8016CEB
:10282000A6EB0E0636B2642EACBF6D1C0025EDE79C
:10283000E8B2032802DB1846012300E00520279DAB
:102840002870002A3AD120B2CC468646251D0DE0DC
:1028500000AE76440CF1010C16F8016C59FA86F9B9
:102860000EF101061FFA89F90FFA86FEAE45B8BFD0
:10287000BEF1870FECDB5FFA8CF599FBF5F91FFAD7
:1028800089F74FF0000CA4F1040E00AE01E0401EE9
:1028900000B286450BDA012809DB855DED1B2DB200
:1028A000642DACBF0CF1010C4FF0000CEFE75FFAA8
:1028B0008CF0032802DB2046012400E08720269DBF
:1028C000287081F00100104301420AD1E0182899D4
:1028D00000EBD070401008702898007888F800004D
:1028E00004E011421CBF289880F800A027980370CC
:1028F0002698047029B0BDE8F08F00005C05FF1F2A
:1029000010F10F405C04FF1F10B5002302224FF6A8
:10291000FF71022000F066FA00233E4C1946224661
:10292000084600F083F82246BDE81040002301214C
:10293000184600F07BB880B51E23B4220121012087
:1029400000F074F83449496841F2B440886101BD2F
:10295000401A411E132905D3A0F115010E2938BFD5
:102960002D2100D3282111FB00F000B2B0F5966FA5
:10297000C8BF4FF4966003DC10F5966FB8BF2748C8
:1029800000F5A050B43000B270472DE9F041244E5C
:10299000376890461D46081A00F090FA04463460E5
:1029A000284600F095FA214600F0A2FA716800F07E
:1029B0000BFB05467560404600F08AFA214600F0A0
:1029C00097FA184900F042FB294600F0FDFA064646
:1029D0002046394600F0B8FB0546069800F078FA24
:1029E000294600F085FA104900F030FB314600F02E
:1029F000EBFA00F01DFC00B210F5AF7F07DBB0F57D
:102A0000AF7FC8BF4FF4AF7002DC012800DA0020AE
:102A1000BDE8F081803801001004FF1F50FBFFFF6C
:102A20005009FF1F000020410000C842F0B4DFF849
:102A3000A44124684FF47A756C4365082C0CB4FBF0
:102A4000F2F6B6B2002400E0641C26FA04F7012F67
:102A5000FADAB2F57A7F38BF641CE540B5FBF2F2D2
:102A600092B2551C6B434FF47A75B3FBF5F320B16A
:102A7000022800F086806AD315E0DFF85C51EE682A
:102A800046F08076EE60072924D8DFE801F00425BF
:102A90002E3740485058AE6846F40066AE604FF49A
:102AA00080654E4E35604E4D55F8200000EBC1015B
:102AB00004F00704CD6825F00405CD6044F0280437
:102AC0002825CD6004609BB20024C4648260C46485
:102AD0000B614460F0BC7047AE6846F40066AE60BF
:102AE0004FF480653D4E7560DDE7AE6846F40066E4
:102AF000AE604FF48065394EB560D4E7AE6846F4F9
:102B00000066AE604FF48065344EF560CBE7AE688A
:102B100046F48056AE604FF48065324EC2E7AE6830
:102B200046F48056AE604FF480652E4EDBE7AE680B
:102B300046F48056AE604FF480652A4EDCE7AE68FE
:102B400046F48056AE604FF48065264EDDE7224D98
:102B5000EE6846F00076EE6019B1012909D0F0BCAC
:102B60007047AE6846F40076AE604FF440751E4E76
:102B700098E7AE6846F40076AE604FF440751A4EA2
:102B8000B1E7154D2E6846F080762E6019B1012907
:102B900009D0F0BC7047AE6846F40076AE604FF4E2
:102BA0004075114EA8E7AE6846F40076AE604FF46B
:102BB00040750D4EA9E70A4B53F8200083685B1C53
:102BC0005A434FF47A7300EBC100B2FBF3F2026197
:102BD000704700006009FF1F3080044004B00440CB
:102BE0001004FF1F10C00440209004402DE9F84F4E
:102BF00006460C460A98114610B94FF001080AE043
:102C0000012808BF4FF0020805D002280CBF4FF082
:102C100004084FF01008544ADFF850E1976847F075
:102C200002079760576847F00207576037467E01F2
:102C300046F80E40B64400F00706CEF8101000210A
:102C4000AEF80410AEF81480010201F4E0613143E3
:102C5000AEF806100B9D464E6904490CAEF81610EE
:102C6000E905C90DAEF81E10316821F08001316010
:102C7000CEF808800021CEF80C100C995FEA81692B
:102C800054BF6D420025CEF818504FF0010A0A25B6
:102C9000AEF81C504FF0BA0E364D07F805E05D094E
:102CA0004FF4007E17680EFA05F52F4317605D0993
:102CB000314F57F82590D9F814B003F01F070AFADE
:102CC00007F72BEA0707C9F8147001F0030B2B4F25
:102CD00057F82550890941EA0B4103F01F0A41F4D6
:102CE000807145F82A10002B14BF6FF002016FF0BD
:102CF0000101D9F814301940C9F81410A509116858
:102D000005F007030EFA03F31943116018B1022806
:102D100006D002D307E020710AE00020A08007E07F
:102D20000020606004E077210FF2540000F0A2FA66
:102D3000A4F1100000F03F0000EBC801C9B28842C6
:102D40000CDA05F0070257F8222002EB8002081A7D
:102D50004FF4817142F8041B401EFBD1706A40F0B1
:102D600010007062BDE8F18F388004400090004090
:102D700000800040001002401C04FF1F3004FF1FB1
:102D8000483A5CD6C7C4DCB3B5BEBAC8FC5C362EC4
:102D900035206C616E647A6F5F6B36305F43616DB6
:102DA0006572615C7372635C647269766572735C90
:102DB000646D615C646D612E63000000002200F0B0
:102DC00089BA50F8041B61B150F8042BD30744BFF3
:102DD000A9F101039A18002342F8043B091FFAD114
:102DE000EFE77047F8B5174604460D461E46102F0C
:102DF000A8BF0F27012808D11C48016841F40071C1
:102E000001604FF4C0601A4909E0022809D117484F
:102E1000016841F4006101604FF480601549086069
:102E200004E00FF258002C2100F024FA0F4801684A
:102E300041F00101016000210F4801608560F90047
:102E400001F0780141F005014160012E0CBF08211D
:102E50000021220102F03002114341F043010160E0
:102E60005520BDE8F240FEF762B90000388004400A
:102E70004C90044014B0044000000440483A5CD632
:102E8000C7C4DCB3B5BEBAC8FC5C362E35206C6155
:102E90006E647A6F5F6B36305F43616D6572615C43
:102EA0007372635C647269766572735C6C70746D66
:102EB000725C6C70746D722E63000000002840F12B
:102EC0000980F446404200F005F850F000406047A9
:102ED000002800BF0AD0B0FA80F18840D1F19D01EE
:102EE000C905020672F1004241EB10207047000054
:102EF000FF2212EAD05C1DBF12EAD15394459342DF
:102F00002BE09C44D30780EA01021A4043EA0020E8
:102F100043EA0121A1FB0030410038BF40007CF1B1
:102F20007F010BDBFE294ADA5B0842EAC15153EA12
:102F3000006373F1004C51EB10207047D1F1080C85
:102F4000DCF120012FDB5B0810FA01F10B4373F178
:102F5000004120FA0CF05041704794451CBF02EA32
:102F6000D153934280EA010202F000421DD040009A
:102F700019D0490017D05BB9634514D00902B1FAE2
:102F800081F39940BCEB030CC00140F00040C1E765
:102F90000002B0FA80FC10FA0CF0B3EB0C0CC90183
:102FA00041F00041B6E71000704740000AD04900E8
:102FB00008D010F1807F94BF11F1807F02E042F0D1
:102FC000FF407047D043704790EA010F44BF81F043
:102FD000004100F0C1B800BF421A3CBF801A8918F6
:102FE0004FF0004CC0F3C752FF2A24D0C1F3C7539F
:102FF00013B3D21AD2F1190327DD4CEA01214CFA9E
:1030000003F321EA0303D140C20D4CEA002040182B
:1030100034BF20EA0C004CEA5000D20553EA0063AA
:1030200073EB0C0C52EB1020420012F1807F38BF82
:103030007047C00DC0057047490212BF9A4200EBAD
:103040005120F8E7D2F11703D9D5704710B5FF2307
:1030500013EAD0541DBF13EAD1529C429A4239E080
:10306000A41ADA0780EA0103134042EA012142EA86
:103070000020421A3CBF641E01EB4202090AB2FB67
:10308000F1FE01FB1E221202B2FBF1F001FB102245
:103090006EF30F201202B2FBF1FE4EEA00207F34E5
:1030A00006DDFE2C24DA53EA500050EBC45010BD6C
:1030B000D4F1020401FB1E2240F08071192C1DDCAA
:1030C00021FA04F0C4F12004A140114371F100423F
:1030D000584110BD9C421ABF03EAD1529A420FE0F8
:1030E00080EA010E0EF00043400004D0490016D1E2
:1030F00043F0FF4010BD490008BFD343180010BD86
:103100009C4205D1D21AF7D001F00041484010BDD1
:103110004A0212BF0846484000F0004010BD4AB9BC
:103120000902B1FA81F2914044B1A418C00140F003
:1031300000409EE7C90141F0004152420002B0FA4E
:1031400080F4A040141B94E790EA010F44BF81F083
:103150000041FFF741BF00BF431A4FF000423EBF9E
:103160005340C01AC91800BFD3095FEAD05C13EB03
:10317000400F34BFB3EB410F40E07CEBD1530CD395
:1031800042EA012122D8D1EB402009D3400A28BFCE
:103190005FEA500140EBCC507047401A15D0400216
:1031A000B0FA80F2521C9040400A4FEA3C23B3EB45
:1031B000026384BF00EB730007E040F400001A16BE
:1031C000DB07C2F10102D04018437047182BFCDC2A
:1031D00031FA03F202FA03F3591A38BF42F001023E
:1031E000D2EB40203CBF4000ACF1010C5FEACC5C6C
:1031F000C20572F100414CEB5020704713EB400FB9
:103200000FD24B0009D0ACEBD153022B03DB4902A8
:10321000172BDDDD70479143401A4300D5D10020C4
:10322000704713EB410FD0D36FF0000070470000E0
:103230004100090E7F3915D4D1F11F0114D440008B
:1032400007D2C00140F00040C84048BF6FF00040C6
:103250007047C00140F00040C8404CBF4FF00040F4
:10326000404270470020704700424FF0004058BF76
:10327000C043704770B504460D460FF210062A464B
:1032800021463046FEF7C6FAF9E70000B6CFD1D4A2
:10329000B7A2C9FAD4DA2573CEC4BCFEB5C4B5DA78
:1032A0002564D0D0A3A10AB6CFD1D4CCF5BCFEB250
:1032B000BBB3C9C1A2A3ACC7EBBCECB2E2B4EDCEC8
:1032C000F3D4ADD2F2A1A309A1AAA1AA20627920C8
:1032D0000A0A000000B500BF130096469446103954
:1032E00028BFA0E80C50FAD85FEA417C28BF0CC088
:1032F00048BF40F8042BC90728BF20F8022B48BF5D
:1033000000F8012B00BD000010B572B60120FFF7D8
:1033100083F904460FF20C210120FFF78DF92146B5
:103320000120FFF781F962B610BD72489BE0724838
:10333000016841F00101016005227048C188491C03
:10334000C18089B291FBF2F202EB82028A1A04BFB9
:10335000012202700A2291FBF2F202EB8203B1EB2E
:10336000430204BF01224270142291FBF2F202EBED
:103370008203B1EB830204BF01228270502291FBD1
:10338000F2F202EB8203B1EB031204BF0122C2701E
:10339000642291FBF2F2642303FB12120AB90122A8
:1033A0000271C82291FBF2F2C82303FB121119B972
:1033B000012141710021C18070477047704710B5ED
:1033C0000FF274142046FEF725FAFBE738B54C4C93
:1033D0002068800428D520684A4D40F400502060C1
:1033E000287880B1002028704748816941F0100199
:1033F0008161016841F0100101600420FDF797FE32
:10340000A888401CA8806888A968401C688080B291
:103410000A88824208D1012028704FF6FF7208887E
:1034200090421CBF881CA8602068400409D5206811
:10343000344D40F48040206005F10C00A86000206D
:10344000688031BD31480168C90703D5016841F082
:10345000010101600168490503D5016841F48061FB
:10346000016070472A48016841F00101016070471E
:10347000704738B5274C656C00206064E80707D5B5
:10348000206820F0400020600FF2CC00FEF7C2F967
:10349000A80703D5A06820F04000A06031BD10B59A
:1034A000194CA06940F01000A0610420FDF76EFEE9
:1034B0002068194920F0100020600120087010BD1C
:1034C00080B50FF2A400FEF7A5F90F48816941F01D
:1034D00001018161016841F00101016001BD0F48F6
:1034E000016841F0800101600D480178491C0170BC
:1034F000704700001C7103400C7103406409FF1FFA
:10350000A0C004404404FF1F0C800040A0A0044061
:103510002C7103400C9003406C09FF1F0000044015
:103520006D09FF1F0AC4E3B7A2CBCDB5C4CAFDBE67
:10353000DDCEAAA3BA0000000A2A2A2A2AD3B2BCE6
:10354000FEC9CFB7C3B4EDCEF32121212A2A2A2AFE
:103550002A0D0A0A000000000A46544D31B7A2CBDA
:10356000CDD6D0B6CF0A0000444D415F4348305F0E
:1035700048616E646C65720A00000000DFF800F0BC
:103580001509FF1F70B5002800F08C8030281ED070
:10359000322826D0602827D0642849D06E2826D02B
:1035A000782827D07D2828D0822829D08C282AD096
:1035B00096282BD0A0282CD0AA282CD0B4282DD0E7
:1035C000C8282ED0E1282ED0FA282ED02FE018219E
:1035D0000022574C217062700021A170332829DA33
:1035E00034E018210122F4E718211822F1E718210C
:1035F0001F22EEE713211822EBE713211A22E8E736
:1036000013211C22E5E70E211222E2E70E211522EA
:10361000DFE70E21EFE70E211B22DAE70E211E2243
:10362000D7E70C21EDE70B21F9E70A21E0E7642059
:103630001821E3E76528B8BF012107DB9728B8BF49
:10364000022103DBC928B4BF03210F21E1701A282E
:10365000E1782171B8BF002023DB3328B8BF0120F7
:103660001FDB4C28B8BF02201BDB6528B8BF032036
:1036700017DB7E28B8BF042013DB9728B8BF0520CE
:103680000FDBB028B8BF06200BDBC928B8BF072066
:1036900007DBE228B8BF082003DBFB28B4BF092002
:1036A0000F2060713221224C224E6078183080B297
:1036B00048432178491C89B290FBF1F500207070D5
:1036C0001D48016841F0805101601C48017841F0BB
:1036D0008001017098203070B079C006FCD4B079B8
:1036E000C0F381000228FAD1207800F01F00307169
:1036F0000020707163792279E178A078FFF73EFFAE
:10370000607800F01F0040F040007071B0798006D2
:10371000FCD5B0794006FCD5307800F03F00307021
:10372000B079C0F381000328FAD1E8B270BD00BFC0
:10373000F408FF1F004006403480044008C00740E2
:1037400062B38B0708D0521E11F8013B00F8013B11
:1037500000F024808B07F6D1830740F0208000BF63
:10376000103A07D330B4B1E83810103AA0E8381056
:10377000F9D230BC530724BFB1E80810A0E8081004
:1037800044BF51F8043B40F8043BD20724BF31F852
:10379000022B20F8022B44BF0B7803707047083AC5
:1037A00007D3B1E80810083A40F8043B40F804CBCE
:1037B000F7D25307E4E7000010B51149114C8C42D1
:1037C00004D04FF482522046FFF7CAFF2046FDF78F
:1037D000ABFC0D490D48421A1CBF0D48FFF7B0FF66
:1037E0000C480D49091A18BF00F01EF80B490C4887
:1037F000421A04D0BDE810400A48FFF7A1BF10BD2F
:10380000000000000000FF1F4C180000501D0000C9
:103810001004FF1F5009FF1F6E09FF1F143900001D
:10382000503900001409FF1F002200F001B8000009
:10383000401810F0030308D0C91A1FD3DB0748BF94
:1038400000F8012D28BF20F8022D130030B41446D3
:103850001546103928BF20E93C00FAD8490728BF8F
:1038600020E90C0048BF40F8042D890028BF20F84B
:10387000022D48BF00F8012D30BC7047C91818BF91
:1038800000F8012DCB0728BF00F8012D704700007C
:1038900038B50E4D0E4C286840F4785028606420EE
:1038A000FFF770FE60604FF47A7111FB00F020604A
:1038B000E968C1F30361491CB0FBF1F0A0604FF46B
:1038C0009641BDE834400120FEF722BE3880044016
:1038D0005809FF1F024801780FF20800FDF79ABF50
:1038E00004ED00E00A2A2A2A2A64656661756C7470
:1038F0005F69737220656E7465726564206F6E20F7
:10390000766563746F722025642A2A2A2A2A0D0A92
:103910000A00000070B4090601F0706141EA00700D
:10392000094C25682668110501F470010843190443
:1039300001F47021084346F47F06044926600860BC
:10394000256070BC704700BF00F001404480044017
:1039500080B500F007F8084801884FF6FE72114064
:10396000018001BD054872B64CF2205101804DF630
:103970002811018062B67047002005400E200540E6
:1039800010B5074979441831064C7C44163404E0DC
:103990000A68081D511888470146A142F8D110BD98
:1039A00008000000140000001BF4FFFF20000000CE
:1039B0005009FF1F000000000120C046002801D070
:1039C000FFF7DEFF0020C046C046FEF737FC00F0E0
:1039D00000F800F001B800000746384600F002F891
:1039E000FBE7000080B5C046C046024A110018201F
:1039F000ABBEFBE72600020080B5FFF7A9FFFFF78B
:103A0000DBFEFFF745FFFEF719FCFEE7C046C046A8
:103A1000C046C046FFF7D0FF01460120FEF704BEB6
:0400000500003A0DB0
:00000001FF
