S00E00005369726975732E7372656397
S3151FFF0000F8FF00201104FF1F270DFF1F270DFF1FDE
S3151FFF0010270DFF1F270DFF1F270DFF1F270DFF1F74
S3151FFF0020270DFF1F270DFF1F270DFF1F270DFF1F64
S3151FFF0030270DFF1F270DFF1F270DFF1F270DFF1F54
S3151FFF0040670DFF1F270DFF1F270DFF1F270DFF1F04
S3151FFF0050270DFF1F270DFF1F270DFF1F270DFF1F34
S3151FFF0060270DFF1F270DFF1F270DFF1F270DFF1F24
S3151FFF0070270DFF1F270DFF1F270DFF1F270DFF1F14
S3151FFF0080270DFF1F270DFF1F270DFF1F270DFF1F04
S3151FFF0090270DFF1F270DFF1F270DFF1F270DFF1FF4
S3151FFF00A0270DFF1F270DFF1F270DFF1F270DFF1FE4
S3151FFF00B0270DFF1F270DFF1F270DFF1F270DFF1FD4
S3151FFF00C0270DFF1F270DFF1F270DFF1F270DFF1FC4
S3151FFF00D0270DFF1F270DFF1F270DFF1F270DFF1FB4
S3151FFF00E0270DFF1F270DFF1F270DFF1F270DFF1FA4
S3151FFF00F0270DFF1F290DFF1F270DFF1F270DFF1F92
S3151FFF0100270DFF1F270DFF1F270DFF1F270DFF1F83
S3151FFF0110270DFF1F270DFF1F270DFF1F270DFF1F73
S3151FFF0120270DFF1F270DFF1F270DFF1F270DFF1F63
S3151FFF0130270DFF1F270DFF1F270DFF1F270DFF1F53
S3151FFF0140270DFF1F270DFF1F270DFF1F270DFF1F43
S3151FFF0150470DFF1F270DFF1F270DFF1F270DFF1F13
S3151FFF0160270DFF1F270DFF1F270DFF1F270DFF1F23
S3151FFF0170270DFF1F270DFF1F270DFF1F270DFF1F13
S3151FFF0180270DFF1F270DFF1F270DFF1F270DFF1F03
S3151FFF0190270DFF1F270DFF1F270DFF1FA70DFF1F73
S3151FFF01A0BD0DFF1FD30DFF1FEB0DFF1F030EFF1F00
S3151FFF01B0270DFF1F270DFF1F270DFF1F270DFF1FD3
S3151FFF01C0270DFF1F270DFF1F270DFF1F270DFF1FC3
S3151FFF01D0270DFF1F270DFF1F270DFF1F270DFF1FB3
S3151FFF01E0270DFF1F270DFF1F270DFF1F270DFF1FA3
S3151FFF0400FFFFFFFFFFFFFFFFFFFFFFFFFEFFFFFFD9
S3151FFF04104FF000004FF000014FF000024FF00003B6
S3151FFF04204FF000044FF000054FF000064FF0000796
S3151FFF04304FF000084FF000094FF0000A4FF0000B76
S3151FFF04404FF0000C62B600F037FFFEE73248006838
S3151FFF045010F00070002801D0012000E00020704737
S3151FFF04602F48006830F080602D49086070472C4880
S3151FFF0470006850F080602A49086070472748006867
S3151FFF048030F000702549086070472448006850F017
S3151FFF049000702249086070472148006830F00070DD
S3151FFF04A01F49086070471E48006850F000701C49BE
S3151FFF04B00860704701B404E0BDF80000401EADF8A8
S3151FFF04C00000BDF800000028F6D101B0704715489F
S3151FFF04D0006850F49170134908601348006850F480
S3151FFF04E09170114908600D48006850F080600B49F4
S3151FFF04F008600B48006850F080600949086007488C
S3151FFF0500006850F00070054908600548006850F004
S3151FFF0510007003490860704710F00F4014F00F403A
S3151FFF052000F00F40689004406490044080B5FFF7C9
S3151FFF0530BAFFFFF79CFF4FF41670FFF7BBFFFFF7DE
S3151FFF05409DFFFFF783FFC0B2002803D1FFF79DFF73
S3151FFF0550002012E0FFF799FFFFF79EFF4FF416707B
S3151FFF0560FFF7A8FFFFF77CFFFFF770FF002803D0F9
S3151FFF0570FFF78BFF002000E0012002BD80B5FFF7CC
S3151FFF05806FFFFFF789FF4FF41670FFF793FFFFF714
S3151FFF05906EFF4FF41670FFF78DFFFFF784FF4FF4C3
S3151FFF05A01670FFF787FF01BD80B5FFF759FFFFF7EE
S3151FFF05B065FF4FF41670FFF77DFFFFF758FF4FF4E8
S3151FFF05C01670FFF777FFFFF741FF002805D0FFF7EC
S3151FFF05D05CFFFFF745FF002004E0FFF756FFFFF71D
S3151FFF05E03FFF012002BD38B5040008250EE0FFF7C7
S3151FFF05F053FF64004FF41670FFF75CFFFFF737FFDB
S3151FFF06004FF41670FFF756FFFFF72AFF2800451E08
S3151FFF0610C0B2002804D02006E9D5FFF744FFE8E75C
S3151FFF062031BD38B504000D00FFF780FF002801D14B
S3151FFF0630002019E04220FFF7D6FFFFF7B5FF00287E
S3151FFF064003D1FFF79BFF00200EE02000C0B2FFF78C
S3151FFF0650CAFFFFF7A9FF2800C0B2FFF7C4FFFFF7C6
S3151FFF0660A3FFFFF78BFF012032BD70B504000D00FE
S3151FFF067000262900C9B22000C0B2FFF7D2FF00280B
S3151FFF068005D1761CF6B2142EF3D1002000E001200F
S3151FFF069070BD50F8041B61B150F8042BD30744BF3C
S3151FFF06A0A9F101039A18002342F8043B091FFAD147
S3151FFF06B0EFE7704730B45C4B984208D15B4B4FF462
S3151FFF06C040741C605A4B4FF440741C603AE0594B00
S3151FFF06D0984208D1584B4FF440741C60574B4FF448
S3151FFF06E040741C602EE0564B984208D1554B4FF471
S3151FFF06F040741C60544B4FF440741C6022E0534BF4
S3151FFF0700984208D1524B4FF440741C60514B4FF423
S3151FFF071040741C6016E0504B984208D14F4B4FF464
S3151FFF072040741C604E4B4FF440741C600AE04D4BE7
S3151FFF0730984207D14C4B4FF440741C604B4B4FF400
S3151FFF074040741C60384B984206D1494B1B6853F4C3
S3151FFF07508063474C23602DE0364B984206D1444BAE
S3151FFF07601B6853F40063424C236023E0344B9842CB
S3151FFF077006D13F4B1B6853F480533D4C236019E052
S3151FFF0780324B984206D13A4B1B6853F40053384CF1
S3151FFF079023600FE0304B984206D1364B1B6853F44C
S3151FFF07A08063344C236005E0324B1B6853F40063B0
S3151FFF07B0304C2360C37813F0F303C3700023837099
S3151FFF07C0194B984208D000231A4CA04204D053F06D
S3151FFF07D00003DBB2002B00D049184FF47A7303FBDB
S3151FFF07E001F31401B3FBF4F3047814F0E0049BB296
S3151FFF07F01D0A15F01F052C43047043704FF4FA446E
S3151FFF080061431201B1FBF2F19BB2B1EB4311827A45
S3151FFF081012F0E00411F01F0121438172C17851F0DC
S3151FFF08200C01C17030BC704700A0064044A00440B5
S3151FFF083040A0044000B0064010B004400CB0044076
S3151FFF084000C006400CC0044008C0044000D006404C
S3151FFF085044B0044040B0044000A00E4060D00440A6
S3151FFF086064D0044000B00E4020D0044024D0044082
S3151FFF08703480044028800440002200E0521C4FF6BB
S3151FFF0880BB339A4206D203799B06F7D5C079087008
S3151FFF0890012006E04FF6BB30824201D3002000E065
S3151FFF08A00020704702791206FCD5C1717047F8B553
S3151FFF08B004000D001600002704E0795D2000FFF7F6
S3151FFF08C0F1FF7F1CB6B2B742F7DBF1BD80B54E48CD
S3151FFF08D0006850F478504C49086000F030F84B48D8
S3151FFF08E096210160494800684FF47A714843484989
S3151FFF08F008604748006847490968C1F30361491CF7
S3151FFF0900B0FBF1F04449086000F003F800F00CF863
S3151FFF091001BD4248006850F4805040490860404876
S3151FFF09204FF4E061016070473E48006850F00100D8
S3151FFF09303C4908603C484FF4A0610160704732484C
S3151FFF0940006850F47850304908603848002101701C
S3151FFF09503748006850F080503549086035480078A1
S3151FFF096050F080003349087033489821017033488F
S3151FFF09700078C006FBD431480078C0F38100C0B2AF
S3151FFF09800228F8D12E48112101702E48002101702F
S3151FFF09902D4800682C49096851F47F012A4A1160C6
S3151FFF09A01C492A4A0A602849086026485E210170A9
S3151FFF09B0224800788006FBD5204800784006FBD5E5
S3151FFF09C01D48007810F03F001B4908701B48007830
S3151FFF09D0C0F38100C0B20328F8D11048006850F455
S3151FFF09E080500E4908600E484FF4E06101600D48C4
S3151FFF09F0006850F001000B4908600B484FF4A061D7
S3151FFF0A000160704700000000388004401C85FF1FEF
S3151FFF0A101885FF1F448004402085FF1F0480044064
S3151FFF0A2018900440408004400CB00440014006402B
S3151FFF0A303480044008C00740004006400640064079
S3151FFF0A40044006400540064000F001400000170124
S3151FFF0A5070B4039CC0B2102801D30020A0E0C9B216
S3151FFF0A60352901D300209BE04E4D2D6855F0020519
S3151FFF0A704C4E35604C4D2D6855F002054A4E35607C
S3151FFF0A80C0B24A4D11F03F0151F08001415548490F
S3151FFF0A9000250D60C0B2410101F1804111F51041E2
S3151FFF0AA055046D0CCD82C0B2410101F1804111F594
S3151FFF0AB010415204520CCA83C0B2410101F1804159
S3151FFF0AC011F5104101228A60C0B24101394A8B508C
S3151FFF0AD0C0B2410101F1804111F5104100228A8008
S3151FFF0AE0C0B2410101F1804111F510410022CA60D8
S3151FFF0AF0C0B2410101F1804111F510410C61C0B235
S3151FFF0B00410101F1804111F5104101228A82C0B2D4
S3151FFF0B10410101F1804111F5104100228A61C0B2E6
S3151FFF0B20410101F1804111F510410022CA80C0B277
S3151FFF0B30410101F1804111F5104100228A831E49AF
S3151FFF0B4009680122824011431B4A1160C0B241014D
S3151FFF0B5001F1804111F51041898B51F00201C0B29D
S3151FFF0B60420102F1804212F510429183C0B2410148
S3151FFF0B7001F1804111F51041898B51F00801C0B277
S3151FFF0B80420102F1804212F5104291830B49096817
S3151FFF0B90012212FA00F031EA00000849086001201D
S3151FFF0BA070BC70473C8004404080044000100240E8
S3151FFF0BB00080004000900040248000400C800040D1
S3151FFF0BC081B047F230514843009003E000BF00BF9A
S3151FFF0BD000BF00BF0098411E00910028F6D101B04B
S3151FFF0BE0704782B000A83F490CC90CC008390838A6
S3151FFF0BF03D49002018E0C0B200AA825CC0B200AB1C
S3151FFF0C00C35C51F8233053F4817341F82230C0B2CD
S3151FFF0C1000AA825CC0B200ABC35C51F823305B08ED
S3151FFF0C205B0041F82230401CC0B20828E3D32F488F
S3151FFF0C30006840F4202050F480702C4908602C482F
S3151FFF0C40006840F4102050F4807029490860294835
S3151FFF0C50006840F4803050F480702649086002B067
S3151FFF0C60704780B5FFF733FC80211220FFF7FDFC8D
S3151FFF0C70002806D11F2220492048FFF718FE002013
S3151FFF0C802FE03220FFF79CFF01211120FFF7EDFC1C
S3151FFF0C90002806D126221A491848FFF708FE00200A
S3151FFF0CA01FE024211420FFF7E0FC002806D127228E
S3151FFF0CB014491248FFF7FBFD002012E020212820D0
S3151FFF0CC0FFF7D3FC002806D127220F490B48FFF752
S3151FFF0CD0EEFD002005E02A220C490848FFF7E7FD35
S3151FFF0CE0012002BDB015FF1F00A0044004C0044031
S3151FFF0CF020B0044024A00440B414FF1F00A00640E8
S3151FFF0D002C14FF1F5414FF1F7C14FF1FD413FF1F28
S3151FFF0D1080B5FFF7A6FF002801D1002002E0FFF7ED
S3151FFF0D2060FF012002BD704780B572B600A93A4821
S3151FFF0D30FFF7A2FD002804D09DF800103648FFF7E5
S3151FFF0D40B1FD62B601BD80B534480068C00705D541
S3151FFF0D503248006850F00100304908600A213048C8
S3151FFF0D6000F0C2F801BD80B500202E490968012297
S3151FFF0D7012FA00F008432B4908602B480088401CD5
S3151FFF0D80294908802848008832280BD32748012184
S3151FFF0D9001705A2000F0FBF8592000F0F8F80020E8
S3151FFF0DA000F0F5F801BD80B521485FF0FF31016006
S3151FFF0DB0162220491848FFF77AFD01BD80B51E4848
S3151FFF0DC05FF0FF31016016221C491348FFF76FFDC5
S3151FFF0DD001BD80B51A48006819495FF0FF320A60E6
S3151FFF0DE0C00501D500F035F901BD80B5154800686E
S3151FFF0DF014495FF0FF320A60800701D500F008F93A
S3151FFF0E0001BD80B510485FF0FF31016016220F4903
S3151FFF0E100148FFF74CFD01BD00A006400C710340C2
S3151FFF0E2000F00F40248000402485FF1FC015FF1FC1
S3151FFF0E30A0900440EC14FF1FA0A004400415FF1F41
S3151FFF0E40A0B00440A0C00440A0D004401C15FF1F43
S3151FFF0E5070B405001E4EAD1B08D0403D08D0403D67
S3151FFF0E6008D0403D08D0403D08D009E0194C07E0A7
S3151FFF0E70194C05E0194C03E0194C01E0194CFFE72B
S3151FFF0E8054F821504FF48076354344F82150012AF8
S3151FFF0E9015D1426901248C4022434261012B06D1A1
S3151FFF0EA00268012313FA01F1114301600EE0026884
S3151FFF0EB0012313FA01F132EA0101016006E04269DB
S3151FFF0EC0012313FA01F132EA0101416170BC704738
S3151FFF0ED000F00F400090044000A0044000B0044003
S3151FFF0EE000C0044000D004400268012313FA01F139
S3151FFF0EF051400160704700003B49086070475C28FE
S3151FFF0F0000DB5B20202190FBF1F1002903D0022992
S3151FFF0F1029D014D33AE00121202290FBF2F303FBE1
S3151FFF0F2012039940314A11600121202290FBF2F3EF
S3151FFF0F3003FB120311FA03F02D49086026E0012176
S3151FFF0F40202290FBF2F303FB12039940294A1160FB
S3151FFF0F500121202290FBF2F303FB120311FA03F088
S3151FFF0F602549086012E00121202290FBF2F303FBC3
S3151FFF0F7012039940214A11600121202290FBF2F3AF
S3151FFF0F8003FB120311FA03F01D49086070475C2823
S3151FFF0F9000DB5B20202190FBF1F1002903D0022902
S3151FFF0FA017D00BD31FE00121202290FBF2F303FB87
S3151FFF0FB0120311FA03F01349086014E001212022DE
S3151FFF0FC090FBF2F303FB120311FA03F00E490860BD
S3151FFF0FD009E00121202290FBF2F303FB120311FA12
S3151FFF0FE003F00A490860704708ED00E080E200E061
S3151FFF0FF000E100E084E200E004E100E088E200E0B7
S3151FFF100008E100E080E100E084E100E088E100E024
S3151FFF101080B520480078042815D15920FFF76FFFA8
S3151FFF10200020FFF76CFF1C48002101801B48002191
S3151FFF103001801B481B4901601B4800684008400090
S3151FFF10401949086004E0152218491948FFF72FFCB4
S3151FFF105001BD12480088401C104908800F480088B0
S3151FFF10600D490988134A895C89B2884205D10E4802
S3151FFF1070006850F001000C490860704780B50548AD
S3151FFF1080042101705A20FFF73AFF02480078012812
S3151FFF1090FBD101BDC015FF1F2485FF1F2685FF1F1F
S3151FFF10A010900040C415FF1F0C800040D414FF1F73
S3151FFF10B000A00640A013FF1F80B572B600230122B2
S3151FFF10C00A212448FFF7C4FE00221A21224800F0F6
S3151FFF10D059F85FF4E132214801682148FFF7EAFA20
S3151FFF10E02049002000F054F804E017221E491C482F
S3151FFF10F0FFF7DDFBFFF70CFE0028F6D01B4800901D
S3151FFF11001B4B4FF4A07232210020FFF7A1FC0028D2
S3151FFF111005D1142217491248FFF7C9FBEEE71648F8
S3151FFF11205FF0FF31016015485FF0FF310160144822
S3151FFF11305FF0FF3101605920FFF729FF0020FFF7FE
S3151FFF114026FF5A20FFF723FF62B6FFF797FF00F030
S3151FFF1150A5F8FAE700F00F4000F10F402085FF1FAB
S3151FFF116000A00640F82401003415FF1FC415FF1FFA
S3151FFF117050F00F404C15FF1FA0C00440A0B0044005
S3151FFF1180A0A0044080B513000122FFF761FE01BD39
S3151FFF1190174A126852F40002154B1A60154A126855
S3151FFF11A032F00202134B1A60124A126852F0010202
S3151FFF11B0104B1A60C0B202010F4BD150C0B20E497D
S3151FFF11C011EB0011896851F00101C0B20A4A12EBF7
S3151FFF11D000129160C0B2084911EB0011896831F006
S3151FFF11E00201C0B2044A12EB001081607047000073
S3151FFF11F03C800440007003400071034070B582B00D
S3151FFF1200040000A8DFF840100A680260042200A944
S3151FFF1210DFF83800FFF74BFB00250EE0F6B2EDB205
S3151FFF1220FA2000FB0540315CDFF82000FFF73AFB91
S3151FFF1230761CF6B2FA2EF1D36D1CEDB2322D01D20A
S3151FFF12400026F6E773BD0000B815FF1F00A0064076
S3151FFF1250F0B422234FF48E74002017E092B280B2AF
S3151FFF1260FA25DFF84C6005FB006589B280B24FF4A3
S3151FFF1270A076DFF8407006FB00768E5D5655521C32
S3151FFF1280491C89B2A4B2A142E8D3401C80B23228BE
S3151FFF129002D200221900F4E7F0BC704780B5FFF7B2
S3151FFF12A0D7FF0348FFF7AAFF012002BD000000007A
S3151FFF12B04454FF1FC415FF1F80B500F055F800F0FB
S3151FFF12C005F8FFF703FBFFF7F7FE01BD80B51C48C7
S3151FFF12D01C4988420BD0002006E01949194A52F8CB
S3151FFF12E0202041F82020401CB0F5826FF5D314480B
S3151FFF12F0FFF702FE1449154A1548801A03E01378B3
S3151FFF13000B70521C491C0300581E002BF7D11149A5
S3151FFF13101148401A02E000220A70491C0200501EA3
S3151FFF1320002AF8D10D490E4A0E48801A03E013789A
S3151FFF13300B70521C491C0300581E002BF7D101BD11
S3151FFF13400000FF1F0000FF1FC015FF1FBC15FF1F5B
S3151FFF1350C015FF1FC415FF1F2885FF1F00000000B4
S3151FFF1360000000000000000080B500F009F80A48E1
S3151FFF137000884FF6FE7108400749088001BD00002F
S3151FFF138072B606484CF22051018004484DF62811CB
S3151FFF1390018062B670470000002005400E20054001
S3151FFF13A00406080A0C0E10121416181A1C1E2022E9
S3151FFF13B02426282A2C2E30323436383A3C3E4042D9
S3151FFF13C04446484A4C4E50525456585A5C5E6062C9
S3151FFF13D0646600000A43616D657261205265676925
S3151FFF13E0737465727320496E697469616C204669EF
S3151FFF13F06E616C6C792053756363656564210000AC
S3151FFF140010B5084979441C31074C7C441A34A14254
S3151FFF141006D0081D0A68511888470146A142F8D110
S3151FFF142010BD00BF800000008C0000000A43616DE5
S3151FFF14306572612057726974696E67204F5637361A
S3151FFF144032305F434C4B4354524C204661696C65A7
S3151FFF1450642100000A43616D6572612057726974CA
S3151FFF1460696E67204F56373632305F434F4D4354B1
S3151FFF1470524C43204661696C656421000A43616DC6
S3151FFF14806572612057726974696E67204F563736CA
S3151FFF149032305F434F4D4354524C48204661696C6F
S3151FFF14A065642100EFF1FFFF646F0000C415FF1F86
S3151FFF14B0000000000A43616D65726120526567690E
S3151FFF14C07374657273205265736574204661696C08
S3151FFF14D0656421000A4572726F7220496E20466944
S3151FFF14E0656C644973722829210000000A457272D0
S3151FFF14F06F7220496E20504F5254415F49737228B5
S3151FFF1500292100000A4572726F7220496E20504FC3
S3151FFF15105254425F49737228292100000A4572728D
S3151FFF15206F7220496E20504F5254455F4973722880
S3151FFF1530292100000A43616D65726120496E697436
S3151FFF154069616C204661696C656421000A444D41DF
S3151FFF155020496E697469616C204661696C656421F7
S3151FFF15600000000000F009F8002801D0FFF748FF30
S3151FFF15700020FFF7A1FD00F002F80120704700F0E1
S3151FFF158001B800000746384600F002F8FBE70000E7
S3151FFF159080B5C046C046024A11001820ABBEFBE706
S3151FFF15A026000200C046C046C046C046FFF7DAFF08
S3151FFF15B0000102030405060700FF010001000000EA
S7051FFF15A522
