S00E00005369726975732E7372656397
S1130000F8FF002011040000F70C0000F70C0000BA
S1130010F70C0000F70C0000F70C0000F70C0000D0
S1130020F70C0000F70C0000F70C0000F70C0000C0
S1130030F70C0000F70C0000F70C0000F70C0000B0
S1130040370D0000F70C0000F70C0000F70C00005F
S1130050F70C0000F70C0000F70C0000F70C000090
S1130060F70C0000F70C0000F70C0000F70C000080
S1130070F70C0000F70C0000F70C0000F70C000070
S1130080F70C0000F70C0000F70C0000F70C000060
S1130090F70C0000F70C0000F70C0000F70C000050
S11300A0F70C0000F70C0000F70C0000F70C000040
S11300B0F70C0000F70C0000F70C0000F70C000030
S11300C0F70C0000F70C0000F70C0000F70C000020
S11300D0F70C0000F70C0000F70C0000F70C000010
S11300E0F70C0000F70C0000F70C0000F70C000000
S11300F0F70C0000F90C0000F70C0000F70C0000EE
S1130100F70C0000F70C0000F70C0000F70C0000DF
S1130110F70C0000F70C0000F70C0000F70C0000CF
S1130120F70C0000F70C0000F70C0000F70C0000BF
S1130130F70C0000F70C0000F70C0000F70C0000AF
S1130140F70C0000F70C0000F70C0000F70C00009F
S1130150170D0000F70C0000F70C0000F70C00006E
S1130160F70C0000F70C0000F70C0000F70C00007F
S1130170F70C0000F70C0000F70C0000F70C00006F
S1130180F70C0000F70C0000F70C0000F70C00005F
S1130190F70C0000F70C0000F70C0000770D0000CE
S11301A08D0D0000A30D0000BB0D0000D30D000059
S11301B0F70C0000F70C0000F70C0000F70C00002F
S11301C0F70C0000F70C0000F70C0000F70C00001F
S11301D0F70C0000F70C0000F70C0000F70C00000F
S11301E0F70C0000F70C0000F70C0000F70C0000FF
S1130400FFFFFFFFFFFFFFFFFFFFFFFFFEFFFFFFF9
S11304104FF000004FF000014FF000024FF00003D6
S11304204FF000044FF000054FF000064FF00007B6
S11304304FF000084FF000094FF0000A4FF0000B96
S11304404FF0000C62B600F01FFFFEE73248006870
S113045010F00070002801D0012000E00020704757
S11304602F48006830F080602D49086070472C48A0
S1130470006850F080602A49086070472748006887
S113048030F000702549086070472448006850F037
S113049000702249086070472148006830F00070FD
S11304A01F49086070471E48006850F000701C49DE
S11304B00860704701B404E0BDF80000401EADF8C8
S11304C00000BDF800000028F6D101B070471548BF
S11304D0006850F49170134908601348006850F4A0
S11304E09170114908600D48006850F080600B4914
S11304F008600B48006850F08060094908600748AC
S1130500006850F00070054908600548006850F024
S1130510007003490860704710F00F4014F00F405A
S113052000F00F40689004406490044080B5FFF7E9
S1130530BAFFFFF79CFF4FF41670FFF7BBFFFFF7FE
S11305409DFFFFF783FFC0B2002803D1FFF79DFF93
S1130550002012E0FFF799FFFFF79EFF4FF416709B
S1130560FFF7A8FFFFF77CFFFFF770FF002803D019
S1130570FFF78BFF002000E0012002BD80B5FFF7EC
S11305806FFFFFF789FF4FF41670FFF793FFFFF734
S11305906EFF4FF41670FFF78DFFFFF784FF4FF4E3
S11305A01670FFF787FF01BD80B5FFF759FFFFF70E
S11305B065FF4FF41670FFF77DFFFFF758FF4FF408
S11305C01670FFF777FFFFF741FF002805D0FFF70C
S11305D05CFFFFF745FF002004E0FFF756FFFFF73D
S11305E03FFF012002BD38B5040008250EE0FFF7E7
S11305F053FF64004FF41670FFF75CFFFFF737FFFB
S11306004FF41670FFF756FFFFF72AFF2800451E28
S1130610C0B2002804D02006E9D5FFF744FFE8E77C
S113062031BD38B504000D00FFF780FF002801D16B
S1130630002019E04220FFF7D6FFFFF7B5FF00289E
S113064003D1FFF79BFF00200EE02000C0B2FFF7AC
S1130650CAFFFFF7A9FF2800C0B2FFF7C4FFFFF7E6
S1130660A3FFFFF78BFF012032BD70B504000D001E
S113067000262900C9B22000C0B2FFF7D2FF00282B
S113068005D1761CF6B2142EF3D1002000E001202F
S113069070BD50F8041B61B150F8042BD30744BF5C
S11306A0A9F101039A18002342F8043B091FFAD167
S11306B0EFE7704730B45F4B984208D14FF4407372
S11306C05D4C23604FF440735C4C23603AE05C4B18
S11306D0984208D14FF440735A4C23604FF440734E
S11306E0594C23602EE0594B984208D14FF4407383
S11306F0574C23604FF44073564C236022E0564B12
S1130700984208D14FF44073544C23604FF4407323
S1130710534C236016E0534B984208D14FF4407376
S1130720514C23604FF44073504C23600AE0504B0B
S1130730984207D14FF440734E4C23604FF44073FA
S11307404D4C23603B4B984206D14C4B1B6853F4F1
S113075080634A4C23602DE0394B984206D1474BC5
S11307601B6853F40063454C236023E0374B9842E5
S113077006D1424B1B6853F48053404C236019E06C
S1130780354B984206D13D4B1B6853F400533B4C08
S113079023600FE0334B984206D1394B1B6853F466
S11307A08063374C236005E0354B1B6853F40063CA
S11307B0334C2360C37813F0F303C37000238370B6
S11307C01C4B984201D1012300E000231C4CA042A1
S11307D001D1012400E00024DBB2E4B22343002B66
S11307E000D049184FF47A7303FB01F31401B3FBEF
S11307F0F4F3047814F0E0049BB21D0A15F01F050D
S11308002C43047043704FF4FA4461431201B1FB6A
S1130810F2F19BB2B1EB4311827A12F0E00411F0D1
S11308201F0121438172C17851F00C01C17030BCA9
S11308307047000000A0064044A0044040A00440CB
S113084000B0064010B004400CB0044000C00640A4
S11308500CC0044008C0044000D0064044B004402A
S113086040B0044000A00E4060D0044064D0044076
S113087000B00E4020D0044024D004403480044012
S113088028800440002200E0521C4FF6BB339A42F9
S113089006D203799B06F7D5C0790870012006E0DB
S11308A04FF6BB30824201D3002000E000207047A5
S11308B002791206FCD5C1717047F8B504000D0029
S11308C01600002704E0795D2000FFF7F1FF7F1C8C
S11308D0B6B2B742F7DBF1BD80B54E48006850F4BC
S11308E078504C49086000F030F896204A49086076
S11308F0494800684FF47A714843484908604748BA
S1130900006847490968C1F30361491CB0FBF1F071
S11309104449086000F003F800F00CF801BD4248B7
S1130920006850F48050404908604FF4E0603F494B
S1130930086070473E48006850F001003C49086078
S11309404FF4A0603B49086070473248006850F497
S113095078503049086000203749087037480068EB
S113096050F08050354908603548007850F08000D8
S11309703349087098203349087033480078C0061A
S1130980FBD431480078C0F38100C0B20228F8D10A
S113099011202E49087000202D4908702D48006848
S11309A02C49096851F47F012A4A11602A491C4ADA
S11309B01160284908605E202549087022480078A3
S11309C08006FBD5204800784006FBD51D480078FA
S11309D010F03F001B4908701B480078C0F38100E9
S11309E0C0B20328F8D11048006850F480500E4972
S11309F008604FF4E0600D4908600D48006850F04D
S1130A0001000B4908604FF4A0600A490860704770
S1130A1000000000388004406C73FF1F6873FF1FE0
S1130A20448004407073FF1F048004401890044005
S1130A30408004400CB0044001400640348004402F
S1130A4008C00740004006400640064004400640F7
S1130A500540064000F001400000170130B4C0B268
S1130A60102801DB0020A1E0C9B2352901DB0020F8
S1130A709CE04F4C246854F002044D4D2C604D4CC6
S1130A80246854F002044B4D2C6011F03F0151F0E6
S1130A908001C0B2484C01550021484C21605104EA
S1130AA0490CC0B2440104F1804414F51044E182BD
S1130AB05104490CC0B2420102F1804212F51042C5
S1130AC0D1830121C0B2420102F1804212F51042E9
S1130AD09160C0B241013A4A8B500021C0B2420138
S1130AE002F1804212F5104291800021C0B242010D
S1130AF002F1804212F51042D1600299C0B2420163
S1130B0002F1804212F5104211610121C0B242018A
S1130B1002F1804212F5104291820021C0B24201DA
S1130B2002F1804212F5104291610021C0B24201EB
S1130B3002F1804212F51042D1800021C0B242017C
S1130B4002F1804212F5104291831E490968012284
S1130B50824011431B4A1160C0B2410101F180413E
S1130B6011F51041898B51F00201C0B2420102F12A
S1130B70804212F510429183C0B2410101F18041DB
S1130B8011F51041898B51F00801C0B2420102F104
S1130B90804212F5104291830B490968012212FA2E
S1130BA000F031EA000008490860012030BC7047B9
S1130BB03C8004404080044000100240008000401B
S1130BC000900040248000400C80004081B047F237
S1130BD030514843009003E000BF00BF00BF00BF96
S1130BE00098411E00910028F6D101B0704782B0F0
S1130BF000A832490CC90CC0083908383049002013
S1130C0018E0C0B200AA825CC0B200ABC35C51F869
S1130C10233053F4817341F82230C0B200AA825CBD
S1130C20C0B200ABC35C51F823305B085B0041F8F1
S1130C302230401CC0B20828E3DB2248006840F49C
S1130C40202050F480701F4908601F48006840F459
S1130C50102050F480701C4908601C48006840F45F
S1130C60803050F480701949086002B0704780B534
S1130C70FFF72DFC80211220FFF7F7FC002806D196
S1130C801F2213491348FFF718FE002015E03220F5
S1130C90FFF79CFF24211420FFF7E7FC002806D16E
S1130CA027220D490B48FFF708FE002005E02A2201
S1130CB00A490848FFF701FE012002BD3015000073
S1130CC000A0044004C0044020B0044024A0044018
S1130CD03014000000A00640D0130000A41300004C
S1130CE080B5FFF7C4FF002801D1002002E0FFF720
S1130CF07EFF012002BD704780B572B600A93A4854
S1130D00FFF7C0FD002804D09DF800103648FFF717
S1130D10CFFD62B601BD80B534480068C00705D573
S1130D203248006850F00100304908600A21304818
S1130D3000F0C2F801BD80B500202E4909680122E7
S1130D4012FA00F008432B4908602B480088401C25
S1130D50294908802848008832280BDB01202749CC
S1130D6008705A2000F0FBF8592000F0F8F8002031
S1130D7000F0F5F801BD80B55FF0FF302049086050
S1130D80162220491848FFF798FD01BD80B55FF091
S1130D90FF301D49086016221C491348FFF78DFDDA
S1130DA001BD80B51A4800685FF0FF31184A116030
S1130DB0C00501D500F035F901BD80B515480068BE
S1130DC05FF0FF31134A1160800701D500F008F984
S1130DD001BD80B55FF0FF300F49086016220F494E
S1130DE00148FFF76AFD01BD00A006400C710340F5
S1130DF000F00F40248000407473FF1F1004FF1F95
S1130E00A0900440AC140000A0A00440C41400004E
S1130E10A0B00440A0C00440A0D00440DC140000F2
S1130E2070B405001E4EAD1B08D0403D08D0403DB7
S1130E3008D0403D08D0403D08D009E0194C07E0F7
S1130E40194C05E0194C03E0194C01E0194CFFE77B
S1130E5054F8215055F4807544F82150012A15D1D5
S1130E60426901248C4022434261012B06D102686D
S1130E70012313FA01F1114301600EE0026801231A
S1130E8013FA01F132EA0101016006E0426901232B
S1130E9013FA01F132EA0101416170BC70470000AC
S1130EA000F00F400090044000A0044000B0044053
S1130EB000C0044000D004400268012313FA01F189
S1130EC051400160704700003B49086070475C284E
S1130ED000DB5B20202190FBF1F1002903D00229E3
S1130EE029D014D33AE00121202290FBF2F303FB32
S1130EF012039940314A11600121202290FBF2F340
S1130F0003FB120311FA03F02D49086026E00121C6
S1130F10202290FBF2F303FB12039940294A11604B
S1130F200121202290FBF2F303FB120311FA03F0D8
S1130F302549086012E00121202290FBF2F303FB13
S1130F4012039940214A11600121202290FBF2F3FF
S1130F5003FB120311FA03F01D49086070475C2873
S1130F6000DB5B20202190FBF1F1002903D0022952
S1130F7017D00BD31FE00121202290FBF2F303FBD7
S1130F80120311FA03F01349086014E0012120222E
S1130F9090FBF2F303FB120311FA03F00E4908600D
S1130FA009E00121202290FBF2F303FB120311FA62
S1130FB003F00A490860704708ED00E080E200E0B1
S1130FC000E100E084E200E004E100E088E200E007
S1130FD008E100E080E100E084E100E088E100E075
S1130FE080B520480078042815D15920FFF76FFFF9
S1130FF00020FFF76CFF00201B49088000201B49DC
S113100008801B481B4908601B48006840084000D2
S11310101949086004E0152218491948FFF74DFCE6
S113102001BD12480088401C104908800F48008800
S11310300D490988134A895C89B2884205D10E4852
S1131040006850F001000C490860704780B5042026
S1131050044908705A20FFF73AFF02480078012833
S1131060FBD101BD1004FF1F7473FF1F7673FF1FB4
S11310701404FF1F109000400C80004094140000E2
S113108000A006407013000080B572B60023012250
S11310900A212448FFF7C4FE00221A21224800F046
S11310A059F85FF4E132214801682148FFF702FB57
S11310B02049002000F054F804E017221E491C487F
S11310C0FFF7FBFBFFF70CFE0028F6D01B4800904F
S11310D01B4B4FF4A07232210020FFF7BFFC002805
S11310E005D1142217491248FFF7E7FBEEE75FF03A
S11310F0FF30154908605FF0FF30144908605FF065
S1131100FF30134908605920FFF729FF0020FFF73B
S113111026FF5A20FFF723FF62B6FFF797FF00F080
S1131120A6F8FAE700F00F4000F10F407073FF1FBC
S113113000A00640F8240100F41400001404FF1F6A
S113114050F00F400C150000A0C00440A0B00440B3
S1131150A0A0044080B513000122FFF761FE01BD89
S1131160174A126852F40002154B1A60154A1268A5
S113117032F00202134B1A60124A126852F0010252
S1131180104B1A60C0B202010F4BD150C0B20E49CD
S113119011EB0011896851F00101C0B20A4A12EB47
S11311A000129160C0B2084911EB0011896831F056
S11311B00201C0B2044A12EB0010816070470000C3
S11311C03C800440007003400071034070B582B05D
S11311D0040000A8DFF840100A680260042200A995
S11311E0DFF83800FFF769FB00250EE0F6B2EDB238
S11311F0FA2000FB0540315CDFF82000FFF758FBC4
S1131200761CF6B2FA2EF1DB6D1CEDB2322D01DA4A
S11312100026F6E773BD00003815000000A0064064
S1131220F0B422234FF48E74002017E092B280B2FF
S1131230FA25DFF84C6005FB006589B280B24FF4F3
S1131240A076DFF8407006FB00768E5D5655521C82
S1131250491C89B2A4B2A142E8D3401C80B232280E
S113126002DA00221900F4E7F0BC7047000080B5F0
S1131270FFF7D6FF0248FFF7A9FF012002BD0000D7
S11312809442FF1F1404FF1F80B500F055F800F0CE
S113129005F8FFF721FBFFF7F7FE01BD80B51C48F9
S11312A01C4988420BD0002006E01A4951F820104E
S11312B0174A42F82010401CB0F5826FF5D3144849
S11312C0FFF702FE1449154A1548801A03E0137803
S11312D00B70521C491C0300581E002BF7D11149F6
S11312E01148401A02E000220A70491C0200501EF4
S11312F0002AF8D10D490E4A0E48801A03E01378EB
S11313000B70521C491C0300581E002BF7D101BD61
S11313100000FF1F000000001004FF1F3C15000028
S1131320401500001404FF1F7873FF1F7873FF1F1C
S1131330100400001004000080B500F009F80A4809
S113134000884FF6FE7108400749088001BD00007F
S113135072B64CF22050054908804DF62810034916
S1131360088062B670470000002005400E2005404A
S11313700A0C0E10121416181A1C1E2022242628D9
S11313802A2C2E30323436383A3C3E4042444648C9
S11313904A4C4E50525456585A5C5E6062646668B9
S11313A06A6C00000A43616D657261205265676969
S11313B0737465727320496E697469616C2046693F
S11313C06E616C6C792053756363656564210000FC
S11313D00A43616D6572612057726974696E672092
S11313E04F56373632305F434F4D4354524C4320AF
S11313F04661696C6564210010B507497944183168
S1131400064C7C44163404E00A68081D51188847C9
S11314100146A142F8D110BD0800000014000000EC
S113142073F2FFFF646F00001404FF1F000000004C
S11314300A43616D657261205265676973746572F0
S113144073205265736574204661696C656421007C
S113145000F00BF8002801D0FFF7CEFF0020C046B3
S1131460C046FFF711FE00F002F80120704700F0BB
S113147001B800000746384600F002F8FBE7000018
S113148080B5C046C046024A11001820ABBEFBE737
S1131490260002000A4572726F7220496E20466966
S11314A0656C644973722829210000000A45727230
S11314B06F7220496E20504F5254415F4973722815
S11314C0292100000A4572726F7220496E20504F24
S11314D05254425F49737228292100000A457272EE
S11314E06F7220496E20504F5254455F49737228E1
S11314F0292100000A43616D65726120496E697497
S113150069616C204661696C656421000A444D413F
S113151020496E697469616C204661696C65642157
S113152000000000C046C046C046C046FFF790FF1A
S1131530000102030405060700FF0100010000008A
S9031525C2
