:10000000F8FF002011040000FD6C000031610000C9
:10001000FD6C0000FD6C0000FD6C0000FD6C00003C
:10002000FD6C0000FD6C0000FD6C0000FD6C00002C
:10003000FD6C0000FD6C00002F6100002D610000D0
:10004000D9630000FD6C0000FD6C0000FD6C000039
:10005000B7630000FD6C0000FD6C0000FD6C00004B
:10006000FD6C0000FD6C0000FD6C0000FD6C0000EC
:10007000FD6C0000FD6C0000FD6C0000FD6C0000DC
:10008000FD6C0000FD6C0000FD6C0000FD6C0000CC
:10009000FD6C0000FD6C0000FD6C0000FD6C0000BC
:1000A000FD6C0000FD6C0000FD6C0000FD6C0000AC
:1000B000FD6C0000FD6C0000FD6C0000FD6C00009C
:1000C000FD6C0000FD6C0000FD6C0000FD6C00008C
:1000D000FD6C0000FD6C0000FD6C0000FD6C00007C
:1000E000FD6C0000FD6C0000FD6C0000FD6C00006C
:1000F000FD6C0000FD6C0000FD6C00004560000020
:10010000FD6C0000FD6C0000FD6C0000FD6C00004B
:10011000FD6C0000FD6C0000FD6C0000FD6C00003B
:10012000FD6C0000FD6C0000FD6C0000FD6C00002B
:10013000FD6C0000FD6C00002F63000031630000C7
:100140008D630000FD6C0000FD6C0000FD6C000084
:10015000836000006960000021630000FD6C000006
:10016000FD6C0000FD6C0000FD6C0000FD6C0000EB
:10017000FD6C0000FD6C0000FD6C0000FD6C0000DB
:10018000FD6C0000FD6C0000FD6C0000FD6C0000CB
:10019000FD6C0000FD6C0000FD6C0000FD6C0000BB
:1001A000FD6C00007F610000456100000F620000EF
:1001B000FD6C0000FD6C0000FD6C0000FD6C00009B
:1001C000FD6C0000FD6C0000FD6C0000FD6C00008B
:1001D000FD6C0000FD6C0000FD6C0000FD6C00007B
:1001E000FD6C0000FD6C0000FD6C0000FD6C00006B
:10040000FFFFFFFFFFFFFFFFFFFFFFFFFEFFFFFFFD
:1004100062B64FF000004FF000014FF000024FF0C5
:1004200000034FF000044FF000054FF000064FF0BE
:1004300000074FF000084FF000094FF0000A4FF09E
:10044000000B4FF0000C04F0CFFCFEE700B20028D8
:1004500003D500B2404200B200E000B27047C0B223
:10046000C9B2884200D20800C0B27047C0B2C9B257
:10047000884201D30800FFE7C0B270470B00DBB22F
:1004800080B29BB2984201D2FF2318001300DBB266
:100490009BB280B2834201D2FF231800C0B27047E2
:1004A00038B50400FF21002002F0EFFC0020050019
:1004B000EDB2322D09DA8C22EDB28C2000FB054121
:1004C000002002F0EFFC6D1CF2E7FF21002002F09B
:1004D000DCFC31BD70B5002400200500EDB2322DEA
:1004E00012DA00200600F6B28C2E0BDADFF8DC0CF4
:1004F000EDB28C2101FB0500F6B2305C54FA80F4B9
:10050000761CF0E76D1CE9E741F65830B4FBF0F4D7
:100510002000C0B202F008FDDFF8B42CDFF8B43CD4
:1005200002F010FD02F0F0FD0100C9B28220FFF7D9
:1005300096FFDFF8A41C08702000C0B202F0F4FCA3
:10054000DFF8982CDFF8983C02F0FCFC02F0DCFDB0
:100550000100C9B26420FFF789FFDFF8881C08702A
:10056000DFF8740C0078DFF87C1C0978411AC9B2F6
:100570003C20FFF774FFDFF8701C087070BD64202A
:10058000DFF8601C08708220DFF84C1C08703C20EB
:10059000DFF8541C087070472DE9F04104006D200D
:1005A0000500002080462E00F6B2052EC0F2BA806B
:1005B000DFF8180CE4B28C2101FB0400F6B2305CC9
:1005C000DFF8081CE4B28C2202FB0411F6B27118A9
:1005D00011F8031C401A00B2FFF738FF0700DFF8DC
:1005E000080C0078FFB2B84280F08E80DFF8E80B8C
:1005F0000078DFF8D81BE4B28C2202FB0411F6B2BB
:10060000715C884280F08080DFF8C00BE4B28C21FE
:1006100001FB0400F6B2301810F8030CDFF8C41B1D
:100620000978884270D2E4B21F2C32DBDFF89C0BD1
:10063000E4B28C2101FB0400F6B2301810F8040C6F
:10064000DFF8A01B0978884220D2DFF8800BE4B2E3
:100650008C2101FB0400F6B2301810F8050CDFF80D
:10066000841B0978884211D2DFF8600BE4B28C2138
:1006700001FB0400F6B2301810F8060CDFF8641B1A
:100680000978884202D25FF001083DE05FF000087F
:100690003AE0E4B2152C23DBDFF8300BE4B28C2116
:1006A00001FB0400F6B2301810F8040CDFF8341B1C
:1006B0000978884211D2DFF8140BE4B28C2101FBD7
:1006C0000400F6B2301810F8050CDFF8181B097892
:1006D000884202D25FF0010816E05FF0000813E0E4
:1006E000DFF8E80AE4B28C2101FB0400F6B230180E
:1006F00010F8040CDFF8EC1A0978884202D25FF097
:10070000010801E05FF000085FFA88F8B8F1000F17
:1007100006D0F01EDFF8D41AE4B2605401200CE0D9
:10072000761E41E75FFA88F8B8F1000F04D1FF2088
:10073000DFF8B81AE4B260540020BDE8F0812DE97A
:10074000F84304000D00EDB2B5F10F00042802DA01
:100750000420060002E0B5F10F000600EDB215F12D
:100760000F00892802DB8820070002E015F10F0046
:10077000070000208146F6B2FFB2BE4280F0BB8087
:10078000DFF8480AE4B28C2101FB0400FFB2385CB8
:10079000DFF8381AE4B28C2202FB0411FFB2791898
:1007A00011F8031C401A00B2FFF750FE8046DFF834
:1007B000380A00785FFA88F8404580F08E80DFF8CC
:1007C000180A0078DFF8041AE4B28C2202FB041144
:1007D000FFB2795C884280F08080DFF8F009E4B2F3
:1007E0008C2101FB0400FFB2381810F8030CDFF86D
:1007F000F4190978884270D2E4B21F2C32DBDFF89A
:10080000CC09E4B28C2101FB0400FFB2381810F8C7
:10081000040CDFF8D0190978884220D2DFF8AC093F
:10082000E4B28C2101FB0400FFB2381810F8050C6B
:10083000DFF8B0190978884211D2DFF89009E4B2E4
:100840008C2101FB0400FFB2381810F8060CDFF809
:1008500094190978884202D25FF001093DE05FF007
:1008600000093AE0E4B2152C23DBDFF86009E4B2BA
:100870008C2101FB0400FFB2381810F8040CDFF8DB
:1008800064190978884211D2DFF84009E4B28C215A
:1008900001FB0400FFB2381810F8050CDFF844190A
:1008A0000978884202D25FF0010916E05FF0000982
:1008B00013E0DFF81809E4B28C2101FB0400FFB259
:1008C000381810F8060CDFF81C190978884202D293
:1008D0005FF0010901E05FF000095FFA89F9B9F101
:1008E000000F06D0F81EDFF80419E4B260540120AE
:1008F0000CE07F1E3FE75FFA89F9B9F1000F04D1E0
:10090000FF20DFF8E818E4B260540020BDE8F2836D
:100910002DE9F84304000D002600EDB2F6B2B54211
:1009200027D23000C0B2FFF737FE0700701EC0B2FA
:10093000FFF732FE8046FFB2002F18D05FFA88F82A
:10094000B8F1000F13D0DFF8A408F6B2301810F891
:10095000010CDFF89818F6B2715C401A00B2FFF78C
:1009600075FD81465FFA89F9B9F1060F01DBB61E04
:10097000D3E7EDB2F6B2B54202D23000C0B200E029
:10098000FF20BDE8F2832DE9F04F85B005000E0091
:1009900000200700FF208246FF208DF80400F6B2F9
:1009A000EDB2AE4207D32A22DFF8A01D002002F0EC
:1009B00079FA002069E3EDB2F6B2A81B082807DA3D
:1009C0001922DFF88C1D002002F06CFA00205CE395
:1009D000EDB2312D80F21481F6B2022EC0F21081F8
:1009E000EDB2322D0DDADFF80408EDB2285CFF28F5
:1009F00005D0DFF8F807EDB2285C824601E06D1CF7
:100A0000EEE7F6B2002E0ED0DFF8E007F6B2305C6B
:100A1000FF2806D0DFF8D407F6B2305C8DF804006A
:100A200001E0761EEDE75FFA8AFABAF1FF0F03D014
:100A30009DF80400FF2801D1002026E3EDB2F6B2B4
:100A4000A81B02F087FB03909DF804005FFA8AFA66
:100A500082455DD29DF804005FFA8AFAB0EB0A0085
:100A600002F078FB02900298039902F08DFB814618
:100A70005FF07E508346681E0400E4B2F6B2701C3C
:100A80008442C0F2FC82DFF86407E4B2205CFF28F5
:100A90002AD1DFF85807EDB2285CD0F18B0002F0C4
:100AA00059FB00904846594602F0ECFB01000098C3
:100AB00002F054FC002102F0C5FC10D2DFF82C0734
:100AC000EDB2285C02F050FB00904846594602F017
:100AD000D9FB009902F0C8FC02F008FD00E0FF20FD
:100AE000DFF80817E4B26054DFF80007E4B2205CD6
:100AF000FF2800D17F1C584602F01AFD0022DFF8C3
:100B0000543C02F03DFD02F0AFFD8346641EB4E7A5
:100B10009DF804005FFA8AFA50455CD25FFA8AFABF
:100B20009DF80400BAEB000002F014FB029002985A
:100B3000039902F029FB81465FF07E508346681ED0
:100B40000400E4B2F6B2701C8442C0F29882DFF86E
:100B50009C06E4B2205CFF2829D1DFF89006EDB2B4
:100B6000285C02F001FB00904846594602F08AFBDF
:100B70000100009802F0F2FB002102F063FC11D2A8
:100B8000DFF86806EDB2285C02F0EEFA0090484605
:100B9000594602F077FB0100009802F0DFFB02F0FB
:100BA000A5FC00E0FF20DFF84416E4B26054DFF853
:100BB0003C06E4B2205CFF2800D17F1C584602F0BE
:100BC000B7FC0022DFF88C3B02F0DAFC02F04CFDAF
:100BD0008346641EB5E7681E0400E4B2F6B2701CDA
:100BE0008442C0F24C82DFF80406E4B2205CFF28A5
:100BF00004D1DFF8F805E4B204F800A0641EECE7C5
:100C0000EDB22E2D80F22981F6B2022E80F22581DE
:100C100003208046EDB2322D0EDADFF8D005EDB2BA
:100C2000285CFF2806D0DFF8C405EDB2285C8DF8FB
:100C3000040001E06D1CEDE75FFA88F858FA85F0D2
:100C4000322814DADFF8A4055FFA88F858FA85F13B
:100C5000085CFF2808D0DFF894055FFA88F858FA96
:100C600085F1085C824602E018F10108E4E75FFACA
:100C70008AFABAF1FF0F03D09DF80400FF2801D1D2
:100C8000002002E25FFA88F8404602F06DFA039015
:100C90009DF804005FFA8AFA824560D29DF804004C
:100CA0005FFA8AFAB0EB0A0002F054FA0290029856
:100CB000039902F069FA81465FF07E508346681E10
:100CC0000400E4B2F6B2B442C0F0D981DFF81C05EA
:100CD000E4B2205CFF282AD1DFF81005EDB2285CD1
:100CE000D0F18B0002F036FA00904846594602F0E7
:100CF000C9FA0100009802F031FB002102F0A2FBCA
:100D000010D2DFF8E804EDB2285C02F02DFA009072
:100D10004846594602F0B6FA009902F0A5FB02F0E7
:100D2000E5FB00E0FF20DFF8C414E4B26054DFF814
:100D3000BC04E4B2205CFF2800D17F1C584602F0BE
:100D4000F7FB0022DFF80C3A02F01AFC02F08CFCF0
:100D50008346E4B2002C00F09281641EB1E79DF856
:100D600004005FFA8AFA50455FD25FFA8AFA9DF86A
:100D70000400BAEB000002F0EDF90290029803992A
:100D800002F002FA81465FF07E508346681E04003E
:100D9000E4B2F6B2B442C0F07281DFF85004E4B2BB
:100DA000205CFF2829D1DFF84404EDB2285C02F072
:100DB000DBF900904846594602F064FA01000098B9
:100DC00002F0CCFA002102F03DFB11D2DFF81C0446
:100DD000EDB2285C02F0C8F900904846594602F08E
:100DE00051FA0100009802F0B9FA02F07FFB00E02E
:100DF000FF20DFF8F813E4B26054DFF8F003E4B248
:100E0000205CFF2800D17F1C584602F091FB002295
:100E1000DFF8403902F0B4FB02F026FC8346E4B26E
:100E2000002C00F02C81641EB2E7681E0400E4B2BE
:100E3000F6B2B442C0F02381DFF8B003E4B2205C24
:100E4000FF2804D1DFF8A403E4B204F800A0E4B260
:100E5000002C00F01481641EE9E7EDB2312DC0F2E0
:100E60000E81F6B2052EC0F20A8103208046F6B24A
:100E7000002E0BD0DD48F6B2305CFF2804D0DB48F2
:100E8000F6B2305C824601E0761EF0E7F6B25FFA19
:100E900088F8B6EB0800012815DBD448F6B25FFAF3
:100EA00088F8B6EB0801085CFF2809D0CF48F6B2F5
:100EB0005FFA88F8B6EB0801085C8DF8040002E0E0
:100EC00018F10108E2E75FFA8AFABAF1FF0F03D0DE
:100ED0009DF80400FF2801D10020D6E05FFA88F8D1
:100EE000404602F041F903909DF804005FFA8AFA47
:100EF000824556D29DF804005FFA8AFAB0EB0A00E8
:100F000002F028F902900298039902F03DF9814617
:100F10005FF07E508346701C0400EDB2E4B2A5423F
:100F2000C0F0AD80B148E4B2205CFF2826D1AF48C4
:100F3000F6B2305C02F018F900904846594602F0CB
:100F4000A1F90100009802F009FA002102F07AFAF2
:100F500010D2A648F6B2305C02F006F9009048467E
:100F6000594602F08FF90100009802F0F7F902F0FB
:100F7000BDFA00E0FF209D49E4B260549B48E4B212
:100F8000205CFF2800D17F1C584602F0D1FA0022D5
:100F9000DFF8C03702F0F4FA02F066FB8346641C07
:100FA000BBE79DF804005FFA8AFA504556D25FFA13
:100FB0008AFA9DF80400BAEB000002F0CBF8029028
:100FC0000298039902F0E0F881465FF07E50834674
:100FD000701C0400EDB2E4B2A54250D38348E4B2E1
:100FE000205CFF2827D18148F6B2305CD0F18B001D
:100FF00002F0B0F800904846594602F043F901006B
:10100000009802F0ABF9002102F01CFA0FD27748E9
:10101000F6B2305C02F0A8F800904846594602F05B
:1010200031F9009902F020FA02F060FA00E0FF20A6
:101030006E49E4B260546D48E4B2205CFF2800D1F0
:101040007F1C584602F074FA0022DFF8083702F0DD
:1010500097FA02F009FB8346641CBBE7681E040094
:10106000E4B2F6B2B4420AD36048E4B2205CFF288E
:1010700003D15E48E4B204F800A0641EF0E7FFB2BA
:10108000112F01DB002000E0012005B0BDE8F08F4A
:101090002DE9F84304000D005FF000092900C9B2F2
:1010A0002000C0B2FFF734FC0600F6B2FF2E07D1D5
:1010B0002900C9B22000C0B2FFF765FC814679E083
:1010C000DFF8CC08F6B2315C701EC0B2FFF737FB18
:1010D0000700DFF8BC08F6B2315CB01EC0B2FFF703
:1010E0002EFB8046FFB2002F20D05FFA88F8B8F1BF
:1010F000000F1BD02900C9B2B01EC0B2FFF7C8FF55
:1011000007003100C9B22000C0B2FFF7C1FF80461E
:10111000FFB2002F07D05FFA88F8B8F1000F02D0B5
:101120005FF0010946E05FF0000943E02748F6B2AE
:101130008C2101FB0600DFF85818F6B2715CFE2224
:101140000A542248F6B28C2101FB0600DFF8401851
:10115000F6B2711811F8011C0818FE2100F88C1C59
:101160001A48F6B28C2101FB0600DFF82418F6B20B
:10117000711811F8021C0818B0F58C70FE2101706E
:10118000FF20DFF80C18F6B27054FF20DFF80018CB
:10119000F6B2711801F8010CFF20DFF8F417F6B26F
:1011A000711801F8020C2900C9B22000C0B2FFF783
:1011B0006FFF81465FFA89F9B9F1000F01D0012074
:1011C00000E00020BDE8F28300000000A005FF1F42
:1011D000295C8FC2F528F03F5904FF1F14AE47E188
:1011E0007A14E63F5804FF1F5A04FF1F2C21FF1FEB
:1011F0002DE9F84F5FF0000AFF208DF80000FF2076
:101200008046FF2081460E213120FFF781FB04003C
:10121000E4B2FF2C12D1002083465FFA8BFBBBF1B6
:10122000320F09DAFF20DFF868175FFA8BFB0BF843
:1012300001001BF1010BF0E700209CE1A3465FFADF
:101240008BFBBBF12A0F01DA8DF800B0DFF8400705
:101250005FFA8BFB1BF80000DFF834175FFA8BFB9B
:101260001BEB010111F8011C0818022190FBF1F0A1
:101270000400BBF1020B5FFA8BFBBBF1000F00F027
:1012800019812100C9B25846C0B2FFF758FA0500CB
:101290002100C9B2BBF10100C0B2FFF750FA06004D
:1012A000EDB2002D16D0F6B2002E13D0DFF8E00616
:1012B0005FFA8BFB1BF80000DFF8D4165FFA8BFB9C
:1012C0001BEB010111F8011C0818022190FBF1F041
:1012D0000400E7E0EDB2002D34D1F6B2002E31D09B
:1012E000DFF8AC065FFA8BFB1BEB00004078DFF801
:1012F000A0165FFA8BFB1BEB010111F8011C51FAE0
:1013000080F0022190FBF1F004005846C0B2FFF7D4
:1013100043F90500EDB2002D00F0C480DFF870063F
:101320005FFA8BFB1BF80000DFF864165FFA8BFB9B
:101330001BEB010111F8011C0818022190FBF1F0D0
:101340000400AFE0EDB2002D33D0F6B2002E30D164
:10135000DFF83C065FFA8BFB1BEB00004078DFF800
:1013600030165FFA8BFB1BF8011051FA80F0022156
:1013700090FBF1F00400BBF10100C0B2FFF70CF9E3
:101380000600F6B2002E00F08D80DFF804065FFA4A
:101390008BFB1BF80000DFF8F8155FFA8BFB1BEBEB
:1013A000010111F8011C0818022190FBF1F0040062
:1013B00078E05846C0B2FFF7EFF80500BBF1010036
:1013C000C0B2FFF7E9F80600EDB2002D16D0F6B274
:1013D000002E13D0DFF8B8055FFA8BFB1BF8000076
:1013E000DFF8AC155FFA8BFB1BEB010111F8011C58
:1013F0000818022190FBF1F004002EE0EDB2002D60
:1014000013D0DFF88C055FFA8BFB1BEB00004078F4
:10141000DFF87C155FFA8BFB1BF8011051FA80F0A6
:10142000022190FBF1F0040017E0F6B2002E14D078
:10143000DFF85C055FFA8BFB1BEB00004078DFF800
:1014400050155FFA8BFB1BEB010111F8011C51FADF
:1014500080F0022190FBF1F00400EDB2002D21D1CB
:10146000F6B2002E1ED1DFF828055FFA8BFB1BEBCE
:1014700000004078FF2808D0DFF814055FFA8BFBE6
:101480001BEB00008078FF280CD15FFA8AFABAF1D2
:10149000000F02D11BF103008046BBF10100814621
:1014A0001AF1020A5FFA8BFBBBF1010F02D0BBF10C
:1014B000020BE0E65FFA8AFABAF1080F03DB0120BB
:1014C000DFF8041D08705FFA8AFABAF1240F01DB15
:1014D000002050E0DFF8F00C0078002805D19DF8DE
:1014E0000000FF2801D101200700DFF8DC0C0078A4
:1014F000002819D04946C9B20220FEF7B0FF814644
:101500005FFA89F9B9F1050F06DA00214046C0B249
:10151000FFF739FA070009E04946C9B24046C0B2B0
:10152000FFF7B6FD070001E0012007009DF800006D
:10153000FF2816D00120DFF8901C08709DF80010DD
:101540003120FFF720FA8DF80100FFB2002F06D0FE
:101550009DF80100002802D00120070001E00020D2
:101560000700FFB2002F03D00120DFF8601C0870D5
:10157000DFF8580C0078BDE8F28F2DE9F041040047
:10158000DFF8480C0078012819D1DFF80404E4B230
:10159000205CFF2802D14620050012E0DFF8F003AE
:1015A000E4B2205C811DC9B24620FEF758FF050059
:1015B00088212800C0B2FEF759FF050001E01F2076
:1015C0000500002080462E00F6B2892E80F2B18000
:1015D000DFF8FC0BE4B28C2101FB0400F6B2305CB6
:1015E000DFF8EC1BE4B28C2202FB0411F6B2711896
:1015F000C978401A00B2FEF729FF0700DFF8D40BC4
:101600000078FFB2B84280F08680DFF8CC0B00781B
:10161000DFF8BC1BE4B28C2202FB0411F6B2715C51
:10162000884278D2DFF8A80BE4B28C2101FB0400D9
:10163000F6B23018C078DFF8A41B097888426AD265
:10164000E4B21F2C2FDBDFF8880BE4B28C2101FB06
:101650000400F6B230180079DFF8801B0978884260
:101660001ED2DFF86C0BE4B28C2101FB0400F6B251
:1016700030184079DFF8641B0978884210D2DFF80F
:10168000500BE4B28C2101FB0400F6B230188079D3
:10169000DFF8481B0978884202D25FF001083AE07F
:1016A0005FF0000837E0E4B2152C21DBDFF8200BF7
:1016B000E4B28C2101FB0400F6B230180079DFF8A7
:1016C0001C1B0978884210D2DFF8040BE4B28C218D
:1016D00001FB0400F6B230184079DFF8001B0978EE
:1016E000884202D25FF0010815E05FF0000812E0C6
:1016F000DFF8DC0AE4B28C2101FB0400F6B23018FA
:101700000079DFF8D81A0978884202D25FF0010820
:1017100001E05FF000085FFA88F8B8F1000F06D02A
:10172000F01CDFF8BC1AE4B2605401200CE0761C17
:101730004AE75FFA88F8B8F1000F04D1FF20DFF81C
:10174000A01AE4B260540020BDE8F08134680000C3
:10175000AC6A00000000F03F2DE9F84304000D00E2
:10176000EDB2B5F10F00042802DA0420070002E010
:10177000B5F10F000700EDB215F10F00892802DB6B
:101780008820060002E015F10F00060000208146C7
:10179000FFB2F6B2B74280F0B280DFF8340AE4B2AA
:1017A0008C2101FB0400FFB2385CDFF8241AE4B29C
:1017B0008C2202FB0411FFB27918C978401A00B2DA
:1017C000FEF744FE8046DFF80C0A00785FFA88F8DE
:1017D000404580F08680DFF8000A0078DFF8F019D5
:1017E000E4B28C2202FB0411FFB2795C884278D209
:1017F000DFF8DC09E4B28C2101FB0400FFB23818E9
:10180000C078DFF8D819097888426AD2E4B21F2C70
:101810002FDBDFF8BC09E4B28C2101FB0400FFB22E
:1018200038180079DFF8B419097888421ED2DFF839
:10183000A009E4B28C2101FB0400FFB23818407902
:10184000DFF898190978884210D2DFF88409E4B2E9
:101850008C2101FB0400FFB238188079DFF87C1975
:101860000978884202D25FF001093AE05FF000098E
:1018700037E0E4B2152C21DBDFF85409E4B28C2107
:1018800001FB0400FFB238180079DFF8501909781D
:10189000884210D2DFF83809E4B28C2101FB040041
:1018A000FFB238184079DFF834190978884202D23B
:1018B0005FF0010915E05FF0000912E0DFF81009A0
:1018C000E4B28C2101FB0400FFB238180079DFF884
:1018D0000C190978884202D25FF0010901E05FF03B
:1018E00000095FFA89F9B9F1000F06D0F81CDFF89A
:1018F000F018E4B2605401200CE07F1C48E75FFA66
:1019000089F9B9F1000F04D1FF20DFF8D418E4B24F
:1019100060540020BDE8F2832DE9F84304000D0077
:101920002600EDB2F6B2B54227D23000C0B2FFF7C2
:1019300024FE0700701EC0B2FFF71FFE8046FFB2F4
:10194000002F18D05FFA88F8B8F1000F13D0DFF835
:101950009008F6B2301810F8010CDFF88418F6B2CF
:10196000715C401A00B2FEF771FD81465FFA89F999
:10197000B9F1060F01DBB61ED3E7EDB2F6B2B54200
:1019800002D23000C0B200E0FF20BDE8F2830000C8
:101990002C21FF1F2DE9F04F85B005000E0000201F
:1019A0000700FF208246FF208DF80400F6B2EDB25A
:1019B000AE4207D32B22DFF8181D002001F072FA87
:1019C000002069E3EDB2F6B2A81B082807DA1E2250
:1019D000DFF8001D002001F065FA00205CE3EDB2A5
:1019E000312D80F21481F6B2022EC0F21081EDB2D8
:1019F000322D0DDADFF8E807EDB2285CFF2805D0BC
:101A0000DFF8DC07EDB2285C824601E06D1CEEE7F2
:101A1000F6B2002E0ED0DFF8C807F6B2305CFF2811
:101A200006D0DFF8BC07F6B2305C8DF8040001E0A8
:101A3000761EEDE75FFA8AFABAF1FF0F03D09DF840
:101A40000400FF2801D1002026E3EDB2F6B2A81B66
:101A500001F080FB03909DF804005FFA8AFA82454A
:101A60005DD29DF804005FFA8AFAB0EB0A0001F03B
:101A700071FB02900298039901F086FB81465FF0AA
:101A80007E508346681E0400E4B2F6B2701C8442A5
:101A9000C0F2FC82DFF84807E4B2205CFF282AD1BC
:101AA000DFF83C07EDB2285CD0F18B0001F052FB6F
:101AB00000904846594601F0E5FB0100009801F00E
:101AC0004DFC002101F0BEFC10D2DFF81407EDB28E
:101AD000285C01F049FB00904846594601F0D2FBD2
:101AE000009901F0C1FC01F001FD00E0FF20DFF8EA
:101AF000F016E4B26054DFF8E806E4B2205CFF2898
:101B000000D17F1C584601F013FD0022DFF8C83BCE
:101B100001F036FD01F0A8FD8346641EB4E79DF890
:101B200004005FFA8AFA50455CD25FFA8AFA9DF89F
:101B30000400BAEB000001F00DFB0290029803993B
:101B400001F022FB81465FF07E508346681E040050
:101B5000E4B2F6B2701C8442C0F29882DFF88006CC
:101B6000E4B2205CFF2829D1DFF87406EDB2285CCE
:101B700001F0FAFA00904846594601F083FB010053
:101B8000009801F0EBFB002101F05CFC11D2DFF8C2
:101B90005006EDB2285C01F0E7FA0090484659463D
:101BA00001F070FB0100009801F0D8FB01F09EFCF1
:101BB00000E0FF20DFF82816E4B26054DFF82006CA
:101BC000E4B2205CFF2800D17F1C584601F0B0FC35
:101BD0000022DFF8043B01F0D3FC01F045FD834611
:101BE000641EB5E7681E0400E4B2F6B2701C8442BD
:101BF000C0F24C82DFF8E805E4B2205CFF2804D193
:101C0000DFF8DC05E4B204F800A0641EECE7EDB2F6
:101C10002E2D80F22981F6B2022E80F2258103203A
:101C20008046EDB2322D0EDADFF8B405EDB2285C55
:101C3000FF2806D0DFF8A805EDB2285C8DF8040077
:101C400001E06D1CEDE75FFA88F858FA85F032285C
:101C500014DADFF88C055FFA88F858FA85F1085C29
:101C6000FF2808D0DFF878055FFA88F858FA85F180
:101C7000085C824602E018F10108E4E75FFA8AFA9C
:101C8000BAF1FF0F03D09DF80400FF2801D1002016
:101C900002E25FFA88F8404601F066FA03909DF888
:101CA00004005FFA8AFA824560D29DF804005FFA68
:101CB0008AFAB0EB0A0001F04DFA029002980399FB
:101CC00001F062FA81465FF07E508346681E040090
:101CD000E4B2F6B2B442C0F0D981DFF80405E4B250
:101CE000205CFF282AD1DFF8F804EDB2285CD0F19F
:101CF0008B0001F02FFA00904846594601F0C2FAD5
:101D00000100009801F02AFB002101F09BFB10D29A
:101D1000DFF8CC04EDB2285C01F026FA00904846CA
:101D2000594601F0AFFA009901F09EFB01F0DEFB8D
:101D300000E0FF20DFF8A814E4B26054DFF8A0044C
:101D4000E4B2205CFF2800D17F1C584601F0F0FB74
:101D50000022DFF8843901F013FC01F085FC834692
:101D6000E4B2002C00F09281641EB1E79DF80400FB
:101D70005FFA8AFA50455FD25FFA8AFA9DF804004A
:101D8000BAEB000001F0E6F902900298039901F025
:101D9000FBF981465FF07E508346681E0400E4B282
:101DA000F6B2B442C0F07281DFF83404E4B2205CD1
:101DB000FF2829D1DFF82804EDB2285C01F0D4F91E
:101DC00000904846594601F05DFA0100009801F084
:101DD000C5FA002101F036FB11D2DFF80404EDB2A0
:101DE000285C01F0C1F900904846594601F04AFAD2
:101DF0000100009801F0B2FA01F078FB00E0FF204A
:101E0000DFF8DC13E4B26054DFF8D403E4B2205C02
:101E1000FF2800D17F1C584601F08AFB0022DFF822
:101E2000B83801F0ADFB01F01FFC8346E4B2002C92
:101E300000F02C81641EB2E7681E0400E4B2F6B222
:101E4000B442C0F02381DFF89803E4B2205CFF289D
:101E500004D1DFF88C03E4B204F800A0E4B2002C53
:101E600000F01481641EE9E7EDB2312DC0F20E815D
:101E7000F6B2052EC0F20A8103208046F6B2002E8B
:101E80000BD0D748F6B2305CFF2804D0D448F6B265
:101E9000305C824601E0761EF0E7F6B25FFA88F821
:101EA000B6EB0800012815DBCD48F6B25FFA88F8DA
:101EB000B6EB0801085CFF2809D0C948F6B25FFA02
:101EC00088F8B6EB0801085C8DF8040002E018F110
:101ED0000108E2E75FFA8AFABAF1FF0F03D09DF832
:101EE0000400FF2801D10020D6E05FFA88F84046C0
:101EF00001F03AF903909DF804005FFA8AFA8245EE
:101F000056D29DF804005FFA8AFAB0EB0A0001F09D
:101F100021F902900298039901F036F981465FF0A9
:101F20007E508346701C0400EDB2E4B2A542C0F0BE
:101F3000AD80AB48E4B2205CFF2826D1A848F6B2B9
:101F4000305C01F011F900904846594601F09AF9C9
:101F50000100009801F002FA002101F073FA10D29A
:101F60009F48F6B2305C01F0FFF8009048465946B1
:101F700001F088F90100009801F0F0F901F0B6FADB
:101F800000E0FF209649E4B260549548E4B2205C3A
:101F9000FF2800D17F1C584601F0CAFA0022DFF862
:101FA000383701F0EDFA01F05FFB8346641CBBE7B4
:101FB0009DF804005FFA8AFA504556D25FFA8AFA11
:101FC0009DF80400BAEB000001F0C4F802900298FA
:101FD000039901F0D9F881465FF07E508346701C6A
:101FE0000400EDB2E4B2A54250D37D48E4B2205CD7
:101FF000FF2827D17A48F6B2305CD0F18B0001F08F
:10200000A9F800904846594601F03CF901000098B3
:1020100001F0A4F9002101F015FA0FD27048F6B2D0
:10202000305C01F0A1F800904846594601F02AF9C9
:10203000009901F019FA01F059FA00E0FF2068490F
:10204000E4B260546648E4B2205CFF2800D17F1CF3
:10205000584601F06DFA0022DFF87C3601F090FA64
:1020600001F002FB8346641CBBE72C00E4B2F6B22D
:10207000701C84420ADB5A48E4B2205CFF2803D17A
:102080005748E4B204F800A0641EEFE7FFB2102F37
:1020900001DB002000E0012005B0BDE8F08F2DE954
:1020A000F84304000D005FF000092900C9B22000C8
:1020B000C0B2FFF731FC0600F6B2FF2E07D12900AF
:1020C000C9B22000C0B2FFF765FC814671E0444808
:1020D000F6B2315C701EC0B2FFF73EFB070040480D
:1020E000F6B2315CB01EC0B2FFF736FB8046FFB2DD
:1020F000002F20D05FFA88F8B8F1000F1BD029001C
:10210000C9B2B01EC0B2FFF7CAFF07003100C9B2A2
:102110002000C0B2FFF7C3FF8046FFB2002F07D0F8
:102120005FFA88F8B8F1000F02D05FF0010940E0D3
:102130005FF000093DE02648F6B28C2101FB060065
:102140002749F6B2715CFE220A542148F6B28C216E
:1021500001FB06002249F6B2711811F8011C08189B
:10216000FE2100F88C1C1A48F6B28C2101FB0600F7
:102170001B49F6B2711811F8021C0818B0F58C70E2
:10218000FE210170FF201649F6B27054FF20144959
:10219000F6B2711801F8010CFF201149F6B271185E
:1021A00001F8020C2900C9B22000C0B2FFF777FF86
:1021B00081465FFA89F9B9F1000F01D0012000E0F2
:1021C0000020BDE8F28300001D3DFF1F1B3DFF1FE7
:1021D000A005FF1F5A04FF1F5904FF1F5804FF1FCB
:1021E0006021FF1F2DE9F84F5FF0000AFF208DF8F6
:1021F0000000FF208046FF2081460E213120FFF79E
:102200008BFB0400E4B2FF2C12D1002083465FFA5E
:102210008BFBBBF1320F09DAFF20DFF898185FFA69
:102220008BFB0BF801001BF1010BF0E700209CE198
:10223000A3465FFA8BFBBBF12A0F01DA8DF800B0E1
:10224000DFF870085FFA8BFB1BF80000DFF86418FA
:102250005FFA8BFB1BEB010111F8011C081802212E
:1022600090FBF1F00400BBF1020B5FFA8BFBBBF1BA
:10227000000F00F019812100C9B25846C0B2FFF723
:102280006BFA05002100C9B2BBF10100C0B2FFF733
:1022900063FA0600EDB2002D16D0F6B2002E13D070
:1022A000DFF810085FFA8BFB1BF80000DFF804185A
:1022B0005FFA8BFB1BEB010111F8011C08180221CE
:1022C00090FBF1F00400E7E0EDB2002D34D1F6B25E
:1022D000002E31D0DFF8DC075FFA8BFB1BEB000030
:1022E0004078DFF8D0175FFA8BFB1BEB010111F888
:1022F000011C51FA80F0022190FBF1F004005846D5
:10230000C0B2FFF73AF90500EDB2002D00F0C4802D
:10231000DFF8A0075FFA8BFB1BF80000DFF89417CB
:102320005FFA8BFB1BEB010111F8011C081802215D
:1023300090FBF1F00400AFE0EDB2002D33D0F6B227
:10234000002E30D1DFF86C075FFA8BFB1BEB00002F
:102350004078DFF860175FFA8BFB1BF8011051FA29
:1023600080F0022190FBF1F00400BBF10100C0B24B
:10237000FFF703F90600F6B2002E00F08D80DFF8BB
:1023800034075FFA8BFB1BF80000DFF828175FFAB1
:102390008BFB1BEB010111F8011C0818022190FBBB
:1023A000F1F0040078E05846C0B2FFF7E6F8050007
:1023B000BBF10100C0B2FFF7E0F80600EDB2002D5E
:1023C00016D0F6B2002E13D0DFF8E8065FFA8BFBCA
:1023D0001BF80000DFF8DC165FFA8BFB1BEB01013A
:1023E00011F8011C0818022190FBF1F004002EE006
:1023F000EDB2002D13D0DFF8BC065FFA8BFB1BEBB0
:1024000000004078DFF8AC165FFA8BFB1BF8011078
:1024100051FA80F0022190FBF1F0040017E0F6B2CF
:10242000002E14D0DFF88C065FFA8BFB1BEB00004C
:102430004078DFF880165FFA8BFB1BEB010111F887
:10244000011C51FA80F0022190FBF1F00400EDB282
:10245000002D21D1F6B2002E1ED1DFF858065FFA0A
:102460008BFB1BEB00004078FF2808D0DFF8440608
:102470005FFA8BFB1BEB00008078FF280CD15FFA22
:102480008AFABAF1000F02D11BF103008046BBF1BA
:10249000010081461AF1020A5FFA8BFBBBF1010FC2
:1024A00002D0BBF1020BE0E65FFA8AFABAF1080F3C
:1024B00003DB0120DFF8001608705FFA8AFABAF130
:1024C000240F01DB002050E0DFF8EC050078002845
:1024D00005D19DF80000FF2801D101200700DFF899
:1024E000D8050078002819D04946C9B20220FDF766
:1024F000B6FF81465FFA89F9B9F1050F06DA0021C6
:102500004046C0B2FFF746FA070009E04946C9B2A3
:102510004046C0B2FFF7C3FD070001E001200700FD
:102520009DF80000FF2816D00120DFF88C150870F8
:102530009DF800103120FFF72DFA8DF80100FFB251
:10254000002F06D09DF80100002802D001200700CE
:1025500001E000200700FFB2002F03D00120DFF8C8
:10256000CC150870DFF8C4050078BDE8F28F80B59F
:10257000FEF705F8FDF7AEFFFEF73AFEDFF8B015FF
:102580000870FFF72FFEDFF8A4150870DFF8A0052C
:102590000078002806D0DFF894050078002801D0E4
:1025A000032094E0DFF88805007800281AD1DFF8CE
:1025B0007C050078002815D0FDF7E1FFFEF718FE36
:1025C000DFF86C150870DFF868050078002807D17F
:1025D0001622DFF86015002000F064FC022076E08F
:1025E000032074E0DFF84405007800281AD1DFF8F2
:1025F00040050078002815D0FDF7C1FFFFF7F2FD78
:10260000DFF828150870DFF824050078002807D1C6
:102610001722DFF82415002000F044FC012056E0CA
:10262000032054E0DFF804050078002848D1DFF8E3
:1026300000050078002843D1FDF7A1FFFEF7D8FD83
:10264000DFF8EC140870FFF7CDFDDFF8E014087038
:10265000DFF8DC04007800280CD1DFF8D004007823
:10266000002807D11522DFF8D414002000F01AFC4E
:1026700000202CE0DFF8B404007800280CD1DFF84B
:10268000B0040078002807D01722DFF8B414002027
:1026900000F008FC01201AE0DFF89404007800281C
:1026A0000CD1DFF888040078002807D01622DFF864
:1026B0008414002000F0F6FB022008E0032006E06E
:1026C0001122DFF8D415002000F0ECFB002002BD41
:1026D00060680000AC6900000000F03FFEB4002616
:1026E000350000263400E4B20B2C0BDAE4B2265C91
:1026F000FF2E05D0E4B2265C00AFEDB2EE556D1CA6
:10270000641CF0E700263400E4B2EDB2AC4220D203
:10271000220000263100E4B2C9B28C420AD300AED6
:10272000C9B28E5D00AFD2B2D75DBE4200D20A0000
:10273000491CF0E700AEE4B2A65D330000AED2B2B1
:10274000965D00AFE4B2E65500AED2B29355641C7C
:10275000DAE7EDB2022695FBF6F5285CFEBC704781
:102760003EB40300002001005879FF2801D1FF206A
:1027700029E000200200D2B20B2A0BDAD2B2D05CE0
:10278000FF2805D0D2B2D05C00ADC9B24855491C73
:10279000521CF0E7C9B2092901DA587913E0002088
:1027A000040000200200D2B2C9B28A4206D200A8B8
:1027B000D2B2105C54FA80F4521CF4E7C9B2B4FBF4
:1027C000F1F42000C0B23EBC70472DE9F843DFF8B9
:1027D000CC0400788146FFF7CAFE0400E4B2002C66
:1027E0000DD131200600F6B2002E06D0FF20DFF812
:1027F000B014F6B27054761EF5E7002057E1E4B24B
:10280000012C06D0E4B2022C03D0E4B2032C40F039
:10281000DB800020050031200600F6B2002E00F01B
:10282000D080DFF88004F6B2305C0700DFF8840265
:10283000F6B2305C8046FFB2FF2F1AD05FFA88F8FC
:10284000B8F1FF0F15D05FFA88F858FA87F0022127
:1028500090FBF1F0DFF84814F6B27054F6B2302E67
:10286000C0F2A580DFF83804F6B2305CC01B8146A8
:102870009DE0FFB2FF2F32D15FFA88F8B8F1FF0F69
:102880002DD0F6B2302E1FDADFF81404F6B230186D
:102890004078FF2818D0DFF81C02F6B230184078D4
:1028A000FF2811D0DFF80C02F6B230184078B8EBF0
:1028B0000000DFF8EC13F6B2711849780818DFF859
:1028C000E013F6B2705472E0DFF8D003F6B2305C79
:1028D000B8EB0000DFF8C813F6B2705467E0FFB23F
:1028E000FF2F30D05FFA88F8B8F1FF0F2BD1F6B286
:1028F000302E1EDADFF8A803F6B230184078FF2831
:1029000017D0DFF8A003F6B230184078FF2810D0B7
:10291000DFF88C03F6B230184078C019DFF8841362
:10292000F6B271184978401ADFF87413F6B2705491
:102930003DE0DFF86803F6B2305CC019DFF86013E1
:10294000F6B2705433E0F6B2302E1EDADFF85003E0
:10295000F6B230188078FF2817D0DFF84403F6B2BB
:1029600030184078FF2810D0DFF83403F6B2301862
:102970004078DFF82C13F6B271188978D1EB40005B
:10298000DFF81C13F6B2705411E0F6B2302E08DBFB
:10299000DFF80803F6B2305CDFF80413F6B27054C7
:1029A00005E0FF20DFF8F812F6B270546D1CEDB2AE
:1029B000032D04DBF6B22D2E01DB002077E0761E1E
:1029C0002BE70020060007E01722DFF8DC120020CA
:1029D00000F068FA00206AE0F6B2322E0EDA8B229E
:1029E0000021DFF8BC02F6B2305C80B2FDF746FD94
:1029F000DFF8AC12F6B27054761CEDE7302006001A
:102A0000F6B2002E23D0DFF89802F6B2305CFF2831
:102A10001BD0DFF88C02F6B230184078FF2814D0B3
:102A2000DFF87C02F6B2305CDFF87412F6B271188F
:102A30004978401A00B2FDF709FD072805DB6D1C37
:102A4000FF20DFF85C12F6B27054761ED8E7EDB2C4
:102A50002D2D07DB1722DFF85412002000F022FA98
:102A6000002024E02C200600F6B2052E0CDBDFF857
:102A70003002F6B23018401FFFF730FEDFF82012A8
:102A8000F6B27054761EEFE72C200600F6B2052E43
:102A90000CDBDFF80C02F6B23018401FFFF760FEC7
:102AA000DFF8FC11F6B27054761EEFE70120BDE8A6
:102AB000F28300006021FF1F1E3DFF1F10B40022A3
:102AC0001000C0B232282FDA00221100C9B28C29BE
:102AD00028DA774AC0B28C2303FB0022C9B28A5C91
:102AE000FF2A0ED0734AC0B28C2303FB0022C9B266
:102AF0006F4BC0B28C2404FB0033C9B2CB5C8B5447
:102B00000EE06C4AC0B28C2303FB0022C9B2684BB2
:102B1000C0B28C2404FB0033C9B2CB5C5B1E8B5467
:102B2000491CD3E7401CCCE710BC70471C3DFF1F7D
:102B30001B3DFF1F7C6B0000C86A0000946B000007
:102B4000CC69000010B5FFF7B9FFFFF73EFE5A4908
:102B5000087059480078002800F09B800020322837
:102B600080F295804F49415CFF2903D15349415C74
:102B7000FF2973D04B49415CFF292BD04F49415C61
:102B8000FF2927D00021474A825C914207DA0022C0
:102B9000484B8C2404FB0033CA54491CF3E74149D9
:102BA000415C464A825C914207DAFE22414B8C240A
:102BB00004FB0033CA54491CF3E78B213F4A825C73
:102BC0008A4256DA00223B4B8C2404FB0033CA5461
:102BD000491EF3E73349415CFF291DD03749415C69
:102BE000FF2919D100212F4A825C8A4207DB00228B
:102BF000304B8C2404FB0033CA54491CF3E78B216F
:102C0000284A825C8A4234DAFE222A4B8C2404FB56
:102C10000033CA54491EF3E72249415CFF2928D1F9
:102C20002649415CFF2924D08B21244A825C8A42B8
:102C300007DA00221F4B8C2404FB0033CA54491EC0
:102C4000F3E700211D4A825C8A4212DBFE22194B07
:102C50008C2404FB0033CA54491CF3E700218C295F
:102C600007DAFE22134B8C2404FB0033CA54491CA0
:102C7000F5E70B49415CFF2907D00E498C2202FB86
:102C80000011074A825C00235354401C67E701206F
:102C900000E0002010BD0000146D0000D0670000AF
:102CA000F820FF1F2C21FF1FAC6B0000C46B00003D
:102CB0009421FF1FA005FF1F1A3DFF1F6021FF1F6A
:102CC000F0B4C0B2002808D0022824D014D30428BD
:102CD0003FD02FD305284BD059E04FF44076814F99
:102CE0003E604FF44076804F3E60804E366856F42A
:102CF00080667E4F3E604AE04FF440767C4F3E60F7
:102D00004FF440767B4F3E60784E366856F400664E
:102D1000764F3E603BE04FF44076774F3E604FF495
:102D20004076764F3E60714E366856F480566F4F4F
:102D30003E602CE04FF44076714F3E604FF4407699
:102D4000704F3E60694E366856F40056674F3E60DD
:102D50001DE04FF440766C4F3E604FF440766B4F71
:102D60003E606B4E366856F48066694F3E600EE0FA
:102D70004FF44076674F3E604FF44076664F3E60BA
:102D8000634E366856F40066614F3E60FFE7634E5F
:102D9000C0B256F82060F67816F0F3065F4FC0B266
:102DA00057F82070FE7000265C4FC0B257F82070B4
:102DB000BE70C0B2002801D1012600E00026C0B2DA
:102DC000012801D1012700E00027F6B2FFB23E43FF
:102DD000002E06D0524E36684FF47A777E43350087
:102DE00005E0504E36684FF47A777E4335000E0189
:102DF000B5FBF6F63200494EC0B256F82060367880
:102E000016F0E006340092B2160A16F01F062643AA
:102E1000424FC0B257F820703E70404EC0B256F8D4
:102E2000206072706E010F01B6FBF7F692B2B6EB3E
:102E300042163300394EC0B256F82060B67A16F00A
:102E4000E006340013F01F062643344FC0B257F893
:102E50002070BE72314EC0B256F82060F67856F03F
:102E60000C062E4FC0B257F82070FE70F0BC7047B1
:102E70002A49C0B251F8201009798906F8D52749A6
:102E8000C0B251F82000C0797047244AC0B252F84D
:102E9000202012791206F8D5204AC0B252F820201C
:102EA000D1717047F8B504000D001600002007002E
:102EB000B6B2B74206DA795D2000C0B2FFF7E5FF8F
:102EC0007F1CF5E7F1BD38B504000D002878002817
:102ED00006D029782000C0B2FFF7D7FF6D1CF5E7B8
:102EE00031BD000040A0044044A0044034800440B0
:102EF0000CB0044010B004400CC0044008C00440B2
:102F000040B0044044B0044064D0044060D0044069
:102F10002880044024D0044020D004403805FF1FFE
:102F2000EC3CFF1FF43CFF1F010000BF09D0B0FACA
:102F300080F18840C91CC1F58461090501EBD021ED
:102F400040057047B0B581EA030C0CF0004C40F22C
:102F5000FF7515EA11541DBF15EA1357AC42AF4275
:102F600039E0E41923EA455343F48013C90241F0E0
:102F7000004141EA505EC7021100A7FB020200288F
:102F80004FF00000EEFB01204FF00001E3FB0721B2
:102F900018BF42F00102401800214941E3FB0E0135
:102FA000A4F580640F0302D252004041494154F11C
:102FB00001046CDD470872F1004250F1000051EB52
:102FC0000451A1F580115CBF41EA0C01B0BD4CEA8F
:102FD00005510020B0BD05EA1357AC4214BFAF4203
:102FE00041E050EA410E1CBF52EA430E02E0614646
:102FF0000020B0BD24423C441BD15FEA070EF6D04E
:10300000090302BF01460020AEF1140EB1FA81F7A8
:10301000AEEB070401FA07FE0C37C7F1200100FAF6
:1030200007F7C8404EEA000E23EA455343F48013E5
:10303000A2E733F00043B3FA83F704BFB2FA82FE8B
:1030400077440B3FE41BB7F1200E2FBF02FA0EF3BB
:10305000BB40C7F1200E22FA0EFE38BF43EA0E0332
:10306000BA40641C82E750EA410E14BF52EA430E94
:103070006FF000014FF4001717EB430F8ABF19469A
:1030800017EB410FB5E74CEA05510020B0BDD4F174
:103090000104B4F120070FDAC4F12007520828BF59
:1030A00042F0010210FA07F501FA07F7E1BF2A43DF
:1030B000E0403843E1400FE0352C98DCC7F12004B4
:1030C00052EA400220FA07F218BF42F0010231FA38
:1030D00007F0A1400A43002172F1004250F10000C4
:1030E00051EB0C01B0BD50F8041B61B150F8042B3A
:1030F000D30744BFA9F101039A18002342F8043B07
:10310000091FFAD1EFE77047F446400D40EAC120AD
:10311000490006D200F00EF8004248BF6FF00040B0
:10312000604700F007F84FF0004188428CBF084626
:103130004042604740F00040490DA1F58061491CC4
:1031400005D4D1F11F0154BFC840C01770474FF0DC
:1031500000007047002840F10980F446404200F02A
:1031600005F850F000406047002800BF0AD0B0FAD0
:1031700080F18840D1F19D01C905020672F100423B
:1031800041EB10207047000010B5FF2313EAD05424
:103190001DBF13EAD1529C429A4239E0A41ADA07C1
:1031A00080EA0103134042EA012142EA0020421A68
:1031B0003CBF641E01EB4202090AB2FBF1FE01FBB7
:1031C0001E221202B2FBF1F001FB10226EF30F205F
:1031D0001202B2FBF1FE4EEA00207F3406DDFE2C27
:1031E00024DA53EA500050EBC45010BDD4F102046D
:1031F00001FB1E2240F08071192C1DDC21FA04F025
:10320000C4F12004A140114371F10042584110BDA6
:103210009C421ABF03EAD1529A420FE080EA010EA3
:103220000EF00043400004D0490016D143F0FF40A7
:1032300010BD490008BFD343180010BD9C4205D102
:10324000D21AF7D001F00041484010BD4A0212BF27
:103250000846484000F0004010BD4AB90902B1FAE2
:1032600081F2914044B1A418C00140F000409EE7B3
:10327000C90141F0004152420002B0FA80F4A0407E
:10328000141B94E7FF2212EAD05C1DBF12EAD1534F
:10329000944593422BE09C44D30780EA01021A40F4
:1032A00043EA002043EA0121A1FB0030410038BF7E
:1032B00040007CF17F010BDBFE294ADA5B0842EA21
:1032C000C15153EA006373F1004C51EB1020704779
:1032D000D1F1080CDCF120012FDB5B0810FA01F1C1
:1032E0000B4373F1004120FA0CF0504170479445B4
:1032F0001CBF02EAD153934280EA010202F000426D
:103300001DD0400019D0490017D05BB9634514D0D7
:103310000902B1FA81F39940BCEB030CC00140F003
:103320000040C1E70002B0FA80FC10FA0CF0B3EBE9
:103330000C0CC90141F00041B6E710007047400095
:103340000AD0490008D010F1807F94BF11F1807F2E
:1033500002E042F0FF407047D043704790EA010F0F
:1033600044BF81F0004100F087B800BF431A4FF01E
:1033700000423EBF5340C01AC91800BFD3095FEADC
:10338000D05C13EB400F34BFB3EB410F40E07CEB5C
:10339000D1530CD342EA012122D8D1EB402009D3EA
:1033A000400A28BF5FEA500140EBCC507047401AFA
:1033B00015D04002B0FA80F2521C9040400A4FEA09
:1033C0003C23B3EB026384BF00EB730007E040F4DF
:1033D00000001A16DB07C2F10102D0401843704703
:1033E000182BFCDC31FA03F202FA03F3591A38BF46
:1033F00042F00102D2EB40203CBF4000ACF1010C96
:103400005FEACC5CC20572F100414CEB5020704782
:1034100013EB400F0FD24B0009D0ACEBD153022B72
:1034200003DB4902172BDDDD70479143401A43004F
:10343000D5D10020704713EB410FD0D36FF00000BF
:10344000704700004FF0807C1CEB400F94BF1CEBDA
:10345000410F05E040EA010C5FEA4C0C01D28142C9
:10346000704718BF8842704790EA010F44BF81F04F
:103470000041FFF77BBF00BF421A3CBF801A89188A
:103480004FF0004CC0F3C752FF2A24D0C1F3C753FA
:1034900013B3D21AD2F1190327DD4CEA01214CFAF9
:1034A00003F321EA0303D140C20D4CEA0020401887
:1034B00034BF20EA0C004CEA5000D20553EA006306
:1034C00073EB0C0C52EB1020420012F1807F38BFDE
:1034D0007047C00DC0057047490212BF9A4200EB09
:1034E0005120F8E7D2F11703D9D570474100090EF2
:1034F0007F3915D4D1F11F0114D4400007D2C00187
:1035000040F00040C84048BF6FF000407047C00125
:1035100040F00040C8404CBF4FF000404042704770
:103520000020704700424FF0004058BFC043704732
:103530005FF0FF0C1CEAD05114BF614506E0C110DA
:10354000400721F0E04101F16051704779B900F086
:10355000004100020AD0B0FA80FC00FA0CF001F140
:103560006051A1EB0C5101EBD021400570474102A5
:103570000CBF40F4E0016FF0000100207047000034
:1035800070B44FF0004591EA030C44BF6B4000F06B
:10359000B3B800BF841A71EB030603D2001BB1411C
:1035A000121973414FF4001C1CEB410F34BF7CEB2C
:1035B000430443E00C0DA4EB1356352E50DC45EAD2
:1035C000C323DB0A45EAC121C912B6F120050DDD8E
:1035D00063FA05F6EB4086EA0305124218BF45F090
:1035E0000105C01851F100010CD213E062FA06F592
:1035F000F2405540F3415A40B340F3405A408018DE
:10360000594107D349085FEA30005FEA350528BF12
:1036100045F0010501F58011420875F1004250F1B5
:10362000000041EB045170BC4FF4001C1CEB410F37
:1036300038BF70470020090D090570471CEB410F8A
:1036400010D252EA43060BD0BCEB410F05D80C0D4B
:10365000AB43661E342EB5DD02E0AB438018594102
:1036600070BC704770BC70474FEAF17CBCF1E04C15
:103670002CBFBCF5001F11E05FEA4C0C34BFBCF15D
:103680007F5F2EE05FEA9C0C4FEA0C1C4FEA3C0C7B
:10369000C10071F100414CEB50707047C90241EA22
:1036A0005051C00218BF41F0010141F000414FEA02
:1036B0006C50C0F10900212810D240EACC7CCCF13A
:1036C000200C11FA0CF070F10040CCF1200C21FA22
:1036D0000CF00CF0004C40EB0C0070474FEACC7043
:1036E0007047490011F5001F04D84FEACC10FF3095
:1036F000C0057047C8177047841A71EB030604D2DF
:103700006E40001BB141121973414FF4001C1CEBB9
:10371000410F34BF7CEB430684E00C0DA4EB135641
:10372000362E7DDC012E43DC45EAC32343EA5253A7
:1037300012BFD20292025B08240545EAC12141EA88
:103740005051D2EBC020994125D407D1B0FA80F670
:1037500010FA06F164D00020203608E0B1FA81F6B4
:10376000B140C6F1200220FA02F21143B0404FEA04
:10377000F474B4EB465434F001064FEA74040AD8EA
:10378000D6F50016760D04F00044F04061FA06F21A
:103790005040F1404840C00A40EA415021F0004109
:1037A00028BF5FEA500550F1000044EBD12137E01B
:1037B00045EAC323DB0A45EAC121C90AB6F120055F
:1037C0000EDD42EA0242120CC5F1200603FA06F6AB
:1037D000EB4042EA06056D42984161F100010DE0BF
:1037E00062FA06F5F240554063FA06FC82EA0C02E2
:1037F000F3405A406D42904161EB030111F4801F88
:1038000005D1641E620502D06D004041494121F49A
:103810008011430875F1004350F1000041EB045161
:1038200070BC70471CEB410F15D223F0004352EAE5
:1038300043060BD04FEA4C0CBCEB410F04D80C0DE7
:10384000661E342EB7DDEBE7801A994150EA410637
:1038500008BF0021E4E708BF1CEB430F28BF6FF04F
:103860000001DDE72DE9F84F04000D0016001F00F0
:10387000DFF8B80600684FF47A7148435FEA5008F1
:10388000E4B2002C0DD0E4B2012C02D0E4B2022C40
:1038900002D1EDB2022D04DB3821DFF8940600F0EE
:1038A00069FB5FEA5800B04204D23921DFF8800694
:1038B00000F060FB5FEA1840B0FBF6F081460020A4
:1038C00082461FFA89F959FA0AF0012802DB1AF137
:1038D000010AF6E7B6F57A7F01D21AF1010A38FA41
:1038E0000AF0B0FBF6F081461FFA89F919F10100E0
:1038F00000FB07F04FF47A71B0FBF1F08346E4B2BD
:10390000002C05D0022C00F0B880C0F08A80E0E0E6
:10391000DFF82006006850F08070DFF818160860A5
:10392000EDB2002D0BD0022D25D016D3042D3ED0A4
:103930002FD3062D57D048D3072D62D06FE0DFF884
:10394000F805006850F40060DFF8EC1508604FF4EB
:103950008060DFF8E815086062E0DFF8DC050068E9
:1039600050F40060DFF8D01508604FF48060DFF895
:10397000D015086054E0DFF8C005006850F400601E
:10398000DFF8B41508604FF48060DFF8B815086000
:1039900046E0DFF8A405006850F40060DFF89815F1
:1039A00008604FF48060DFF8A015086038E0DFF8A9
:1039B0008805006850F48050DFF87C1508604FF4EB
:1039C0008060DFF8881508602AE0DFF86C05006881
:1039D00050F48050DFF8601508604FF48060DFF825
:1039E000701508601CE0DFF85005006850F4805046
:1039F000DFF8441508604FF48060DFF85815086060
:103A00000EE0DFF83405006850F48050DFF8281528
:103A100008604FF48060DFF84015086000E0ACE01B
:103A200057E0DFF81005006850F00070DFF804156B
:103A30000860EDB2002D02D0012D0ED01BE0DFF8A2
:103A4000F804006850F40070DFF8EC1408604FF4DC
:103A50004070DFF8081508600EE0DFF8DC0400684D
:103A600050F40070DFF8D01408604FF44070DFF8B5
:103A7000F014086000E080E02BE0DFF8E804006864
:103A800050F08070DFF8DC140860EDB2002D02D039
:103A9000012D0ED01BE0DFF8A004006850F4007088
:103AA000DFF8941408604FF44070DFF8BC1408602D
:103AB0000EE0DFF88404006850F40070DFF878143A
:103AC00008604FF44070DFF8A414086000E054E090
:103AD000FFE7DFF89C04E4B250F82400EDB210EBED
:103AE000C500DFF88C14E4B251F82410EDB211EBEC
:103AF000C501C96831F00401C160DFF87404E4B2A3
:103B000050F82400EDB210EBC5002821C1605FFA27
:103B10008AFA1AF0070050F02800DFF85414E4B2D3
:103B200051F8241008600020DFF84414E4B251F882
:103B30002410C8641FFA89F9DFF83404E4B250F89D
:103B40002400C0F808900020DFF82414E4B251F8F3
:103B50002410C864DFF81804E4B250F82400EDB271
:103B600010EBC5001FFA8BFBC0F810B00020DFF887
:103B70000014E4B251F824104860BDE8F18F2DE93B
:103B8000F04104000D001600E4B2002C0ED0E4B2A7
:103B9000012C02D0E4B2022C02D1EDB2022D05DBE1
:103BA00040F26711DFF8880300F0E4F9B6F57A7F98
:103BB00005D94FF4B471DFF8780300F0DBF9DFF8D2
:103BC000B003E4B250F824008068804618F1010088
:103BD00000FB06F04FF47A71B0FBF1F00700DFF85C
:103BE0009003E4B250F82400EDB210EBC500076179
:103BF000BDE8F08170B504000D001600E4B2002CA1
:103C00000ED0E4B2012C02D0E4B2022C02D1EDB20B
:103C1000022D05DB4FF4D671DFF8140300F0AAF98A
:103C2000E4B2002C05D0022C00F0B880C0F08A80ED
:103C3000E0E0DFF80003006850F08070DFF8F41275
:103C40000860EDB2002D0BD0022D25D016D3042D27
:103C50003ED02FD3062D57D048D3072D62D06FE02A
:103C6000DFF8D402006850F40060DFF8CC1208607E
:103C70004FF48060DFF8C412086062E0DFF8B80239
:103C8000006850F40060DFF8B01208604FF4806004
:103C9000DFF8AC12086054E0DFF89C02006850F4D2
:103CA0000060DFF8941208604FF48060DFF894122F
:103CB000086046E0DFF88002006850F40060DFF83A
:103CC000781208604FF48060DFF87C12086038E0FA
:103CD000DFF86402006850F48050DFF85C1208607E
:103CE0004FF48060DFF8641208602AE0DFF84802D1
:103CF000006850F48050DFF8401208604FF4806094
:103D0000DFF84C1208601CE0DFF82C02006850F469
:103D10008050DFF8241208604FF48060DFF834121E
:103D200008600EE0DFF81002006850F48050DFF801
:103D3000081208604FF48060DFF81C12086000E091
:103D4000F2E057E0DFF8EC01006850F00070DFF8B7
:103D5000E4110860EDB2002D02D0012D0ED01BE061
:103D6000DFF8D401006850F40070DFF8CC1108606F
:103D70004FF44070DFF8E41108600EE0DFF8B8019E
:103D8000006850F40070DFF8B01108604FF4407024
:103D9000DFF8CC11086000E0C6E02BE0DFF8C401DA
:103DA000006850F08070DFF8BC110860EDB2002DA3
:103DB00002D0012D0ED01BE0DFF87C01006850F42A
:103DC0000070DFF8741108604FF44070DFF898114C
:103DD00008600EE0DFF86001006850F40070DFF862
:103DE000581108604FF44070DFF88011086000E05F
:103DF0009AE0FFE7F6B2002E03D0022E3BD01DD38F
:103E000055E0DFF86C01E4B250F82400C06850F0CF
:103E10004400DFF85C11E4B251F82410C860DFF808
:103E20005001E4B250F82400C06830F03800DFF8E8
:103E30004011E4B251F82410C86038E0DFF83001D6
:103E4000E4B250F82400C06850F04800DFF82011B8
:103E5000E4B251F82410C860DFF81401E4B250F85D
:103E60002400C06830F03400DFF80411E4B251F8E7
:103E70002410C8601BE0DFF8F800E4B250F824001A
:103E8000C06850F04C00DFF8E810E4B251F824109C
:103E9000C860DFF8DC00E4B250F82400C06830F0FD
:103EA0003000DFF8CC10E4B251F82410C8600820CC
:103EB000DFF8BC10E4B251F824100860DFF8B0005D
:103EC000E4B250F82400406D50F00400DFF8A01078
:103ED000E4B251F8241048650020DFF89410E4B2F1
:103EE00051F824104866DFF88800E4B250F8240046
:103EF000406D40084000DFF87810E4B251F824101B
:103F000048650020DFF86810E4B251F82410C86456
:103F10000020DFF85C10E4B251F824100865E4B228
:103F200014F13E0000F035F870BD0000F43CFF1FB6
:103F3000546900003C8004403880044004B00440D0
:103F400008B004400CB0044010B0044010C004405D
:103F500014C0044018C004401CC004403090044009
:103F60002490044030800440289004402C90044069
:103F70002404FF1F38B504000D002A002100024868
:103F800000F035FBF9E700BF8C6600003D49086092
:103F9000704738B504005C2C02DB3B4800F027FB7F
:103FA000202094FBF0F00500002D03D0022D27D037
:103FB00013D337E00120202194FBF1F202FB1142E0
:103FC0009040324908600120202194FBF1F202FB6D
:103FD000114290402E49086024E00120202194FBEA
:103FE000F1F202FB114290402A4908600120202191
:103FF00094FBF1F202FB114290402749086011E066
:104000000120202194FBF1F202FB11429040234950
:1040100008600120202194FBF1F202FB1142904044
:104020001F49086031BD38B504005C2C02DB1D4817
:1040300000F0DDFA202094FBF0F00500002D03D005
:10404000022D15D00AD31CE00120202194FBF1F2AF
:1040500002FB114290401449086012E00120202127
:1040600094FBF1F202FB114290401049086008E015
:104070000120202194FBF1F202FB114290400C49F7
:10408000086031BD08ED00E09867000080E200E0C4
:1040900000E100E084E200E004E100E088E200E00A
:1040A00008E100E05C67000080E100E084E100E0FE
:1040B00088E100E070B504000D00160030680128AA
:1040C00002D0022805D00AE02000C0B271688847FB
:1040D00005E0B0680470B068401CB060FFE7286875
:1040E000401C286070BD2DE9F04704005FF0000A15
:1040F0005046A1465FF0000A89F800A019F10109B5
:10410000002A1FD0D1F800A05546002D05D15FF040
:10411000300A89F800A0401C38E0002D36D095FB0D
:10412000F3FA564603FB165A5746002F02D5FF43B3
:10413000313700E03037350089F8007019F1010996
:10414000401CEAE7D1F800A0D446BCF1000F05D12D
:104150005FF0300A89F800A0401C17E0BCF1000FA6
:1041600014D0BCFBF3FAD64603FB1ECAD046B8F106
:104170000A0F02D218F1300801E018F13708F446AE
:1041800089F8008019F10109401CE7E7BDE8F087D4
:104190002DE9F04104000D0016001F00A046A845BF
:1041A00007DA3A0031003020FFF784FF18F10108E8
:1041B000F5E7BDE8F0812DE9F04104000D0016009F
:1041C0001F00A046A84507DA3A0031002020FFF77B
:1041D00071FF18F10108F5E7BDE8F0812DE9F24F14
:1041E00092B00400150000200090129883469BF8BE
:1041F000000001900198002800F0F5810198252821
:1042000013D001980A2805D0220000A90198FFF7D1
:1042100051FF09E0220000A90D20FFF74BFF22000B
:1042200000A90A20FFF746FFDAE1002081460020BE
:1042300004900498002822D11BF1010B9BF8000088
:1042400020280ED0232812D02B2807D02D2802D0CA
:10425000302809D00EE059F00109EAE759F00209C7
:10426000E7E759F00409E4E759F00809E1E759F0F4
:104270001009DEE7BBF1010B01200490D9E7002013
:104280008246002004900498002814D11BF1010BF1
:104290009BF80000019001983038092806D80A20C0
:1042A000019900FB0A10B0F1300AECE7BBF1010BF9
:1042B00001200490E7E71BF1010B9BF800002E287A
:1042C00011D100200490049800280ED11BF1010B9D
:1042D0009BF800003038092800D8F4E7BBF1010B47
:1042E00001200490EFE7BBF1010B1BF1010B9BF8E0
:1042F00000004C2806D0682802D06C2801D002E0CB
:1043000003E002E001E0BBF1010B1BF1010B9BF8A4
:10431000000001900198582875D0622800F0D580DF
:10432000632800F01D81642813D0692811D06E28FD
:1043300000F04A816F2800F0BD80702800F0D08026
:10434000732800F01781752800F0D58078285AD09E
:1043500041E128682D1D06900A23012206A909A81B
:10436000FFF7C1FE070009A83818060006980028C4
:1043700003D52D2003907F1C0FE05FEA897003D5E1
:104380002B2003907F1C08E05FEA497003D52020B2
:1043900003907F1C01E000200390002005905FEA5D
:1043A000097011D50398002804D0220000A90398B1
:1043B000FFF780FE01200590230000AA5146380037
:1043C000FFF7E6FE574612E05FEAC9700FD42300FC
:1043D00000AA51463800FFF7EEFE0398002804D0EB
:1043E000220000A90398FFF765FE012005900598BB
:1043F000002807D10398002804D0220000A90398C0
:10440000FFF758FE98E028682D1D02901023002227
:1044100002A909A8FFF767FE070009A838180600D7
:10442000002005905FEA097016D55FEAC9600BD5D8
:10443000220000A93020FFF73DFE220000A97820CD
:10444000FFF738FE01200590230000AA51463800EE
:10445000FFF79EFE57461BE05FEAC97018D45FEA7B
:10446000C96000D5BF1C230000AA51463800FFF7E1
:10447000A2FE5FEAC9600BD5220000A93020FFF739
:1044800019FE220000A97820FFF714FE01200590F4
:104490005FEAC9600DD5059800280AD1220000A95D
:1044A0003020FFF707FE220000A97820FFF702FE68
:1044B000BF1C41E028682D1D02900823002202A99C
:1044C00009A8FFF710FE07001FE028682D1D0290C5
:1044D0000223002202A909A8FFF705FE070014E045
:1044E00028682D1D02901023002202A909A8FFF7B9
:1044F000FAFD070009E028682D1D02900A2300221A
:1045000002A909A8FFF7EFFD070009A8381806005F
:104510005FEA097007D5230000AA51463800FFF76B
:1045200037FE574608E05FEAC97005D4230000AAA9
:1045300051463800FFF73FFE3078002806D02200B1
:1045400000A93078FFF7B6FD761EF5E75FEAC9707F
:1045500005D5230000AA51463800FFF72CFE3FE0A6
:1045600028682D1DC0B20790220000A90798FFF708
:10457000A1FD35E028682D1D8046B8F1000F22D03E
:10458000404600F049F807005FEAC97005D42300EF
:1045900000AA51463800FFF70EFE98F800000028E8
:1045A00008D0220000A998F80000FFF783FD18F159
:1045B0000108F2E75FEAC97005D5230000AA514659
:1045C0003800FFF7F8FD0BE028682D1D08900098D3
:1045D0000899086004E0220000A90198FFF76AFD2D
:1045E0001BF1010B03E6009813B0BDE8F08F0EB489
:1045F0007EB50400012000900648019007A8050040
:104600002A00210000A8FFF7E9FD060030007EBC6B
:104610005DF810FB0D6F000001000A000023002A66
:1046200001D1002007E01000421C0078002801D0D2
:104630005B1CF8E71800704781B0C0B2002801D1B8
:10464000012108000021ADF80210BDF8021002009F
:10465000D2B292B2914214D20021ADF80010BDF84E
:10466000001044F21872914205DABDF80010491C9E
:10467000ADF80010F3E7BDF80210491CADF80210C8
:10468000E3E701B0704781B0C0B2002801D1012139
:10469000080000218DF801109DF80110C0B2814280
:1046A00012D200218DF800109DF800100F2905DAB4
:1046B0009DF80010491C8DF80010F5E79DF80110D9
:1046C000491C8DF80110E7E701B0704780B5DFF8AD
:1046D0003805006830F40060DFF82C150860DFF85A
:1046E0002C05006850F00070DFF8201508600120EC
:1046F000FFF7C9FFDFF81405006850F08060DFF8AD
:104700000C1508600120FFF7BEFFDFF80005006808
:1047100030F00070DFF8F41408600120FFF7B3FFF9
:10472000DFF8E804006830F08060DFF8E01408602B
:104730000220FFF7A8FF01BD80B5DFF8D0040068B4
:1047400030F00070DFF8C41408600120FFF79BFF11
:10475000DFF8B804006850F08060DFF8B01408603B
:104760000120FFF790FFDFF8A404006850F000700C
:10477000DFF8981408600120FFF785FFDFF88C044C
:10478000006830F08060DFF8841408600220FFF7D2
:104790007AFF01BD80B5DFF87404006830F0007066
:1047A000DFF8681408600120FFF76DFFDFF85C0494
:1047B000006850F08060DFF8541408600120FFF7B3
:1047C00062FFDFF84804006850F00070DFF83C1426
:1047D00008600120FFF757FFDFF83004006830F071
:1047E0008060DFF8281408600220FFF74CFF01BD4D
:1047F00080B5DFF81804006850F00070DFF80C1482
:1048000008600120FFF73FFFDFF80004006850F068
:104810008060DFF8F81308600320FFF734FFDFF84B
:10482000EC03006830F00070DFF8E013086001204E
:10483000FFF729FFDFF8D403006830F08060DFF86D
:10484000CC13086001BD10B5DFF8C003006850F05C
:104850000070DFF8B8130860DFF8B403006830F4C4
:104860008050DFF8AC130860DFF8A803006850F050
:104870000070DFF8A01308600120FFF704FFDFF8E5
:104880008C03006850F08060DFF88013086000201F
:104890000400DFF880030068C0F34060002801D006
:1048A000012004000120FFF7EEFEDFF8600300683E
:1048B00030F08060DFF854130860DFF854030068BC
:1048C00050F48050DFF848130860DFF840030068B8
:1048D00050F00070DFF8341308602000C0B210BD43
:1048E00038B5040008252800451EC0B2002848D06D
:1048F000E4B2200628D5DFF81403006850F00070F9
:10490000DFF8081308600120FFF7BDFEDFF8FC02A6
:10491000006850F08060DFF8F41208600220FFF7B2
:10492000B2FEBA48006830F08060B84908600120E3
:10493000FFF7A9FEB548006830F00070B349086081
:104940000120FFF7A0FE1AE0B048006830F00070C8
:10495000AE4908600120FFF796FEAC48006850F0B1
:104960008060AA4908600220FFF78DFEA748006812
:1049700030F08060A54908600220FFF784FE6400E3
:10498000B1E731BD38B5082500242800451EC0B266
:10499000002839D09E48006830F480509C49086057
:1049A0009C48006850F000709A4908600120FFF7A9
:1049B0006AFE9648006830F08060944908600220E2
:1049C000FFF761FE9148006850F080608F490860F1
:1049D0000220FFF758FE64008E480068C0F3406074
:1049E000002802D054F0010401E014F0FE048748CE
:1049F000006830F08060854908608548006850F4A0
:104A0000805083490860C0E72000C0B232BD2DE964
:104A1000F04704000D00924601275FF00008A94608
:104A2000FFF754FE2000C0B2FFF75AFFFFF70BFF5D
:104A30000700FFB2012F01D100201BE05046B0F16A
:104A4000010A80B2002812D01FFA88F818F809006D
:104A5000060018F101083000C0B2FFF741FFFFF770
:104A6000F2FE0700FFB2012FE8D1002002E0FFF7BD
:104A700063FE0120BDE8F0872DE9F04704000D003A
:104A800016005FF00109AA46FFF720FEDC20FFF7C1
:104A900027FF0120FFF7F7FDFFF7D5FE80465FFAFD
:104AA00088F8B8F1010F01D1002041E09AF8000028
:104AB000FFF716FF0120FFF7E6FDFFF7C4FE804673
:104AC0005FFA88F8B8F1010F01D1002030E0FFF75C
:104AD000FDFD2000C0B2FFF703FF0120FFF7D3FD6B
:104AE000FFF7B1FE80465FFA88F8B8F1010F01D1F7
:104AF00000201DE0B6B2022E0CDBFFF743FF0700DB
:104B00001FFA89F909F80A7019F10109FFF742FE45
:104B1000761EEFE7FFF736FF07001FFA89F909F85D
:104B20000A7019F10109FFF763FEFFF705FE012086
:104B3000BDE8F08780B5012301221921002000F093
:104B4000B1F8012301220B21042000F0ABF801236E
:104B500001221A21002000F0A5F801BD70B5ADF5C5
:104B6000027DD425FFF7E6FF00200600B6B2ADB205
:104B7000AE420CD202222848B6B23118DC20FFF730
:104B800046FF0400E4B2002C01D0B61CEEE764201E
:104B9000FFF752FDE4B2002C14D1FFF7CBFF002049
:104BA0000600B6B2ADB2AE420CD202221A48B6B27C
:104BB0003118DC20FFF72BFF0400E4B2002C01D0F9
:104BC000B61CEEE7E4B2002C01D1002019E0002071
:104BD0000600B6B2ADB2AE4212D20F48B6B2305CE9
:104BE00000A9B6B270540A20FFF74DFD012200A8BB
:104BF000B6B23118DD20FFF73FFF0400B61CE8E72E
:104C000001200DF5027D70BD00F10F4000F00F4056
:104C100014F10F4010F00F405C04FF1FF8B50400C2
:104C20000D0016001F00EDB2202D03D323216B4889
:104C3000FFF7A0F96A48E4B250F82400EDB2F6B2EA
:104C4000FFB2390411F47021314351F4807140F8FE
:104C500025100120A8406249E4B251F82410C1F89F
:104C6000C000F0070BD5F6B2032E08D0F6B2132E13
:104C700005D0F6B2022E02D0F6B2122E0CD159484F
:104C8000E4B250F8240040690121A9408843554905
:104C9000E4B251F824104861E4B214F15700FFF770
:104CA00078F9F1BDF8B504000D0016001F00EDB253
:104CB000202D02D2FFB2022F03D347214748FFF72E
:104CC00059F94748E4B250F82400EDB2F6B256F470
:104CD000807140F82510F00705D5F6B2032E02D0FA
:104CE000F6B2132E0DD13F48E4B250F824004069CB
:104CF0000121A94088433B49E4B251F8241048619E
:104D00002AE03848E4B250F8240040690121A94063
:104D100008433449E4B251F824104861FFB2012F2E
:104D20000DD13048E4B250F8240000680121A940B8
:104D300008432C49E4B251F8241008600CE02948DB
:104D4000E4B250F8240000680121A94088432549B5
:104D5000E4B251F824100860F1BD70B504000D00F4
:104D60001600EDB2202D02D2F6B2022E03D36E2130
:104D70001A48FFF7FFF8F6B2012E0DD11948E4B238
:104D800050F8240000680121A94008431549E4B205
:104D900051F8241008600CE01248E4B250F82400E6
:104DA00000680121A94088430E49E4B251F824105B
:104DB000086070BD38B504000D00EDB2202D03D39E
:104DC00094210648FFF7D6F80648E4B250F82400CC
:104DD0000069E84010F0010032BD00007869000071
:104DE0004404FF1F3004FF1F80B500F08DFA00F06F
:104DF000A7FA00F005FBDFF8E803FFF7F8FBDFF8A0
:104E0000E4030068DFF8E0134979491CB0FBF1F0D6
:104E10000090DFF8D0030068DFF8CC130979491C53
:104E2000B0FBF1F3DFF8BC030068DFF8BC13C9780E
:104E3000491CB0FBF1F2DFF8AC030168DFF8AC030A
:104E4000FFF7D5FBDFF8A8030078400703D5DFF8AC
:104E5000A403FFF7CCFBDFF898030078800703D5A5
:104E6000DFF89403FFF7C3FBDFF884030078C00783
:104E700003D5DFF88803FFF7BAFBDFF88403007877
:104E8000000603D5DFF87C03FFF7B1FBDFF8700302
:104E90000078400603D5DFF87003FFF7A8FBDFF8C2
:104EA00060030078800603D5DFF86003FFF79FFBFF
:104EB000DFF84C030078400703D5DFF85403FFF711
:104EC00096FBDFF83C030078800703D5DFF8440346
:104ED000FFF78DFBDFF828030078C00703D5DFF864
:104EE0003803FFF784FBDFF83403FFF780FBDFF8BC
:104EF0003003DFF83013884204D0DFF82C03FFF7CB
:104F000076FB03E0DFF82403FFF771FB00F003F802
:104F100000F0A4FAFEE780B5DFF81403006800098A
:104F200010F0070000280BD0022813D00DD304285E
:104F300019D014D306281ED019D307281FD022E079
:104F4000DFF8F002FFF753FB20E0DFF8EC02FFF799
:104F50004EFB1BE0DFF8E402FFF749FB16E0B84820
:104F6000FFF745FB12E0B748FFF741FB0EE0B648FC
:104F7000FFF73DFB0AE0B548FFF739FB06E0B44810
:104F8000FFF735FB02E0B348FFF731FBA8480068A4
:104F900010F00F00022812D0042814D0052816D0D3
:104FA000062818D007281AD008281CD009281ED097
:104FB0000A2820D00C2822D00E2824D027E0A6488A
:104FC000FFF715FB26E0A548FFF711FB22E0A448F8
:104FD000FFF70DFB1EE0A348FFF709FB1AE0A2480C
:104FE000FFF705FB16E0A148FFF701FB12E0A04820
:104FF000FFF7FDFA0EE09F48FFF7F9FA0AE09E4836
:10500000FFF7F5FA06E09D48FFF7F1FA02E09C4849
:10501000FFF7EDFA86480068000B10F00F0000283B
:1050200003D0022809D004D30BE09648FFF7DFFA3B
:105030000AE09548FFF7DBFA06E09448FFF7D7FA55
:1050400002E09348FFF7D3FA00F06AF8914800684D
:10505000000E10F00F00072806D0092808D00B28F2
:105060000AD00F280CD00FE08B48FFF7C0FA0EE0F3
:105070008A48FFF7BCFA0AE08948FFF7B8FA06E069
:105080008748FFF7B4FA02E08648FFF7B0FA86488F
:105090000068000203D58548FFF7A9FA1EE07D48A5
:1050A0000068000F002806D0072808D009280AD079
:1050B0000F280CD00FE07E48FFF799FA0EE07D48EC
:1050C000FFF795FA0AE07C48FFF791FA06E07A4884
:1050D000FFF78DFA02E07948FFF789FA784800680F
:1050E000000B10F00F00052806D0072808D008286C
:1050F0000AD009280CD00FE07248FFF778FA0EE0CA
:105100007148FFF774FA0AE07048FFF770FA06E09A
:105110006F48FFF76CFA02E06E48FFF768FA01BDCE
:10512000F8B503206C49087000206C490870002015
:105130006B49087000206B49087001206A490870AB
:1051400080206A490870694800780006FBD56848E5
:10515000007804006748007805006748007806007A
:10516000664800780700FFB20097F6B23300EDB250
:105170002A00E4B221006248FFF739FA03205649B9
:105180000870002055490870002055490870042017
:105190005449087001205449087080205349087010
:1051A000524800780006FBD5514800780400514869
:1051B0000078050050480078060050480078070045
:1051C000FFB20097F6B23300EDB22A00E4B221003C
:1051D0004C48FFF70CFAFF2044490870F1BD00006D
:1051E0000C6A0000F03CFF1F3005FF1FD466000072
:1051F00000E007403C6E0000E46A0000346F0000ED
:1052000001E007404C6E00008C6D00003C6C00001B
:10521000546C0000006B0000406F00002C6A00001E
:105220000000FF1F000000004C6F0000586F0000DE
:1052300024800440706F0000786F0000806F0000D1
:10524000886F0000906F0000986F0000A06F000052
:10525000A86F0000B86800005C6E00006C6E000073
:105260007C6E00008C6E00009C6E0000AC6E000036
:10527000BC6E0000CC6E0000DC6E0000EC6E000026
:105280008C680000A06D0000B46D0000C86D0000C7
:105290001C6700004C8004406C6C0000846C0000B3
:1052A0009C6C00004C6A000050800440FC6E0000C2
:1052B000B46C0000CC6C0000E46C00006C6A000070
:1052C00000700440DC6D0000F06D0000046E000012
:1052D000186E00001C6B0000070002400600024030
:1052E00005000240040002400F000240000002409E
:1052F0000B0002400A000240090002400800024080
:10530000E06800008C6A000080B500F009F80A48E7
:1053100000884FF6FE7108400749088001BD000073
:1053200072B64CF22050054908804DF6281003490A
:10533000088062B670470000002005400E2005403E
:105340002DE9F8432448254988420DD000208046A5
:10535000B8F5826F08D2214850F828001E4941F85C
:10536000280018F10108F3E71B48FEF70FFE1C4860
:1053700007001C4806001C480400A01B804640464D
:10538000B0F10108002804D030783870761C7F1CFA
:10539000F5E71648814616480500B5EB090080463A
:1053A0004046B0F10108002805D0002089F800002F
:1053B00019F10109F4E70F480F49104A531A9846AA
:1053C0004346B3F10108002B04D00B780370491C4D
:1053D000401CF5E7BDE8F1830000FF1F000000005E
:1053E0001004FF1FA8640000EC650000A005FF1F6B
:1053F000293DFF1F5005FF1F3C6600008C66000022
:1054000080B51148006850F478500F490860642056
:1054100000F012F90D4908600C4800684FF47A71E9
:1054200048430B4908600A4800680A490968C1F303
:105430000361491CB0FBF1F0074908605FF4E131FA
:105440000020FDF73DFC01BD38800440F03CFF1F0B
:10545000EC3CFF1F44800440F43CFF1F80B572B653
:105460005FF4E1310020FDF72BFC0023012207212E
:105470000320FFF717FC00F073FA5C48FFF7B7F85A
:1054800000F0C1FB5A48FFF7B2F800F07EFA594825
:10549000FFF7ADF85848006850F4005056490860CE
:1054A0000023002201210420FFF7FCFB0923022234
:1054B00001210420FFF7B2FB09230222022104206C
:1054C000FFF7ACFB0923022203210420FFF7A6FB10
:1054D0000023002206210420FFF7E4FB0023002222
:1054E00007210420FFF7DEFB00230022082104200F
:1054F000FFF7D8FB0023002209210420FFF7D2FB8D
:1055000000F014FA3D48FFF772F801230122102140
:105510000020FFF7C7FB0123012211210020FFF724
:10552000C1FB37480068052101FB00F1002000F0B5
:10553000C5FB334800684FF47A7101FB00F101208C
:1055400000F0BCFB2F480078012807D0FFF706FBCE
:105550002C4908706420FFF796F8F3E762B69622AC
:1055600005210020FEF70BFB2748006830F04000C3
:10557000254908602548FFF73AF8002024490880AB
:105580002148006850F040001F4908602148FFF79B
:105590002EF82148FFF72BF820480078012804D185
:1055A00000F006FA00201D4908701D480078012807
:1055B00008D1FDF7C7FA1B49087000F031FB002045
:1055C00017490870184800780128E5D11748006885
:1055D000C0F3404090F001001449096860F3514164
:1055E00012480160002010490870D5E7F46B0000F4
:1055F0000C6C0000246C000038800440506D0000EA
:10560000F43CFF1F273DFF1F0C800B40646D000022
:10561000FA3CFF1F786D0000286F0000203DFF1F3F
:10562000233DFF1F283DFF1F243DFF1F00F00F40BB
:10563000DFF800F05105FF1F38B50400E4B2002C7C
:1056400000F00681E4B2200030281ED0322823D09A
:10565000602828D064282DD06E2832D0782837D002
:105660007D283CD0822841D08C2846D096284BD02B
:10567000A02850D0AA2855D0B4285AD0C8285FD026
:10568000E12864D0FA2869D06FE018209F4908709B
:1056900000209E4948706CE018209C490870012049
:1056A0009A49487065E01820984908701820974971
:1056B00048705EE01820954908701A209349487098
:1056C00057E01820914908701F209049487050E019
:1056D00013208E49087018208C49487049E0132027
:1056E0008A4908701A208949487042E01320874986
:1056F00008701C20854948703BE00E2083490870E3
:1057000012208249487034E00E208049087015202C
:105710007E4948702DE00E207C49087018207B4996
:10572000487026E00E20794908701B2077494870A0
:105730001FE00E20754908701E207449487018E05B
:105740000C20724908701C207049487011E00B2031
:105750006E4908701E206D4948700AE00A206B49A6
:1057600008701F206949487003E06420FFF764FF58
:10577000CAE0002065498870E4B2332C03DA0020C7
:105780006249C87017E0E4B2652C03DA01205F4972
:10579000C87010E0E4B2972C03DA02205B49C870AD
:1057A00009E0E4B2C92C03DA03205849C87002E0CA
:1057B0000F205649C8705548C07854490871E4B262
:1057C0001A2C03DA00205149487141E0E4B2332C2D
:1057D00003DA01204D4948713AE0E4B24C2C03DA77
:1057E00002204A49487133E0E4B2652C03DA032011
:1057F000464948712CE0E4B27E2C03DA0420434988
:10580000487125E0E4B2972C03DA05203F4948713E
:105810001EE0E4B2B02C03DA06203C49487117E0E0
:10582000E4B2C92C03DA07203849487110E0E4B229
:10583000E22C03DA08203549487109E0E4B2FB2C78
:1058400003DA09203149487102E00F202F494871DD
:105850002E484078183080B2322148432B490978CD
:10586000491C89B290FBF1F005000020284908701E
:105870002848006850F08050264908602648007883
:1058800050F080002449087098202449087024486A
:105890000078C006FBD422480078C0F38100C0B273
:1058A0000228F8D11948007810F01F001D4908702F
:1058B00000201D490870154843791448027913489F
:1058C000C17812488078FFF7B3FE1048407810F096
:1058D0001F0050F0400014490870114800788006FD
:1058E000FBD50F4800784006FBD50C48007810F037
:1058F0003F000A4908700A480078C0F38100C0B22E
:105900000328F8D12800C0B232BD00BF3005FF1F08
:10591000014006403480044008C007400040064073
:10592000064006400440064005400640E0B50A2314
:10593000032201210320FFF771F909230222082124
:105940000220FFF76BF9812002908C20019000204B
:1059500000902923BF4AC049042000F0E7F907BDA1
:1059600080B500234FF4FA5205210020FDF77AFF9D
:1059700000234FF4FA5206210020FDF773FF0122A5
:1059800007210320FFF7E9F901BD80B500230322B9
:105990000A210020FFF786F9002200210220FEF7ED
:1059A00029F90020AD4908800020AD49088001BDDB
:1059B000AA48B0F90000512802DB5020A74908800E
:1059C000A648B0F900001E2802DA1E20A34908806C
:1059D000A248B0F9000040003C38A14908800020EE
:1059E0009E4908809E48B0F90000704701009D481C
:1059F0000088401A9C4A10809B48B0F90000032898
:105A00000DDA9948B0F9000010F1020F07DB974852
:105A100000686430964A1060954800682AE0934810
:105A20000068914AB2F90020924BB3F90030D3EBF1
:105A30004202914BB3F9003092FBF3F210188B4AFB
:105A40001060894800888B4A108088480068652863
:105A500002DB6420854A106084480068002802D573
:105A60000020824A1060814800686430804A1060DB
:105A70007F480068704710B584B000207F490880D7
:105A800000200400A4B2052C0CDA7C4800887C4974
:105A9000A4B2611891F8281050FA81F07749088073
:105AA000641CEFE77548B0F90000052190FBF1F0A8
:105AB0007249088000207349088000200400A4B2C5
:105AC0000A2C0DDA6F4800886C49098808186C495F
:105AD000A4B26118C97B401A6A490880641CEEE7C9
:105AE0006848B0F900000A2190FBF1F06549088090
:105AF00000206549088000200400A4B20A2C12DAB4
:105B00005F48A4B2201890F82300604908805E48DE
:105B100000885A49098808185C490988401A5A4976
:105B20000880641CE9E75848B0F900000A2190FB9E
:105B3000F1F0554908805448008800B200015449EA
:105B400008805348B0F900004000032190FBF1F0B9
:105B5000504908804F48B0F9000010F1320F03DAC5
:105B60007FF031004B4908804A48B0F900003328E3
:105B700002DB3220474908804448B0F90000029017
:105B80004448B0F9000001904148B0F9000000908D
:105B90003D48B0F900303B48B0F900203748B0F933
:105BA00000103D48FEF723FD3A48B0F9000004B06C
:105BB00010BD10B50400394804803848B0F9000021
:105BC0003230374908603748008837490880334801
:105BD00000883449088032480068652802D3642070
:105BE0002F4908602E48006840000521B0FBF1F005
:105BF00035302E4908602D4801682D48FEF7F7FC26
:105C00002A48006810BD80B54B23322200210120B4
:105C1000FDF728FE41F2B44026494968086101BDFC
:105C200080B5FFF7C5FE00B2FFF7E0FE02000521D8
:105C30000020FDF7A4FF20480078012809D1FFF7D4
:105C40001AFF00B2FFF7B5FF020000210120FDF7A7
:105C500096FF01BD9421FF1F50F00F40F83CFF1F3D
:105C6000FA3CFF1F1204FF1F003DFF1F1404FF1F1B
:105C70001804FF1FFE3CFF1F1004FF1F083DFF1FFD
:105C8000F820FF1F043DFF1F063DFF1F0A3DFF1FB9
:105C9000023DFF1F0C3DFF1FEC650000123DFF1F82
:105CA0001C04FF1F103DFF1F0E3DFF1F2004FF1FA0
:105CB0001C6F00002404FF1F283DFF1F38B504009F
:105CC0000D001748006850F4000015490860154899
:105CD000006880088000134908601348E4B221017D
:105CE0000D501148E4B210EB0410C06850F00100F0
