:10000000F8FF0020110400004D220000711A0000CA
:100010004D2200004D2200004D2200004D22000024
:100020004D2200004D2200004D2200004D22000014
:100030004D2200004D2200006F1A00006D1A0000D2
:10004000CB1B00004D2200004D2200004D2200007D
:10005000A31B00004D2200004D2200004D22000095
:100060004D2200004D2200004D2200004D220000D4
:100070004D2200004D2200004D2200004D220000C4
:100080004D2200004D2200004D2200004D220000B4
:100090004D2200004D2200004D2200004D220000A4
:1000A0004D2200004D2200004D2200004D22000094
:1000B0004D2200004D2200004D2200004D22000084
:1000C0004D2200004D2200004D2200004D22000074
:1000D0004D2200004D2200004D2200004D22000064
:1000E0004D2200004D2200004D2200004D22000054
:1000F0004D2200004D2200004D2200007919000021
:100100004D2200004D2200004D2200004D22000033
:100110004D2200004D2200004D2200004D22000023
:100120004D2200004D2200004D2200004D22000013
:100130004D2200004D220000451B0000471B00001F
:100140004D2200004D2200004D2200004D220000F3
:10015000E11900009B190000371B00004D22000030
:100160004D2200004D2200004D2200004D220000D3
:100170004D2200004D2200004D2200004D220000C3
:100180004D2200004D2200004D2200004D220000B3
:100190004D2200004D2200004D2200004D220000A3
:1001A000F71A0000ED1B00007B1A00004D22000032
:1001B0004D2200004D2200004D2200004D22000083
:1001C0004D2200004D2200004D2200004D22000073
:1001D0004D2200004D2200004D2200004D22000063
:1001E0004D2200004D2200004D2200004D22000053
:10040000FFFFFFFFFFFFFFFFFFFFFFFFFEFFFFFFFD
:1004100062B64FF000004FF000014FF000024FF0C5
:1004200000034FF000044FF000054FF000064FF0BE
:1004300000074FF000084FF000094FF0000A4FF09E
:10044000000B4FF0000C00F0BFFAFEE770B504009F
:100450000D0016003068012802D0022805D00AE0FD
:100460002000C0B27168884705E0B0680470B068C9
:10047000401CB060FFE72868401C286070BD2DE973
:10048000F04704005FF0000A5046A1465FF0000A02
:1004900089F800A019F10109002A1FD0D1F800A0A5
:1004A0005546002D05D15FF0300A89F800A0401CA8
:1004B00038E0002D36D095FBF3FA564603FB165A6A
:1004C0005746002F02D5FF43313700E03037350063
:1004D00089F8007019F10109401CEAE7D1F800A081
:1004E000D446BCF1000F05D15FF0300A89F800A0B6
:1004F000401C17E0BCF1000F14D0BCFBF3FAD64649
:1005000003FB1ECAD046B8F10A0F02D218F1300818
:1005100001E018F13708F44689F8008019F1010963
:10052000401CE7E7BDE8F0872DE9F04104000D002D
:1005300016001F00A046A84507DA3A003100302017
:10054000FFF784FF18F10108F5E7BDE8F0812DE918
:10055000F04104000D0016001F00A046A84507DA70
:100560003A0031002020FFF771FF18F10108F5E78C
:10057000BDE8F0812DE9F24F92B004001500002093
:100580000090129883469BF800000590002800F028
:10059000F2810598252813D005980A2805D0220055
:1005A00000A90598FFF752FF09E0220000A90D20DD
:1005B000FFF74CFF220000A90A20FFF747FFD7E111
:1005C00000208146002003900398002822D11BF1CF
:1005D000010B9BF8000020280ED0232812D02B28D6
:1005E00007D02D2802D0302809D00EE059F001099B
:1005F000EAE759F00209E7E759F00409E4E759F09E
:100600000809E1E759F01009DEE7BBF1010B012011
:100610000390D9E700208246002003900398002829
:1006200013D11BF1010B9BF800000590303809280D
:1006300006D80A20059900FB0A10B0F1300AEDE750
:10064000BBF1010B01200390E8E71BF1010B9BF8C4
:1006500000002E2811D100200390039800280ED10D
:100660001BF1010B9BF800003038092800D8F4E793
:10067000BBF1010B01200390EFE7BBF1010B1BF174
:10068000010B9BF800004C2806D0682802D06C288B
:1006900001D002E003E002E001E0BBF1010B1BF13D
:1006A000010B9BF800000590582875D0622800F0D7
:1006B000D580632800F01D81642813D0692811D0EB
:1006C0006E2800F049816F2800F0BD80702800F08E
:1006D000D080732800F01681752800F0D580782826
:1006E0005AD040E1286806902D1D0A23012206A950
:1006F00009A8FFF7C4FE070009A8381806000698E5
:10070000002803D52D2002907F1C0FE0484680076B
:1007100003D52B2002907F1C08E04846400703D5F4
:10072000202002907F1C01E0002002900020049015
:100730004846000711D50298002804D0220000A9DD
:100740000298FFF783FE01200490230000AA51467F
:100750003800FFF7E9FE574612E04846C0070FD4BD
:10076000230000AA51463800FFF7F1FE0298002846
:1007700004D0220000A90298FFF768FE012004902F
:100780000498002807D10298002804D0220000A96C
:100790000298FFF75BFE98E0286801902D1D10235A
:1007A000002201A909A8FFF76AFE070009A8381866
:1007B0000600002004904846000716D54846C006AB
:1007C0000BD5220000A93020FFF740FE220000A92F
:1007D0007820FFF73BFE01200490230000AA514639
:1007E0003800FFF7A1FE57461BE04846C00718D463
:1007F0004846C00600D5BF1C230000AA5146380059
:10080000FFF7A5FE4846C0060BD5220000A9302000
:10081000FFF71CFE220000A97820FFF717FE012039
:1008200004904846C0060DD5049800280AD122003D
:1008300000A93020FFF70AFE220000A97820FFF768
:1008400005FEBF1C41E0286801902D1D08230022F1
:1008500001A909A8FFF713FE07001FE0286801900F
:100860002D1D0223002201A909A8FFF708FE070099
:1008700014E0286801902D1D1023002201A909A869
:10088000FFF7FDFD070009E0286801902D1D0A23F0
:10089000002201A909A8FFF7F2FD070009A83818EE
:1008A00006004846000707D5230000AA5146380035
:1008B000FFF73AFE574608E04846C00705D4230034
:1008C00000AA51463800FFF742FE3078002806D0D3
:1008D000220000A93078FFF7B9FD761EF5E74846FB
:1008E000C00705D5230000AA51463800FFF72FFEA8
:1008F0003EE0287807902D1D220000A90798FFF7F9
:10090000A5FD35E0286880462D1DB8F1000F22D0E6
:10091000404600F049F807004846C00705D42300C8
:1009200000AA51463800FFF712FE98F80000002890
:1009300008D0220000A998F80000FFF787FD18F101
:100940000108F2E74846C00705D5230000AA514632
:100950003800FFF7FCFD0BE0286808902D1D089873
:100960000099016004E0220000A90598FFF76EFDE0
:100970001BF1010B07E6009813B0BDE8F08F0EB431
:100980007EB50400012000900648019007A80500EC
:100990002A00210000A8FFF7EDFD060030007EBC14
:1009A0005DF810FB4D24000001000A000023002A1E
:1009B00001D1002007E01000421C0078002801D07F
:1009C0005B1CF8E71800704780B500F08DFA00F066
:1009D000A7FA00F005FBDFF8E803FFF7D0FFDFF828
:1009E000E4030068DFF8E0134979491CB0FBF1F03B
:1009F0000090DFF8D0030068DFF8CC130979491CB8
:100A0000B0FBF1F3DFF8BC030068DFF8BC13C97872
:100A1000491CB0FBF1F2DFF8AC030168DFF8AC036E
:100A2000FFF7ADFFDFF8A8030078400703D5DFF834
:100A3000A403FFF7A4FFDFF898030078800703D52D
:100A4000DFF89403FFF79BFFDFF884030078C0070B
:100A500003D5DFF88803FFF792FFDFF884030078FF
:100A6000000603D5DFF87C03FFF789FFDFF870038A
:100A70000078400603D5DFF87003FFF780FFDFF84A
:100A800060030078800603D5DFF86003FFF777FF87
:100A9000DFF84C030078400703D5DFF85403FFF775
:100AA0006EFFDFF83C030078800703D5DFF84403CE
:100AB000FFF765FFDFF828030078C00703D5DFF8EC
:100AC0003803FFF75CFFDFF83403FFF758FFDFF868
:100AD0003003DFF83013884204D0DFF82C03FFF72F
:100AE0004EFF03E0DFF82403FFF749FF00F003F8AF
:100AF00000F0A4FAFEE780B5DFF8140300680009EF
:100B000010F0070000280BD0022813D00DD30428C2
:100B100019D014D306281ED019D307281FD022E0DD
:100B2000DFF8F002FFF72BFF20E0DFF8EC02FFF721
:100B300026FF1BE0DFF8E402FFF721FF16E0B848CC
:100B4000FFF71DFF12E0B748FFF719FF0EE0B648A8
:100B5000FFF715FF0AE0B548FFF711FF06E0B448BC
:100B6000FFF70DFF02E0B348FFF709FFA848006850
:100B700010F00F00022812D0042814D0052816D037
:100B8000062818D007281AD008281CD009281ED0FB
:100B90000A2820D00C2822D00E2824D027E0A648EE
:100BA000FFF7EDFE26E0A548FFF7E9FE22E0A448A6
:100BB000FFF7E5FE1EE0A348FFF7E1FE1AE0A248BA
:100BC000FFF7DDFE16E0A148FFF7D9FE12E0A048CE
:100BD000FFF7D5FE0EE09F48FFF7D1FE0AE09E48E2
:100BE000FFF7CDFE06E09D48FFF7C9FE02E09C48F6
:100BF000FFF7C5FE86480068000B10F00F000028C4
:100C000003D0022809D004D30BE09648FFF7B7FEC3
:100C10000AE09548FFF7B3FE06E09448FFF7AFFE01
:100C200002E09348FFF7ABFE00F06AF891480068D5
:100C3000000E10F00F00072806D0092808D00B2856
:100C40000AD00F280CD00FE08B48FFF798FE0EE07B
:100C50008A48FFF794FE0AE08948FFF790FE06E015
:100C60008748FFF78CFE02E08648FFF788FE86483B
:100C70000068000203D58548FFF781FE1EE07D482D
:100C80000068000F002806D0072808D009280AD0DD
:100C90000F280CD00FE07E48FFF771FE0EE07D4874
:100CA000FFF76DFE0AE07C48FFF769FE06E07A4830
:100CB000FFF765FE02E07948FFF761FE78480068BB
:100CC000000B10F00F00052806D0072808D00828D0
:100CD0000AD009280CD00FE07248FFF750FE0EE052
:100CE0007148FFF74CFE0AE07048FFF748FE06E047
:100CF0006F48FFF744FE02E06E48FFF740FE01BD7B
:100D0000F8B56D48032101706C48002101706C48F2
:100D1000002101706B48002101706B4801210170B6
:100D20006A4880210170694800780006FBD5684850
:100D300000780400674800780500674800780600DE
:100D4000664800780700FFB20097F6B23300EDB2B4
:100D50002A00E4B221006248FFF711FE5648032141
:100D60000170564800210170554800210170554816
:100D70000421017054480121017054488021017000
:100D8000524800780006FBD55148007804005148CD
:100D900000780500504800780600504800780700A9
:100DA000FFB20097F6B23300EDB22A00E4B22100A0
:100DB0004C48FFF7E4FD4548FF210170F1BD0000FC
:100DC000982000001006FF1F8C04FF1F541E000017
:100DD00000E007407C230000382100005C24000074
:100DE00001E007408C230000CC2200008C21000091
:100DF000A42100005421000068240000B820000055
:100E00000000FF1F00000000742400008024000088
:100E10002480044098240000A0240000A82400009E
:100E2000B0240000B8240000C0240000C824000042
:100E3000D0240000182000009C230000AC230000F8
:100E4000BC230000CC230000DC230000EC230000C6
:100E5000FC2300000C2400001C2400002C240000B3
:100E6000C01F0000E0220000F42200000823000060
:100E7000DC1E00004C800440BC210000D421000096
:100E8000EC210000D8200000508004403C240000E9
:100E9000042200001C22000034220000F820000080
:100EA000007004401C230000302300004423000095
:100EB0005823000070210000070002400600024095
:100EC00005000240040002400F0002400000024002
:100ED0000B0002400A0002400900024008000240E4
:100EE000402000001821000080B500F009F80A48F1
:100EF00000884FF6FE7108400749088001BD0000D8
:100F000072B606484CF22051018004484DF6281173
:100F1000018062B670470000002005400E200540A9
:100F20002DE9F8432448254988420DD00020804609
:100F3000B8F5826F08D22048204951F8281040F8AF
:100F4000281018F10108F3E71B4800F03BF91C4892
:100F500007001C4806001C480400A01B80464046B1
:100F6000B0F10108002804D030783870761C7F1C5E
:100F7000F5E71648814616480500B5EB090080469E
:100F80004046B0F10108002805D0002089F8000093
:100F900019F10109F4E70F480F49104A531A98460E
:100FA0004346B3F10108002B04D00B780370491CB1
:100FB000401CF5E7BDE8F1830000FF1F00000000C2
:100FC0006004FF1F9C1D0000E81D0000AC04FF1F13
:100FD0002406FF1F1004FF1F4C1D00009C1D000075
:100FE00080B51148006850F478500F4908606420BB
:100FF00000F080F90D4908600C4800684FF47A71E0
:1010000048430B4908600A4800680A490968C1F367
:101010000361491CB0FBF1F0074908604FF49641A9
:10102000012000F0E1FA01BD388004401006FF1FE6
:101030000C06FF1F448004401406FF1F80B572B6E3
:1010400051485249016052480021017050480078CF
:101050008A280ED24C480068002101704A48006876
:10106000401C494908604A480078401C48490870BB
:10107000ECE74848002101704648007832280AD23F
:101080004448007844490822425442480078401CB1
:1010900040490870F0E73F48002101703D48007862
:1010A00032280AD23B4800783C4908224254394849
:1010B0000078401C37490870F0E73648002101707D
:1010C0003448007832280AD23248007834496D22F8
:1010D000425430480078401C2E490870F0E72D48F3
:1010E000002101702B48007832280AD22948007864
:1010F0002C496D22425427480078401C254908702D
:10110000F0E75FF4E131002000F06EFA01230122E4
:101110001021002000F08AFB23480168002000F025
:10112000E7FB62B621480078012802D11F48002160
:1011300001701F480078012802D11D48002101706C
:101140001C480078012810D11A4800210170FF21A5
:10115000002000F02DFB18480068C043000C164921
:10116000096860F3104114480160144800780128B0
:1011700002D1124800210170114800780128D1D114
:101180000F4800210170CDE70806FF1F7C05FF1FF7
:101190002206FF1F2306FF1FAC04FF1F1405FF1FBD
:1011A000E004FF1F4805FF1F1406FF1F1806FF1F5E
:1011B0001906FF1F1A06FF1F00F00F401B06FF1F36
:1011C0001D06FF1F3D490860704738B504005C2CC0
:1011D00002DB3B48FFF7D3FB202094FBF0F0050037
:1011E000002D03D0022D27D013D337E0012020217A
:1011F00094FBF1F202FB1142904032490860012059
:10120000202194FBF1F202FB114290402E4908602C
:1012100024E00120202194FBF1F202FB11429040D6
:101220002A4908600120202194FBF1F202FB1142BF
:1012300090402749086011E00120202194FBF1F241
:1012400002FB11429040234908600120202194FBB9
:10125000F1F202FB114290401F49086031BD38B5E0
:1012600004005C2C02DB1D48FFF789FB202094FB67
:10127000F0F00500002D03D0022D15D00AD31CE09C
:101280000120202194FBF1F202FB1142904014490D
:10129000086012E00120202194FBF1F202FB1142D0
:1012A00090401049086008E00120202194FBF1F2F1
:1012B00002FB114290400C49086031BD08ED00E08E
:1012C000581F000080E200E000E100E084E200E05E
:1012D00004E100E088E200E008E100E01C1F0000FB
:1012E00080E100E084E100E088E100E0DFF800F068
:1012F0001104FF1F38B50400E4B2002C00F0068191
:10130000E4B2200030281ED0322823D0602828D014
:1013100064282DD06E2832D0782837D07D283CD054
:10132000822841D08C2846D096284BD0A02850D077
:10133000AA2855D0B4285AD0C8285FD0E12864D054
:10134000FA2869D06FE0A048182101709E4800215A
:1013500041706CE09C48182101709B48012141704C
:1013600065E09948182101709748182141705EE0A6
:1013700095481821017094481A21417057E092480D
:101380001821017090481F21417050E08E481321B0
:1013900001708D481821417049E08B48132101707C
:1013A00089481A21417042E087481321017086481C
:1013B0001C2141703BE084480E21017082481221BB
:1013C000417034E080480E2101707F481521417042
:1013D0002DE07D480E2101707B481821417026E0E8
:1013E00079480E21017078481B2141701FE0764832
:1013F0000E21017074481E21417018E072480C21C2
:10140000017071481C21417011E06F480B2101707F
:101410006D481E2141700AE06B480A2101706A483C
:101420001F21417003E06420FFF764FFCAE06648B3
:1014300000218170E4B2332C03D263480021C170D3
:1014400017E0E4B2652C03D25F480121C17010E0BF
:10145000E4B2972C03D25C480221C17009E0E4B2E7
:10146000C92C03D258480321C17002E056480F210D
:10147000C17055485449C9780171E4B21A2C03D29D
:1014800051480021417141E0E4B2332C03D24E486F
:10149000012141713AE0E4B24C2C03D24A480221C6
:1014A000417133E0E4B2652C03D247480321417116
:1014B0002CE0E4B27E2C03D243480421417125E0A4
:1014C000E4B2972C03D24048052141711EE0E4B2FA
:1014D000B02C03D23C480621417117E0E4B2C92C7C
:1014E00003D239480721417110E0E4B2E22C03D263
:1014F00035480821417109E0E4B2FB2C03D232489F
:101500000921417102E030480F2141712E48407895
:10151000183080B2322148432B490978491C89B2DE
:1015200090FBF1F00500294800210170284800686F
:1015300050F08050264908602648007850F080001E
:101540002449087024489821017024480078C00676
:10155000FBD422480078C0F38100C0B20228F8D141
:101560001948007810F01F001D4908701D4800211F
:10157000017015484379144802791348C17812481C
:101580008078FFF7B3FE1048407810F01F0050F04D
:10159000400014490870114800788006FBD50F48B8
:1015A00000784006FBD50C48007810F03F000A494F
:1015B00008700A480078C0F38100C0B20328F8D14F
:1015C0002800C0B232BD00BF8C04FF1F014006409E
:1015D0003480044008C007400040064006400640F2
:1015E0000440064005400640F0B4C0B2002808D0D0
:1015F000022824D014D304283FD02FD305284BD061
:1016000059E0794E4FF440773760784E4FF4407789
:101610003760774E366856F48066754F3E604AE014
:10162000744E4FF440773760734E4FF44077376015
:101630006F4E366856F400666D4F3E603BE06F4E6D
:101640004FF4407737606E4E4FF440773760684E06
:10165000366856F48056664F3E602CE0694E4FF473
:1016600040773760684E4FF440773760604E366899
:1016700056F400565E4F3E601DE0644E4FF44077D6
:101680003760634E4FF440773760624E366856F4E9
:101690008066604F3E600EE05F4E4FF440773760EB
:1016A0005E4E4FF4407737605A4E366856F4006607
:1016B000584F3E60FFE7C0B2594E56F82060F678AA
:1016C00016F0F306C0B2564F57F82070FE70C0B245
:1016D000534E56F820600027B770C0B2002801D1E1
:1016E000012600E00026C0B2012801D1012700E058
:1016F00000273E43F6B2002E06D04A4E36684FF41D
:101700007A777E43350005E0474E36684FF47A77A6
:101710007E4335000E01B5FBF6F63200C0B2404EF6
:1017200056F82060367816F0E006340092B2160AB9
:1017300016F01F062643C0B2394F57F820703E708E
:10174000C0B2374E56F8206072706E010F01B6FBC2
:10175000F7F692B2B6EB42163300C0B2304E56F8EE
:101760002060B67A16F0E0063400C0B22C4E56F86F
:10177000206013F01F072743B772C0B2284E56F8F7
:101780002060F67856F00C06C0B2254F57F820704E
:10179000FE70F0BC7047C0B2214951F820100979A1
:1017A0008906F8D5C0B21E4951F82000C0797047AB
:1017B000C0B21B4A52F8202012791206F8D5C0B2E6
:1017C000174A52F82020D171704738B504000D0037
:1017D0002878002806D029782000C0B2FFF7E8FF5B
:1017E0006D1CF5E731BD00003C900440389004408A
:1017F000348004400CB0044010B004400CC00440DD
:1018000008C0044040B0044044B0044064D00440E8
:1018100060D004402880044024D0044020D00440FC
:101820009404FF1F0C06FF1F1406FF1FF8B50400E9
:101830000D0016001F00EDB2202D02D2FFB2022FC4
:1018400003D34721274800F08BF8EDB2E4B22648D5
:1018500050F82400F6B24FF48071314340F825105F
:10186000F00705D5F6B2032E02D0F6B2132E0DD135
:10187000E4B21E4850F8240040690121A940884381
:10188000E4B21A4951F8241048612AE0E4B217483A
:1018900050F8240040690121A9400843E4B21349EB
:1018A00051F824104861FFB2012F0DD1E4B20F4866
:1018B00050F8240000680121A9400843E4B20B4914
:1018C00051F8241008600CE0E4B2084850F82400F5
:1018D00000680121A9408843E4B2044951F824106A
:1018E0000860F1BD9C1E00007804FF1F6404FF1F08
:1018F00038B504000D001748006850F40000154981
:101900000860154800688008800013490860E4B248
:10191000200112494550E4B2104810EB0410C06891
:1019200050F00100E4B20D4911EB0411C860E4B2BB
:101930000A4810EB0410806850F00300E4B2074935
:1019400011EB04118860E4B214F14400FFF73DFC90
:1019500031BD00003C800440007003400071034032
:1019600038B504000D002A0021000248FFF707F8EF
:10197000F9E700BF0C1E000010B572B60120FFF79A
:101980000AFF04009F490120FFF71FFF2100C9B291
:101990000120FFF70DFF62B610BD10B59A48006830
:1019A00050F001009849086098480078401C974919
:1019B000087097480078D0F164000400E4B2022C6B
:1019C00006D392480078E4B2844201D100F04AF98B
:1019D0008E480078642802D38C480021017010BD25
:1019E0008C48006850F001008A4908608A480078F5
:1019F000401C894908708948012101708648007897
:101A0000022190FBF1F202FB1102002A02D184486C
:101A10000121017080480078032190FBF1F201FB65
:101A20001200002802D17F48012101707A48007815
:101A3000042190FBF1F202FB1102002A02D17A4844
:101A40000121017074480078102190FBF1F202FB33
:101A50001102002A02D17548012101706E480078F8
:101A6000C02802D16C480021017070477047704750
:101A700080B56F48FEF783FFFBE7002008210800D0
:101A80006C49096801228240114206D069490968FF
:101A9000012282401143674A11600921080065490B
:101AA000096801228240114206D062490968012278
:101AB000824011435F4A11600A2108005D490968AC
:101AC00001228240114206D05A490968012282400F
:101AD0001143584A11600B21080056490968012238
:101AE0008240114206D053490968012282401143C5
:101AF000504A116070470020002108004E490968D3
:101B000001228240114206D04B49096801228240DD
:101B10001143494A11600A21080047490968012216
:101B20008240114206D04449096801228240114393
:101B3000414A116070474148006850F001003F4938
:101B400008607047704738B53D4804683C4800213C
:101B50000160002005000120A8402100C9B2014217
:101B60000CD0EDB2374850F8350030F04000EDB2FF
:101B7000344941F835003448FEF701FF01200500E3
:101B80000120A8402100C9B2014209D0EDB22D4880
:101B900050F8350030F04000EDB22A4941F83500E8
:101BA00031BD80B52948006850F010002749086011
:101BB0000420FFF754FB2648006830F01000244949
:101BC000086024480121017001BD80B52248FEF75C
:101BD000D6FE1E48006850F001001C4908601C48F1
:101BE000006850F001001A49086001BD1B480068F8
:101BF00050F080001949086019480078401C1849C5
:101C000008707047A42200001C7103401F06FF1FCC
:101C10006004FF1F0C7103401E06FF1F1806FF1F04
:101C20001906FF1F1A06FF1F1B06FF1F1C06FF1FBA
:101C300078200000A0C00440A0A004402C71034004
:101C4000509003400C9003406C230000248000401F
:101C50000C8000402006FF1FB82200000000044056
:101C60002106FF1F10B5DFF8E000006850F0040007
:101C7000DFF8D410086000F055F8DFF8CC000068F9
:101C800050F00100DFF8C010086000F04BF8DFF8FA
:101C9000B800006830F00400DFF8AC10086000F015
:101CA00041F8DFF8A400006840084000DFF8981011
:101CB000086000200400E4B27F2C19D200F032F852
:101CC00000F030F8DFF88000006850F00100DFF825
:101CD0007810086000F026F800F024F8DFF86800BB
:101CE000006840084000DFF860100860641CE2E70C
:101CF00000F018F800F016F8DFF84C00006850F01B
:101D00000100DFF84410086000F00CF800F00AF859
:101D1000DFF83400006840084000DFF82C1008604D
:101D200010BD000081B000208DF800009DF800007B
:101D3000012807D200BF00BF9DF80000401C8DF8AD
:101D40000000F3E701B0704700F10F40F0B4114E0E
:101D5000366834000F4E366856F47F060D4F3E60ED
:101D60000E0616F0706656EA0076170517F470072F
:101D70003E431F0417F470273E43074F3E60002682
:101D80003500EDB29D4201D26D1CFAE7014E346080
:101D9000F0BC704700F00140448004400A0000009D
:101DA00000F00F4040F00F4080F00F40C0F00F40B7
:101DB00000F10F400090044000A0044000B0044037
:101DC00000C0044000D004400B1F000000090000C8
:101DD00000A0064000B0064000C0064000D006400B
:101DE00000A00E4000B00E4050F8041B61B150F846
:101DF000042BD30744BFA9F101039A18002342F82A
:101E0000043B091FFAD1EFE770470000B6CFD1D4E9
:101E1000B7A2C9FAD4DA2573CEC4BCFEB5C4B5DA0C
:101E20002564D0D0A3A10AB6CFD1D4CCF5BCFEB2E4
:101E3000BBB3C9C1A2A3ACC7EBBCECB2E2B4EDCE5C
:101E4000F3D4ADD2F2A1A309A1AAA1AA206279205C
:101E50000A0A0000C4DABACBC6B5C2CAA3BA25645E
:101E60004D487A09D7DCCFDFC6B5C2CA20A3BA2550
:101E7000644D487A0A666C6578C6B5C2CAA3BA25AD
:101E8000644D487A2009666C617368C6B5C2CAA3FE
:101E9000BA25644D487A0A0A00000000463A5CC13F
:101EA000D9CAB1CEC4BCFE5CB9E2B5E7D7E9D0C2AD
:101EB000C6BDCCA85C6C616E647A6F4E45572043FA
:101EC00043445C7372635C647269766572735C67C9
:101ED00070696F5C6770696F2E6300000A546869EF
:101EE000732076657273696F6E206F6620736F66FC
:101EF000747761726520646F65736E2774207265F4
:101F0000636F676E697A65207468652072657669AB
:101F100073696F6E20636F64652E00000A4552522C
:101F20002120496E76616C696420495251207661A6
:101F30006C75652070617373656420746F206469CB
:101F40007361626C65206972712066756E63746975
:101F50006F6E210A000000000A4552522120496E8E
:101F600076616C6964204952512076616C756520F8
:101F700070617373656420746F20656E61626C6557
:101F8000206972712066756E6374696F6E210A0034
:101F90000A2A2A2A2A64656661756C745F697372FD
:101FA00020656E7465726564206F6E20766563745B
:101FB0006F722025642A2A2A2A2A0D0A0A000000A4
:101FC0000A556E7265636F676E697A6564204B6946
:101FD0006E65746973207061636B61676520636F00
:101FE00064652E20202020202000000010B5084924
:101FF00079441C31074C7C441A34A14206D0081D98
:102000000A68511888470146A142F8D110BD00BFA7
:1020100058000000640000000A556E7265636F6727
:102020006E697A6564204B696E65746973206661B8
:102030006D696C79206465766963652E0A0000001D
:10204000466C61736820706172616D6574657220A1
:1020500076657273696F6E2025642E25642E256463
:102060002E25640A0000000081FDFFFF78010000BA
:10207000AC04FF1F000000000A2A2A2A2AD3B2BC9F
:10208000FEC9CFB7C3B4EDCEF32121212A2A2A2AD3
:102090002A0D0A0A000000000A0A0909C0B6D6E69D
:1020A0006B696E65746973BACBD0C4B0E5B2E2CA2D
:1020B000D4B3CCD0F20A00000AC0B6D6E64B696EA3
:1020C00065746973BFAAB7A2B0E5C6F4B6AFB7BD71
:1020D000CABDA3BA00000000455252212120556E0E
:1020E000646566696E656420502D666C6173682056
:1020F00073697A650A000000455252212120556E0D
:10210000646566696E656420466C65784E564D2040
:1021100073697A650A000000466C61736820766511
:102120007273696F6E2049442025642E25642E2524
:10213000642E25640A000000436F7265204C6F63B3
:102140006B7570204576656E742052657365740AF0
:10215000000000004C6F772D766F6C74616765200E
:102160004465746563742052657365740A000000E9
:10217000455252212120556E646566696E65642062
:1021800052414D2073697A650A0A000057617463F1
:1021900068646F6728434F50292052657365740A3D
:1021A000000000004C6F7373206F6620436C6F63F8
:1021B0006B2052657365740A0000000031323820CC
:1021C0006B4279746573206F6620502D666C617365
:1021D00068090000323536206B4279746573206FD0
:1021E0006620502D666C617368090000353132201D
:1021F0006B4279746573206F6620502D666C617335
:102200006809000030206B4279746573206F662086
:10221000466C65784E564D0A000000003132382079
:102220006B4279746573206F6620466C65784E56F4
:102230004D0A0000323536206B4279746573206F89
:102240006620466C65784E564D0A000080B50348FE
:102250000178C9B20248FEF792FB01BD04ED00E02F
:10226000901F000000F009F8002801D0FFF7BEFE23
:102270000020FEF7E3FE00F002F80120704700F0B6
:1022800001B800000746384600F002F8FBE70000FE
:1022900080B5C046C046024A11001820ABBEFBE71D
:1022A000260002000AC4E3B7A2CBCDB5C4CAFDBE66
:1022B000DDCEAAA3BA000000444D415F4348305F21
:1022C00048616E646C65720A0000000045787465B0
:1022D000726E616C2050696E2052657365740A00DD
:1022E00053696C69636F6E2072657620312E3020E1
:1022F00020200A0053696C69636F6E207265762036
:10230000312E3120200A000053696C69636F6E2002
:1023100072657620312E3220200A00003332206B85
:102320004279746573206F662052414D0A0A00009D
:102330003634206B4279746573206F662052414DAC
:102340000A0A00003936206B4279746573206F6683
:102350002052414D0A0A0000313238206B42797414
:102360006573206F662052414D0A0A000A46544D9B
:1023700031B7A2CBCDD6D0B6CF0A0000536F66746A
:10238000776172652052657365740A00506F7765D6
:10239000722D6F6E2052657365740A003332706956
:1023A0006E2020202020202000000000343870699A
:1023B0006E2020202020202000000000363470698C
:1023C0006E2020202020202000000000383070697E
:1023D0006E2020202020202000000000383170696D
:1023E0006E2020202020202000000000313030709E
:1023F000696E202020202020000000003130347041
:10240000696E20202020202000000000313434702C
:10241000696E202020202020000000003139367015
:10242000696E202020202020000000003235367008
:10243000696E20202020202000000000502D666CB6
:10244000617368206F6E6C790A00000010B504009B
:102450002100C9B20120FFF7ABF910BD4A54414732
:102460002052657365740A004C4C575520526573B1
:1024700065740A00666C617368C6F4B6AF0A000042
:102480005352414DC6F4B6AF0A000000C046C046E4
:10249000C046C046FFF7E6FE0A4B31302D00000073
:1024A0000A4B32302D0000000A4B33302D00000063
:1024B0000A4B34302D0000000A4B36302D0000004E
:1024C0000A4B37302D0000000A4B35302D0000003C
:0824D0000A4B35332D0000001A
:040000050000248D46
:00000001FF
