:10000000F8FF002011040000A11A0000FB0E000000
:10001000A11A0000A11A0000A11A0000A11A0000F4
:10002000A11A0000A11A0000A11A0000A11A0000E4
:10003000A11A0000A11A0000F90E0000F70E00003E
:1000400019100000A11A0000A11A0000A11A000056
:10005000F70F0000A11A0000A11A0000A11A000069
:10006000A11A0000A11A0000A11A0000A11A0000A4
:10007000A11A0000A11A0000A11A0000A11A000094
:10008000A11A0000A11A0000A11A0000A11A000084
:10009000A11A0000A11A0000A11A0000A11A000074
:1000A000A11A0000A11A0000A11A0000A11A000064
:1000B000A11A0000A11A0000A11A0000A11A000054
:1000C000A11A0000A11A0000A11A0000A11A000044
:1000D000A11A0000A11A0000A11A0000A11A000034
:1000E000A11A0000A11A0000A11A0000A11A000024
:1000F000A11A0000A11A0000A11A0000710E000050
:10010000A11A0000A11A0000A11A0000A11A000003
:10011000A11A0000A11A0000A11A0000A11A0000F3
:10012000A11A0000A11A0000A11A0000A11A0000E3
:10013000A11A0000A11A0000C90F0000CB0F000097
:10014000A11A0000A11A0000A11A0000A11A0000C3
:10015000A50E0000930E0000BD0F0000A11A0000C4
:10016000A11A0000A11A0000A11A0000A11A0000A3
:10017000A11A0000A11A0000A11A0000A11A000093
:10018000A11A0000A11A0000A11A0000A11A000083
:10019000A11A0000A11A0000A11A0000A11A000073
:1001A0009D0F000037100000090F0000A11A000089
:1001B000A11A0000A11A0000A11A0000A11A000053
:1001C000A11A0000A11A0000A11A0000A11A000043
:1001D000A11A0000A11A0000A11A0000A11A000033
:1001E000A11A0000A11A0000A11A0000A11A000023
:10040000FFFFFFFFFFFFFFFFFFFFFFFFFEFFFFFFFD
:1004100062B64FF000004FF000014FF000024FF0C5
:1004200000034FF000044FF000054FF000064FF0BE
:1004300000074FF000084FF000094FF0000A4FF09E
:10044000000B4FF0000C01F0BBFBFEE710B50C46B3
:100450001168012902D0022904D008E0C0B2516815
:10046000884704E0916808709068401C906020689C
:10047000401C206010BD30B4002400F8014B002A5D
:10048000096812D091B191FBF3F203FB121100291C
:1004900046BFC94301F1310501F130051146641C25
:1004A00000F8015B0029EED114E019B93021017088
:1004B00001240FE0B1FBF3F203FB12110A2934BF50
:1004C00001F1300501F137051146641C00F8015BAC
:1004D0000029EFD1204630BC70472DE9F04F80460F
:1004E0008FB00020924600900D4604E0424600A9DD
:1004F000FFF7ACFF6D1C2878010000F099812528DA
:100500000AD00A28F2D1424600A90D20FFF79EFF2B
:10051000424600A90A20EBE7002601E046F010065B
:1005200015F8010F20280ED02328F7D02B2807D04C
:100530002D2802D0302809D00BE046F00106EFE765
:1005400046F00206ECE746F00406E9E746F0080646
:10055000E6E7691E4FF0000905E009EB890200EBB0
:100560004200A0F1300911F8010F0246303A092A81
:10057000F3D92E2804D111F8010F30380928FAD9FF
:100580004D1E15F8010F4C2818BF682802D06C28A2
:1005900018BF6D1E15F8010F582862D0622800F0B0
:1005A000C080632800F00C81642818BF692811D02E
:1005B0006E2800F038816F2800F0AE80702800F0BF
:1005C000B580732800F00081752800F0B480782889
:1005D00047D08BE75AF8040B0A230390012203A9A2
:1005E00005A8FFF748FF044605A8201802900398C5
:1005F000002848BF2D2706D4B00748BF2B2702D4B8
:10060000700702D52027641C00E00027300711D5B1
:10061000384618B1424600A9FFF718FF4C4507DAE3
:10062000424600A93020FFF711FF641C4C45F7DB60
:100630004C46A9E0F0070BD4A3464C4508DA4246E5
:1006400000A92020FFF702FF0BF1010BCB45F6DBE1
:100650003846002800F09880424600A9FFF7F6FED1
:1006600092E05AF8040B10230190002201A905A87A
:10067000FFF701FF044605A8201802900027300765
:1006800018D5F0060AD5424600A93020FFF7DEFE55
:10069000424600A97820FFF7D9FE01274C4507DA2A
:1006A000424600A93020FFF7D1FE641C4C45F7DB21
:1006B0004C4621E0F0071FD406F010008DF8100022
:1006C00000B1A41CA346CB4508DA424600A920206D
:1006D000FFF7BCFE0BF1010BCB45F6DB9DF81000DC
:1006E00050B1424600A93020FFF7B0FE424600A9B3
:1006F0007820FFF7ABFE0127F00645D5002F43D148
:10070000424600A93020FFF7A1FE424600A978200A
:10071000FFF79CFEA41C37E05AF8040B0823019055
:100720000DE05AF8040B0223019008E05AF8040B7C
:100730001023019003E05AF8040B0A2301900022D1
:1007400001A905A8FFF797FE044605A82018029006
:1007500030070CD54C45BFF66BAF424600A93020A0
:10076000FFF774FE641C4C45F7DB4C460CE0F007C9
:100770000AD427464C4507DA424600A92020FFF755
:1007800065FE7F1C4F45F7DB0298007848B102A850
:10079000076842467B1E036000A93878FFF756FEC3
:1007A000F2E7F0077FF5A6AE4C45BFF6A3AE424692
:1007B00000A92020FFF74AFE641C4C45F7DB99E6B0
:1007C0005AF8040BC0B291E65AF8047B002F3FF4AC
:1007D00091AE384600F042F80446F0070BD4A34629
:1007E0004C4508DA424600A92020FFF72FFE0BF106
:1007F000010BCB45F6DB387830B1424600A917F83B
:10080000010BFFF723FEF6E7F0077FF573AE4C45CB
:10081000BFF670AE424600A92020FFF717FE641C09
:100820004C45F7DB66E65AF8040B0099016061E677
:1008300000980FB0BDE8F08F0EB400B584B0012170
:100840000091054905AA0191014600A8FFF745FE60
:1008500004B05DF810FB0000E11B0000002138B17E
:10086000027822B110F8012F491C002AFAD108465B
:10087000704750F8041B61B150F8042BD30744BFF4
:10088000A9F101039A18002342F8043B091FFAD189
:10089000EFE7704781B000B901200021ADF80210E8
:1008A00044F218710DE0BDF80020521CADF8002094
:1008B000BDF800208A42F6D3BDF80220521CADF8E4
:1008C0000220BDF80220824238BF0022EED301B0E0
:1008D000704781B000B9012000210BE09DF80010A5
:1008E000491C8DF800109DF800100F29F6D39DF8D3
:1008F0000110491C8DF801109DF80110814238BF8C
:100900000021EED301B0704710B5DE4C206820F412
:1009100000602060206840F4805020600120FFF7D4
:10092000D8FF206840F4806020600120FFF7D1FFED
:10093000206820F4805014E010B500E010B5D14CD0
:10094000206820F4805020600120FFF7C2FF20685B
:1009500040F4806020600120FFF7BBFF206840F476
:10096000805020600120FFF7B4FF206820F48060F1
:100970002060BDE810400220ABE710B5C14C2068F4
:1009800040F4805020600120FFF7A3FF206840F46E
:10099000806020600320FFF79CFF206820F48050D7
:1009A00020600120FFF795FF206820F48060206020
:1009B00010BD38B5B34C206840F4805020606069A9
:1009C00020F480506061206940F480502061012053
:1009D000FFF77FFF2068002540F4806020602069D9
:1009E000C00448BF01250120FFF773FF206820F4F1
:1009F00080602060606940F480506061206840F44D
:100A000080502060284632BD70B5044608269D4DB2
:100A1000761E2006286819D540F4805028600120F1
:100A2000FFF757FF286840F4806028600220FFF736
:100A300050FF286820F4806028600120FFF749FFFC
:100A4000286820F480502860012011E020F48050B4
:100A500028600120FFF73DFF286840F4806028608F
:100A60000220FFF736FF286820F48060286002200B
:100A7000FFF72FFF6400002ECAD170BD70B50024AF
:100A80000825804E706920F480507061306940F410
:100A9000805030610120FFF71CFF306820F4806037
:100AA00030600220FFF715FF306840F4806030604E
:100AB0000220FFF70EFF64063069240E6D1EC0048D
:100AC00048BF44F001043068002D20F4806030609D
:100AD000706940F480507061D4D1204670BD70B50B
:100AE00004460D461646FFF70FFF2046FFF78CFF22
:100AF000FFF75FFF012810D05EB1761E15F8010BDD
:100B0000FFF782FFFFF755FF012806D0B6B2002E8F
:100B1000F3D1FFF711FF012070BD002070BDF8B5C3
:100B200004460D4616460127FFF7EEFEDC20FFF7D0
:100B30006BFF0120FFF7CDFEFFF73BFF01282DD013
:100B40002878FFF761FF0120FFF7C3FEFFF731FFB1
:100B5000012823D0FFF7D8FE2046FFF755FF0120DC
:100B6000FFF7B7FEFFF725FF012817D0022E0BD3A2
:100B7000761E6C1CB6B2FFF781FF04F8010B7F1CD8
:100B8000FFF7DCFE761EF6D1FFF778FFBFB278558F
:100B9000FFF7F3FEFFF7D0FE0120F2BD0020F2BD0B
:100BA00080B5FFE7012301220A21042000F095F817
:100BB00001231A460B21042000F08FF8BDE80050F5
:100BC00001231A460C21042000F087B8F0B5ADF5DA
:100BD000037DFFF7E5FF2C4C6A26254602222946B5
:100BE000DC20FFF77CFF009010B1AD1C761EF5D124
:100BF0006420FFF74FFE009868B9FFF7D1FF254644
:100C00006A2602222946DC20FFF769FF0090E8B13E
:100C1000AD1C761EF5D101AD26466A2716F8020BEB
:100C200028700A20FFF755FE01222946DD20FFF734
:100C300076FFAD1C8DF800007F1EEFD1002001A9CA
:100C400014F8012B11F8013B9A4201D0002015E065
:100C500014F8012B11F8013B9A4202BF14F8012B42
:100C600011F8013B9A4202BF14F8012B11F8013B25
:100C70009A42EBD1001DD428E2DB01200DF5037D63
:100C8000F0BD000000F10F401004FF1F78B4284CA5
:100C90001B0404EB800503F470236D6913434FF4C8
:100CA0008076334345F82130012303FA01F1C5F87A
:100CB000C010D30707D5032A18BF132A03D0022A6E
:100CC00018BF122A05D154F82020536923EA0101E4
:100CD000516172BC573000F030B870B4144C4FF40E
:100CE000807604EB80056D69164345F82160D507D1
:100CF00003D5032A18BF132A09D154F82000012371
:100D0000426903FA01F122EA010141610EE054F85F
:100D10002000012202FA01F142690A434261012BDB
:100D200002680CBF114322EA0101016070BC7047E8
:100D3000E404FF1F2D490860704710B504465C2C81
:100D4000A4BF0FF2B800FFF777FD201104EBD060CD
:100D5000401103D0022815D00AD310BD0121A4EB05
:100D6000401001FA00F0224908602249086010BDD5
:100D70000121A4EB401001FA00F01D4948601D4913
:100D8000486010BD0121A4EB401001FA00F01849A1
:100D900088601849886010BD10B504465C2CA4BF5B
:100DA0000FF29000FFF748FD201104EBD0604011D6
:100DB00003D0022811D008D310BD0121A4EB4010AC
:100DC00001FA00F00C49086010BD0121A4EB4010AD
:100DD00001FA00F00849486010BD0121A4EB401061
:100DE00001FA00F00449886010BD000008ED00E041
:100DF00080E200E000E100E080E100E00A455252BC
:100E00002120496E76616C696420495251207661D7
:100E10006C75652070617373656420746F20656EF6
:100E200061626C65206972712066756E6374696FAA
:100E30006E210A000A4552522120496E76616C6982
:100E400064204952512076616C756520706173731E
:100E5000656420746F2064697361626C65206972D7
:100E6000712066756E6374696F6E210A0000000060
:100E700010B572B6012000F0ABF904460FF2002164
:100E8000012000F0B7F92146012000F0A9F962B66F
:100E900010BD6E48016841F00101016001216C48FC
:100EA000017070476B48016841F001010160012247
:100EB000694841790270491C4171CA075CBF01222F
:100EC0004270C9B20A46032392FBF3F303EB4303D8
:100ED000D31A04BF012383700323194204BF0123E3
:100EE000C3703F23194204BF01210171C02A04BF0E
:100EF0000021417170477047704710B50FF294148C
:100F00002046FFF799FCFBE738B5544C2068800475
:100F10002DD52068524D40F4005020606878A8B16B
:100F20006988C9B2002000F05BF94E48816941F040
:100F300010018161016841F0100101600420FFF798
:100F4000FCFE2878401C287000206870688869685A
:100F5000401C688080B20A88824208D101206870F3
:100F60004FF6FF72088890421CBF881C686020689A
:100F7000400412D520683A4D40F48040206001B012
:100F800005F1080068600923002068800222BDE89E
:100F900030400D210320FFF779BE31BD3248016892
:100FA000C90703D5016841F00101016001684905E5
:100FB00003D5016841F48061016070472B480168E6
:100FC00041F0010101607047704738B5284C656CED
:100FD00000206064E80707D5206820F0400020600A
:100FE0000FF2D000FFF728FCA80703D5A06820F077
:100FF0004000A06031BD10B51A4CA06940F010004F
:10100000A0610420FFF7C8FE206820F010002060D7
:1010100001211848017010BD80B50FF2A800FFF73C
:101020000BFC1048816941F001018161016841F0C8
:101030000101016001BD1048016841F080010160BB
:101040000E480178491C0170704700001C71034074
:101050003A25FF1F0C7103403425FF1FA0C0044038
:101060000C05FF1F0C800040A0A004402C71034021
:101070000C9003403B25FF1F000004403C25FF1F50
:101080000AC4E3B7A2CBCDB5C4CAFDBEDDCEAAA3C8
:10109000BA0000000A2A2A2A2AD3B2BCFEC9CFB756
:1010A000C3B4EDCEF32121212A2A2A2A2A0D0A0AC5
:1010B000000000000A46544D31B7A2CBCDD6D0B6C1
:1010C000CF0A0000444D415F4348305F48616E6481
:1010D0006C65720A00000000F0B4052844D8DFE80F
:1010E00000F0030E19242F39494A4FF4407353601E
:1010F0001360484AD36843F48063D36034E0464ABF
:101100004FF4407313605360424AD36843F4006362
:10111000D36029E0414A4FF44073536013603D4A65
:10112000D36843F48053D3601EE03B4A4FF44073CE
:1011300053639363374AD36843F40053D36013E097
:10114000374A4FF4407353641364324A136843F4CC
:10115000806308E0324A4FF44073536013602D4AB5
:10116000136843F4006313602E4B024653F8224089
:10117000E57805F0F305E57053F822400025A570E9
:1011800000281ABF01282848284800684FF47A74BC
:10119000604353F822500901B0FBF1F42F78260484
:1011A000360E66F304072F7053F8225040016C701E
:1011B00053F82240B0FBF1F0A17A60F30401A17270
:1011C00053F82200C17841F00C01C170F0BC7047A7
:1011D000144951F8202013799B06FCD5D07970472B
:1011E000104A52F8203093F804C05FEA0C6CFAD52C
:1011F000D971704738B504460D4604E015F8011B57
:101200002046FFF7EDFF28780028F7D131BD000018
:1012100038900440288004400CB0044008C00440CA
:1012200020D004402405FF1F3025FF1F2825FF1F65
:101230002DE9F84F884699460A990B9C0C9B09B9F1
:10124000012507E0012908BF022503D002290CBFB0
:1012500004251025DFF848C1524FDCF8086046F03D
:101260000206CCF80860DCF8046046F00206CCF810
:101270000460460146F80780F7193A610022BA80F7
:101280000A0202F4E06201F00706BD823243FA80EE
:101290006204520CFA82E205D20D434EFA833268A0
:1012A00022F080023260BD600022FA609A0654BFCC
:1012B00062420022BA610A22BA833C4ABA248454A8
:1012C0004FF40072DCF800004FEA591402FA04F4FB
:1012D0002043CCF800004846354C4FEA601A54F8D9
:1012E0002AE0012409F01F0704FA07F7FC43DEF89F
:1012F000147003F0030B2740CEF81470DFF8B4909D
:101300009B0900F01F0743EA0B4359F82A004FF4EA
:10131000807B4BEA030340F82730DEF8143023408B
:10132000CEF814304FEA9814DCF8003004F0070EC1
:1013300002FA0EF21A43CCF8002019B1022908D0A3
:1013400003D30AE088F804100CE00021A8F8041088
:1013500008E00021C8F8041004E077210FF25800DB
:1013600000F052F8A8F1100000F03F0000EBC501BA
:10137000C9B2024688420CDA04F0070380004FF439
:10138000817459F82350521C4451001DD2B28A4234
:10139000F7DB706A40F010007062BDE8F18F00006A
:1013A000388004400090004000800040001002405F
:1013B000E404FF1FF804FF1F463A5CC1D9CAB1CE4E
:1013C000C4BCFE5CC0B6D6E65F4246333030335C08
:1013D0006C616E647A6F6B3630C9E3CFF1CDB7C5FF
:1013E000E4D6C3B3CCD0F256312E342DCAFDD7D6B5
:1013F0005C7372635C647269766572735C646D6160
:101400005C646D612E63000070B504460D460FF2FA
:1014100010062A4621463046FFF70EFAF9E700008B
:10142000B6CFD1D4B7A2C9FAD4DA2573CEC4BCFEE4
:10143000B5C4B5DA2564D0D0A3A10AB6CFD1D4CC37
:10144000F5BCFEB2BBB3C9C1A2A3ACC7EBBCECB246
:10145000E2B4EDCEF3D4ADD2F2A1A309A1AAA1AA20
:10146000206279200A0A0000DFF800F03D05FF1F26
:1014700070B5002800F0918030281ED0322826D088
:10148000602827D064284DD06E2826D0782827D011
:101490007D2828D0822829D08C282AD096282BD0A5
:1014A000A0282CD0AA282DD0B4282ED0C8282FD0E0
:1014B000E12830D0FA2831D033E018210022594CED
:1014C000217000216270A17033282ED239E01821DA
:1014D0000122F4E718211822F1E718211F22EEE774
:1014E00013211822EBE713211A22E8E713211C220B
:1014F000E5E70E211222E2E70E211522DFE70E2199
:101500001822DCE70E211B22D9E70E211E22D6E786
:101510000C211C22D3E70B211E22D0E70A211F2217
:10152000CDE7642018211A22C9E7652838BF0121B8
:1015300007D3972838BF022103D3C92834BF03211A
:101540000F21E170E1781A28217138BF002023D3E0
:10155000332838BF01201FD34C2838BF02201BD3AB
:10156000652838BF032017D37E2838BF042013D343
:10157000972838BF05200FD3B02838BF06200BD3DB
:10158000C92838BF072007D3E22838BF082003D373
:10159000FB2834BF09200F206071224C3221607873
:1015A000214E183080B248432178491C89B290FB03
:1015B000F1F5002070701D48016841F08051016014
:1015C0001B48017841F08001017098203070B0799B
:1015D000C006FCD4B079C0F381000228FAD120788B
:1015E00000F01F0030710020707163792279E1787A
:1015F000A078FFF739FF607800F01F0040F040004E
:101600007071B0798006FCD5B0794006FCD5307891
:1016100000F03F003070B079C0F381000328FAD1A8
:10162000E8B270BD1C05FF1F004006403480044036
:1016300008C007402DE9F84F72B64FF4E1310020A1
:10164000FFF74AFD00F0C4F8012301221021002019
:10165000FFF743FB01231A4611210020FFF73DFB52
:10166000514C206800EB8001002000F0D1F8206888
:101670004FF47A714143012000F0CAF84B4C05E069
:10168000FFF7A4FA60706420FFF723F9607801285F
:10169000F6D162B6464D474E474FDFF82081DFF85E
:1016A0002091DFF820A1DFF820B19BF8000001288D
:1016B00004BF00208BF800009AF80000012804BF46
:1016C00000208AF8000099F80000012804BF0020DB
:1016D00089F8000098F80000012853D1002088F80C
:1016E000000038683968C0F3004080F0010060F302
:1016F000104139603078012844D1002030702078C2
:10170000401C2070287808B1002028700023032294
:101710000E210320FFF7BAFA002302220D21032035
:10172000FFF7B4FAFF210020FFF75AFDFB2100204C
:10173000FFF756FDBB210020FFF752FD28788C21D2
:1017400011FB00F080B2001900F50070606004F138
:101750000C00A06000206080A168606809780170BA
:10176000A068401CA0606068401C60606088401CED
:10177000608080B28C28EFDB0A2303220E21032035
:10178000FFF784FA1148007801288ED1386839684B
:10179000C0F3404080F0010060F351413960002106
:1017A0000A48017081E700BF3025FF1F7805FF1F41
:1017B0000C05FF1F3B25FF1F00F00F403825FF1FC2
:1017C0003625FF1F3525FF1F3425FF1F3A25FF1F34
:1017D00000B583B00A2303220E210320FFF756FA37
:1017E000092302220D210320FFF750FA81200290E5
:1017F0008C200190002000906F23034A03490420AD
:10180000FFF716FD03B000BD8405FF1F10F10F4068
:101810000D4A136843F4000313600C4A13689B08D5
:101820009B00FFE713600A4B0201D150D118CA6830
:10183000443042F00102CA608A6842F003028A60C2
:10184000FFF77BBA000000003C80044000700340BA
:101850000071034003000C00110012011317150260
:1018600016030300170018A019001A781B2A1F205E
:1018700020020903210022202333248A257A2A000A
:101880002B002C002D4F2E962F003A003B603E344B
:101890003FB0404C413B42304325441D4515461066
:1018A000470F480D490B4B094C094E084F06500590
:1018B000512F52905301548756705732588B590606
:1018C0005A9B5B3564026780688069A06A8970AE44
:1018D00071A6724F735F742780418108821683243A
:1018E0008424852A864F89B28AAA8B028E028F7041
:1018F00095149D369E04A127A212A32DA408A52EFF
:10190000A604A780A880A921AA21AB21AC0AADF02A
:10191000AEFFB1B0B2B0B680B780B880B900E77C96
:10192000F000F101F101F10100F00F4040F00F4033
:1019300080F00F40C0F00F4000F10F4000900440D5
:1019400000A0044000B0044000C0044000D00440A7
:1019500000000000000000001001FFFFFFFF00007A
:101960000B1F00000009000000A0064000B0064068
:1019700000C0064000D0064000A00E4000B00E405F
:1019800010B51649164C8C4204D04FF482522046B2
:1019900000F038F82046FFF7CDF91249124A1348F3
:1019A000521A05D011F8013B521E00F8013BF9D143
:1019B0000F481049091A05D0491E002200F8012BD2
:1019C0000029F9D10C490D4A0D48521A05D011F8D9
:1019D000013B521E00F8013BF9D110BD0000000090
:1019E0000000FF1F54180000801900001004FF1FA2
:1019F0007805FF1F3D25FF1FE01A00001C1B00009B
:101A00003C05FF1F103A07D330B4B1E83810103A44
:101A1000A0E83810F9D230BC530724BFB1E8081051
:101A2000A0E8081044BF51F8043B40F8043BD2073B
:101A300024BF31F8022B20F8022B44BF0B7803702F
:101A40007047083A07D3B1E80810083A40F8043B59
:101A500040F804CBF7D25307E4E7000038B50E4D49
:101A60000E4C286840F4785028606420FFF700FD91
:101A700060604FF47A7111FB00F02060E968C1F3F7
:101A80000361491CB0FBF1F0A060BDE834404FF4A5
:101A900096410120FFF720BB388004402825FF1F16
:101AA000024801780FF20800FEF7C6BE04ED00E020
:101AB0000A2A2A2A2A64656661756C745F697372E2
:101AC00020656E7465726564206F6E207665637440
:101AD0006F722025642A2A2A2A2A0D0A0A00000089
:101AE00070B4090601F0706141EA00701105094CFB
:101AF00001F47001084325681904266801F4702177
:101B0000084346F47F06044926600860256070BCDF
:101B1000704700BF00F001404480044080B500F0F1
:101B200007F808484FF6FE7201881140018001BD98
:101B300072B605484CF2205101804DF62811018003
:101B400062B67047002005400E20054010B50749D9
:101B500079441831064C7C44163404E00A68081DA8
:101B6000511888470146A142F8D110BD0800000075
:101B700014000000FFECFFFFC81F00007805FF1FE6
:101B8000000000000120C046002801D0FFF7DEFF62
:101B90000020FFF74FFD00F000F800F001B8000052
:101BA0000746384600F002F8FBE7000080B5C04663
:101BB000C046024A11001820ABBEFBE72600020017
:101BC00080B5FFF7ABFFFFF7DBFEFFF747FFFFF73F
:101BD00031FDFEE7C046C046C046C046FFF7D2FF13
:081BE00001460120FFF7FCBAE9
:0400000500001BD507
:00000001FF
